{
  "contractName": "HopRouter",
  "abi": [
    {
      "inputs": [
        {
          "internalType": "address",
          "name": "_addr",
          "type": "address"
        },
        {
          "internalType": "uint8",
          "name": "_projectId",
          "type": "uint8"
        },
        {
          "internalType": "uint16",
          "name": "_chainId",
          "type": "uint16"
        },
        {
          "internalType": "uint8",
          "name": "_hopTokenIndex",
          "type": "uint8"
        }
      ],
      "stateMutability": "nonpayable",
      "type": "constructor"
    },
    {
      "anonymous": false,
      "inputs": [
        {
          "indexed": true,
          "internalType": "address",
          "name": "previousOwner",
          "type": "address"
        },
        {
          "indexed": true,
          "internalType": "address",
          "name": "newOwner",
          "type": "address"
        }
      ],
      "name": "OwnershipTransferred",
      "type": "event"
    },
    {
      "anonymous": false,
      "inputs": [
        {
          "indexed": false,
          "internalType": "uint8",
          "name": "projectId",
          "type": "uint8"
        },
        {
          "indexed": false,
          "internalType": "uint256",
          "name": "_poolId",
          "type": "uint256"
        },
        {
          "indexed": false,
          "internalType": "uint256",
          "name": "_amountLD",
          "type": "uint256"
        },
        {
          "indexed": false,
          "internalType": "address",
          "name": "_to",
          "type": "address"
        }
      ],
      "name": "PoolAddLiquidityEvent",
      "type": "event"
    },
    {
      "anonymous": false,
      "inputs": [
        {
          "indexed": false,
          "internalType": "uint8",
          "name": "projectId",
          "type": "uint8"
        },
        {
          "indexed": false,
          "internalType": "string",
          "name": "token",
          "type": "string"
        },
        {
          "indexed": false,
          "internalType": "uint8",
          "name": "id",
          "type": "uint8"
        }
      ],
      "name": "PoolAdded",
      "type": "event"
    },
    {
      "anonymous": false,
      "inputs": [
        {
          "indexed": false,
          "internalType": "uint8",
          "name": "projectId",
          "type": "uint8"
        },
        {
          "indexed": false,
          "internalType": "uint256",
          "name": "_srcPoolId",
          "type": "uint256"
        },
        {
          "indexed": false,
          "internalType": "uint256",
          "name": "_amountLP",
          "type": "uint256"
        },
        {
          "indexed": false,
          "internalType": "address",
          "name": "_to",
          "type": "address"
        }
      ],
      "name": "PoolRemoveLiquidity",
      "type": "event"
    },
    {
      "anonymous": false,
      "inputs": [
        {
          "indexed": false,
          "internalType": "uint8",
          "name": "projectId",
          "type": "uint8"
        },
        {
          "indexed": false,
          "internalType": "string",
          "name": "token",
          "type": "string"
        }
      ],
      "name": "PoolRemoved",
      "type": "event"
    },
    {
      "inputs": [],
      "name": "owner",
      "outputs": [
        {
          "internalType": "address",
          "name": "",
          "type": "address"
        }
      ],
      "stateMutability": "view",
      "type": "function",
      "constant": true
    },
    {
      "inputs": [],
      "name": "renounceOwnership",
      "outputs": [],
      "stateMutability": "nonpayable",
      "type": "function"
    },
    {
      "inputs": [
        {
          "internalType": "address",
          "name": "newOwner",
          "type": "address"
        }
      ],
      "name": "transferOwnership",
      "outputs": [],
      "stateMutability": "nonpayable",
      "type": "function"
    },
    {
      "inputs": [
        {
          "internalType": "string",
          "name": "token",
          "type": "string"
        },
        {
          "internalType": "uint8",
          "name": "id",
          "type": "uint8"
        }
      ],
      "name": "addTokenPool",
      "outputs": [],
      "stateMutability": "nonpayable",
      "type": "function"
    },
    {
      "inputs": [
        {
          "internalType": "string",
          "name": "token",
          "type": "string"
        }
      ],
      "name": "removeTokenPool",
      "outputs": [],
      "stateMutability": "nonpayable",
      "type": "function"
    },
    {
      "inputs": [
        {
          "internalType": "string",
          "name": "token",
          "type": "string"
        }
      ],
      "name": "getTokenPool",
      "outputs": [
        {
          "internalType": "uint8",
          "name": "_tokenId",
          "type": "uint8"
        }
      ],
      "stateMutability": "view",
      "type": "function",
      "constant": true
    },
    {
      "inputs": [
        {
          "internalType": "string",
          "name": "_token",
          "type": "string"
        },
        {
          "internalType": "uint256",
          "name": "_amountLD",
          "type": "uint256"
        },
        {
          "internalType": "address",
          "name": "_to",
          "type": "address"
        }
      ],
      "name": "addLiquidity",
      "outputs": [],
      "stateMutability": "nonpayable",
      "type": "function"
    },
    {
      "inputs": [
        {
          "internalType": "string",
          "name": "token",
          "type": "string"
        },
        {
          "internalType": "uint256",
          "name": "_amountLP",
          "type": "uint256"
        },
        {
          "internalType": "address",
          "name": "_to",
          "type": "address"
        }
      ],
      "name": "removeLiquidity",
      "outputs": [],
      "stateMutability": "nonpayable",
      "type": "function"
    }
  ],
  "bytecode": "0x60806040523480156200001157600080fd5b506040516200139238038062001392833981810160405281019062000037919062000296565b620000576200004b620000e360201b60201c565b620000eb60201b60201c565b83600160006101000a81548173ffffffffffffffffffffffffffffffffffffffff021916908373ffffffffffffffffffffffffffffffffffffffff16021790555082600060146101000a81548160ff021916908360ff1602179055508161ffff1660028190555080600360006101000a81548160ff021916908360ff1602179055505050505062000308565b600033905090565b60008060009054906101000a900473ffffffffffffffffffffffffffffffffffffffff169050816000806101000a81548173ffffffffffffffffffffffffffffffffffffffff021916908373ffffffffffffffffffffffffffffffffffffffff1602179055508173ffffffffffffffffffffffffffffffffffffffff168173ffffffffffffffffffffffffffffffffffffffff167f8be0079c531659141344cd1fd0a4f28419497f9722a3daafe3b4186f6b6457e060405160405180910390a35050565b600080fd5b600073ffffffffffffffffffffffffffffffffffffffff82169050919050565b6000620001e182620001b4565b9050919050565b620001f381620001d4565b8114620001ff57600080fd5b50565b6000815190506200021381620001e8565b92915050565b600060ff82169050919050565b620002318162000219565b81146200023d57600080fd5b50565b600081519050620002518162000226565b92915050565b600061ffff82169050919050565b620002708162000257565b81146200027c57600080fd5b50565b600081519050620002908162000265565b92915050565b60008060008060808587031215620002b357620002b2620001af565b5b6000620002c38782880162000202565b9450506020620002d68782880162000240565b9350506040620002e9878288016200027f565b9250506060620002fc8782880162000240565b91505092959194509250565b61107a80620003186000396000f3fe608060405234801561001057600080fd5b50600436106100885760003560e01c8063a7082de51161005b578063a7082de514610101578063e3275d561461011d578063e502021f14610139578063f2fde38b1461015557610088565b8063473953be1461008d57806350f094e4146100bd578063715018a6146100d95780638da5cb5b146100e3575b600080fd5b6100a760048036038101906100a29190610971565b610171565b6040516100b491906109d6565b60405180910390f35b6100d760048036038101906100d29190610a1d565b6101a6565b005b6100e1610233565b005b6100eb610247565b6040516100f89190610aba565b60405180910390f35b61011b60048036038101906101169190610b37565b610270565b005b61013760048036038101906101329190610971565b6103fc565b005b610153600480360381019061014e9190610b37565b61047d565b005b61016f600480360381019061016a9190610ba6565b610635565b005b60006004826040516101839190610c44565b908152602001604051809103902060009054906101000a900460ff169050919050565b6101ae6106b8565b806004836040516101bf9190610c44565b908152602001604051809103902060006101000a81548160ff021916908360ff1602179055507f4890af0366188cf41fbde6fd71fd65ee373eadb3a7bdaf08c8e33327fe92f6b5600060149054906101000a900460ff16838360405161022793929190610ca5565b60405180910390a15050565b61023b6106b8565b6102456000610736565b565b60008060009054906101000a900473ffffffffffffffffffffffffffffffffffffffff16905090565b600160009054906101000a900473ffffffffffffffffffffffffffffffffffffffff16600360016101000a81548173ffffffffffffffffffffffffffffffffffffffff021916908373ffffffffffffffffffffffffffffffffffffffff160217905550600360019054906101000a900473ffffffffffffffffffffffffffffffffffffffff1673ffffffffffffffffffffffffffffffffffffffff16633e3a156083600360009054906101000a900460ff168561032f625000006107fa565b6040518563ffffffff1660e01b815260040161034e9493929190610cf2565b600060405180830381600087803b15801561036857600080fd5b505af115801561037c573d6000803e3d6000fd5b505050507ffef8e61dd74c7aa672773153432114aa4c0a27897a80c715a986fd64ee621741600060149054906101000a900460ff166004856040516103c19190610c44565b908152602001604051809103902060009054906101000a900460ff1684846040516103ef9493929190610d72565b60405180910390a1505050565b6104046106b8565b6004816040516104149190610c44565b908152602001604051809103902060006101000a81549060ff02191690557fc711764bcf4589611b7bb6ddf25104d01fd1f72de959471f8a15786f4fb3df95600060149054906101000a900460ff1682604051610472929190610db7565b60405180910390a150565b600160009054906101000a900473ffffffffffffffffffffffffffffffffffffffff16600360016101000a81548173ffffffffffffffffffffffffffffffffffffffff021916908373ffffffffffffffffffffffffffffffffffffffff160217905550600360019054906101000a900473ffffffffffffffffffffffffffffffffffffffff1673ffffffffffffffffffffffffffffffffffffffff16633e8847ec8367ffffffffffffffff81111561053857610537610846565b5b6040519080825280602002602001820160405280156105665781602001602082028036833780820191505090505b5084846040518463ffffffff1660e01b815260040161058793929190610ea5565b600060405180830381600087803b1580156105a157600080fd5b505af11580156105b5573d6000803e3d6000fd5b505050507fa352002d708e7faff3eeef3b4475b6517105f279068f9a2a637a96822e5ced59600060149054906101000a900460ff166004856040516105fa9190610c44565b908152602001604051809103902060009054906101000a900460ff1684846040516106289493929190610d72565b60405180910390a1505050565b61063d6106b8565b600073ffffffffffffffffffffffffffffffffffffffff168173ffffffffffffffffffffffffffffffffffffffff16036106ac576040517f08c379a00000000000000000000000000000000000000000000000000000000081526004016106a390610f55565b60405180910390fd5b6106b581610736565b50565b6106c061080f565b73ffffffffffffffffffffffffffffffffffffffff166106de610247565b73ffffffffffffffffffffffffffffffffffffffff1614610734576040517f08c379a000000000000000000000000000000000000000000000000000000000815260040161072b90610fc1565b60405180910390fd5b565b60008060009054906101000a900473ffffffffffffffffffffffffffffffffffffffff169050816000806101000a81548173ffffffffffffffffffffffffffffffffffffffff021916908373ffffffffffffffffffffffffffffffffffffffff1602179055508173ffffffffffffffffffffffffffffffffffffffff168173ffffffffffffffffffffffffffffffffffffffff167f8be0079c531659141344cd1fd0a4f28419497f9722a3daafe3b4186f6b6457e060405160405180910390a35050565b600081426108089190611010565b9050919050565b600033905090565b6000604051905090565b600080fd5b600080fd5b600080fd5b600080fd5b6000601f19601f8301169050919050565b7f4e487b7100000000000000000000000000000000000000000000000000000000600052604160045260246000fd5b61087e82610835565b810181811067ffffffffffffffff8211171561089d5761089c610846565b5b80604052505050565b60006108b0610817565b90506108bc8282610875565b919050565b600067ffffffffffffffff8211156108dc576108db610846565b5b6108e582610835565b9050602081019050919050565b82818337600083830152505050565b600061091461090f846108c1565b6108a6565b9050828152602081018484840111156109305761092f610830565b5b61093b8482856108f2565b509392505050565b600082601f8301126109585761095761082b565b5b8135610968848260208601610901565b91505092915050565b60006020828403121561098757610986610821565b5b600082013567ffffffffffffffff8111156109a5576109a4610826565b5b6109b184828501610943565b91505092915050565b600060ff82169050919050565b6109d0816109ba565b82525050565b60006020820190506109eb60008301846109c7565b92915050565b6109fa816109ba565b8114610a0557600080fd5b50565b600081359050610a17816109f1565b92915050565b60008060408385031215610a3457610a33610821565b5b600083013567ffffffffffffffff811115610a5257610a51610826565b5b610a5e85828601610943565b9250506020610a6f85828601610a08565b9150509250929050565b600073ffffffffffffffffffffffffffffffffffffffff82169050919050565b6000610aa482610a79565b9050919050565b610ab481610a99565b82525050565b6000602082019050610acf6000830184610aab565b92915050565b6000819050919050565b610ae881610ad5565b8114610af357600080fd5b50565b600081359050610b0581610adf565b92915050565b610b1481610a99565b8114610b1f57600080fd5b50565b600081359050610b3181610b0b565b92915050565b600080600060608486031215610b5057610b4f610821565b5b600084013567ffffffffffffffff811115610b6e57610b6d610826565b5b610b7a86828701610943565b9350506020610b8b86828701610af6565b9250506040610b9c86828701610b22565b9150509250925092565b600060208284031215610bbc57610bbb610821565b5b6000610bca84828501610b22565b91505092915050565b600081519050919050565b600081905092915050565b60005b83811015610c07578082015181840152602081019050610bec565b60008484015250505050565b6000610c1e82610bd3565b610c288185610bde565b9350610c38818560208601610be9565b80840191505092915050565b6000610c508284610c13565b915081905092915050565b600082825260208201905092915050565b6000610c7782610bd3565b610c818185610c5b565b9350610c91818560208601610be9565b610c9a81610835565b840191505092915050565b6000606082019050610cba60008301866109c7565b8181036020830152610ccc8185610c6c565b9050610cdb60408301846109c7565b949350505050565b610cec81610ad5565b82525050565b6000608082019050610d076000830187610ce3565b610d1460208301866109c7565b610d216040830185610ce3565b610d2e6060830184610ce3565b95945050505050565b6000819050919050565b6000610d5c610d57610d52846109ba565b610d37565b610ad5565b9050919050565b610d6c81610d41565b82525050565b6000608082019050610d8760008301876109c7565b610d946020830186610d63565b610da16040830185610ce3565b610dae6060830184610aab565b95945050505050565b6000604082019050610dcc60008301856109c7565b8181036020830152610dde8184610c6c565b90509392505050565b600081519050919050565b600082825260208201905092915050565b6000819050602082019050919050565b610e1c81610ad5565b82525050565b6000610e2e8383610e13565b60208301905092915050565b6000602082019050919050565b6000610e5282610de7565b610e5c8185610df2565b9350610e6783610e03565b8060005b83811015610e98578151610e7f8882610e22565b9750610e8a83610e3a565b925050600181019050610e6b565b5085935050505092915050565b60006060820190508181036000830152610ebf8186610e47565b9050610ece6020830185610ce3565b610edb6040830184610aab565b949350505050565b7f4f776e61626c653a206e6577206f776e657220697320746865207a65726f206160008201527f6464726573730000000000000000000000000000000000000000000000000000602082015250565b6000610f3f602683610c5b565b9150610f4a82610ee3565b604082019050919050565b60006020820190508181036000830152610f6e81610f32565b9050919050565b7f4f776e61626c653a2063616c6c6572206973206e6f7420746865206f776e6572600082015250565b6000610fab602083610c5b565b9150610fb682610f75565b602082019050919050565b60006020820190508181036000830152610fda81610f9e565b9050919050565b7f4e487b7100000000000000000000000000000000000000000000000000000000600052601160045260246000fd5b600061101b82610ad5565b915061102683610ad5565b925082820190508082111561103e5761103d610fe1565b5b9291505056fea26469706673582212204568ac3fc08843b069d28a329cd61e1f160a0366b32545646f44917f8e88097f64736f6c63430008110033",
  "immutableReferences": {},
  "source": "// SPDX-License-Identifier: MIT\npragma solidity >=0.4.22 <0.9.0;\n\nimport \"../../node_modules/@openzeppelin/contracts/access/Ownable.sol\";\nimport \"../interfaces/IHopRouter.sol\";\nimport \"../interfaces/IIntegration.sol\";\n\ncontract HopRouter is IIntegration, Ownable {\n\n    uint8 projectId;\n    address private addr;\n    uint256 private hopChainId;\n    uint8 private hopTokenIndex;\n    IHopRouter private router;\n\n    mapping(string => uint8) private tokenId;\n    \n    constructor(address _addr, uint8 _projectId, uint16 _chainId, uint8 _hopTokenIndex) {\n        addr = _addr;\n        projectId = _projectId;\n        hopChainId = _chainId;\n        hopTokenIndex = _hopTokenIndex;\n    }\n\n    function addTokenPool(string memory token, uint8 id) public onlyOwner {\n        tokenId[token] = id;\n        emit PoolAdded(projectId, token, id);\n    }\n\n    function removeTokenPool(string memory token) public onlyOwner {\n        delete tokenId[token];\n        emit PoolRemoved(projectId, token);\n    }\n\n    function getTokenPool(string memory token) public view returns (uint8 _tokenId) {\n        return tokenId[token];\n    }\n\n    function addLiquidity(\n        string memory _token,\n        uint256 _amountLD,\n        address _to\n    ) external {\n        router = IHopRouter(addr);\n        router.addLiquidity(new uint256[](_amountLD), _amountLD, _to);\n        emit PoolAddLiquidityEvent(projectId, tokenId[_token], _amountLD, _to);\n    }\n\n    function removeLiquidity(\n        string memory token,\n        uint256 _amountLP,\n        address _to\n    ) external {\n        router = IHopRouter(addr);\n        router.removeLiquidityOneToken(_amountLP, hopTokenIndex, _amountLP, getDeadline(0x500000));\n        emit PoolRemoveLiquidity(projectId, tokenId[token], _amountLP, _to);\n    }\n\n    function getDeadline(uint256 _timeBuffer) internal view returns (uint256 timestamp) {\n        return block.timestamp + _timeBuffer;\n    }\n}\n",
  "sourcePath": "/Users/irasigman/code/agoras/bandit-protocol/contracts/integrations/HopRouter.sol",
  "compiler": {
    "name": "solc",
    "version": "0.8.17+commit.8df45f5f.Emscripten.clang"
  },
  "schemaVersion": "3.4.10",
  "updatedAt": "2023-01-08T18:56:45.133Z",
  "networkType": "ethereum",
  "devdoc": {
    "kind": "dev",
    "methods": {
      "owner()": {
        "details": "Returns the address of the current owner."
      },
      "renounceOwnership()": {
        "details": "Leaves the contract without owner. It will not be possible to call `onlyOwner` functions anymore. Can only be called by the current owner. NOTE: Renouncing ownership will leave the contract without an owner, thereby removing any functionality that is only available to the owner."
      },
      "transferOwnership(address)": {
        "details": "Transfers ownership of the contract to a new account (`newOwner`). Can only be called by the current owner."
      }
    },
    "version": 1
  },
  "userdoc": {
    "kind": "user",
    "methods": {},
    "version": 1
  }
}