{
  "contractName": "HopRouter",
  "abi": [
    {
      "inputs": [
        {
          "internalType": "address",
          "name": "_addr",
          "type": "address"
        },
        {
          "internalType": "uint8",
          "name": "_projectId",
          "type": "uint8"
        },
        {
          "internalType": "uint16",
          "name": "_chainId",
          "type": "uint16"
        },
        {
          "internalType": "uint8",
          "name": "_hopTokenIndex",
          "type": "uint8"
        }
      ],
      "stateMutability": "nonpayable",
      "type": "constructor"
    },
    {
      "anonymous": false,
      "inputs": [
        {
          "indexed": true,
          "internalType": "address",
          "name": "previousOwner",
          "type": "address"
        },
        {
          "indexed": true,
          "internalType": "address",
          "name": "newOwner",
          "type": "address"
        }
      ],
      "name": "OwnershipTransferred",
      "type": "event"
    },
    {
      "anonymous": false,
      "inputs": [
        {
          "indexed": false,
          "internalType": "uint8",
          "name": "projectId",
          "type": "uint8"
        },
        {
          "indexed": false,
          "internalType": "uint256",
          "name": "_poolId",
          "type": "uint256"
        },
        {
          "indexed": false,
          "internalType": "uint256",
          "name": "_amountLD",
          "type": "uint256"
        },
        {
          "indexed": false,
          "internalType": "address",
          "name": "_to",
          "type": "address"
        }
      ],
      "name": "PoolAddLiquidityEvent",
      "type": "event"
    },
    {
      "anonymous": false,
      "inputs": [
        {
          "indexed": false,
          "internalType": "uint8",
          "name": "projectId",
          "type": "uint8"
        },
        {
          "indexed": false,
          "internalType": "string",
          "name": "token",
          "type": "string"
        },
        {
          "indexed": false,
          "internalType": "uint8",
          "name": "id",
          "type": "uint8"
        }
      ],
      "name": "PoolAdded",
      "type": "event"
    },
    {
      "anonymous": false,
      "inputs": [
        {
          "indexed": false,
          "internalType": "uint8",
          "name": "projectId",
          "type": "uint8"
        },
        {
          "indexed": false,
          "internalType": "uint256",
          "name": "_srcPoolId",
          "type": "uint256"
        },
        {
          "indexed": false,
          "internalType": "uint256",
          "name": "_amountLP",
          "type": "uint256"
        },
        {
          "indexed": false,
          "internalType": "address",
          "name": "_to",
          "type": "address"
        }
      ],
      "name": "PoolRemoveLiquidity",
      "type": "event"
    },
    {
      "anonymous": false,
      "inputs": [
        {
          "indexed": false,
          "internalType": "uint8",
          "name": "projectId",
          "type": "uint8"
        },
        {
          "indexed": false,
          "internalType": "string",
          "name": "token",
          "type": "string"
        }
      ],
      "name": "PoolRemoved",
      "type": "event"
    },
    {
      "inputs": [],
      "name": "owner",
      "outputs": [
        {
          "internalType": "address",
          "name": "",
          "type": "address"
        }
      ],
      "stateMutability": "view",
      "type": "function",
      "constant": true
    },
    {
      "inputs": [],
      "name": "renounceOwnership",
      "outputs": [],
      "stateMutability": "nonpayable",
      "type": "function"
    },
    {
      "inputs": [
        {
          "internalType": "address",
          "name": "newOwner",
          "type": "address"
        }
      ],
      "name": "transferOwnership",
      "outputs": [],
      "stateMutability": "nonpayable",
      "type": "function"
    },
    {
      "inputs": [
        {
          "internalType": "address",
          "name": "_poolAddress",
          "type": "address"
        }
      ],
      "name": "getBalance",
      "outputs": [
        {
          "internalType": "uint256",
          "name": "balance",
          "type": "uint256"
        }
      ],
      "stateMutability": "view",
      "type": "function",
      "constant": true
    },
    {
      "inputs": [
        {
          "internalType": "address",
          "name": "_poolAddress",
          "type": "address"
        },
        {
          "internalType": "address",
          "name": "_stakingAddress",
          "type": "address"
        }
      ],
      "name": "getNotionalBalance",
      "outputs": [
        {
          "internalType": "uint256",
          "name": "notionalBalance",
          "type": "uint256"
        }
      ],
      "stateMutability": "view",
      "type": "function",
      "constant": true
    },
    {
      "inputs": [
        {
          "internalType": "address",
          "name": "_stakingAddress",
          "type": "address"
        }
      ],
      "name": "getStakedBalance",
      "outputs": [
        {
          "internalType": "uint256",
          "name": "stakedBalance",
          "type": "uint256"
        }
      ],
      "stateMutability": "view",
      "type": "function",
      "constant": true
    },
    {
      "inputs": [
        {
          "internalType": "address",
          "name": "_rewardsAddress",
          "type": "address"
        }
      ],
      "name": "getRewardsBalance",
      "outputs": [
        {
          "internalType": "uint256",
          "name": "rewardsBalance",
          "type": "uint256"
        }
      ],
      "stateMutability": "view",
      "type": "function",
      "constant": true
    },
    {
      "inputs": [
        {
          "internalType": "address",
          "name": "_poolAddress",
          "type": "address"
        }
      ],
      "name": "getVirtualPrice",
      "outputs": [
        {
          "internalType": "uint256",
          "name": "",
          "type": "uint256"
        }
      ],
      "stateMutability": "view",
      "type": "function",
      "constant": true
    },
    {
      "inputs": [
        {
          "internalType": "string",
          "name": "token",
          "type": "string"
        },
        {
          "internalType": "uint8",
          "name": "id",
          "type": "uint8"
        }
      ],
      "name": "addTokenPool",
      "outputs": [],
      "stateMutability": "nonpayable",
      "type": "function"
    },
    {
      "inputs": [
        {
          "internalType": "string",
          "name": "token",
          "type": "string"
        }
      ],
      "name": "removeTokenPool",
      "outputs": [],
      "stateMutability": "nonpayable",
      "type": "function"
    },
    {
      "inputs": [
        {
          "internalType": "string",
          "name": "token",
          "type": "string"
        }
      ],
      "name": "getTokenPool",
      "outputs": [
        {
          "internalType": "uint8",
          "name": "_tokenId",
          "type": "uint8"
        }
      ],
      "stateMutability": "view",
      "type": "function",
      "constant": true
    },
    {
      "inputs": [
        {
          "internalType": "string",
          "name": "_token",
          "type": "string"
        },
        {
          "internalType": "uint256",
          "name": "_amountLD",
          "type": "uint256"
        },
        {
          "internalType": "address",
          "name": "_to",
          "type": "address"
        }
      ],
      "name": "addLiquidity",
      "outputs": [],
      "stateMutability": "nonpayable",
      "type": "function"
    },
    {
      "inputs": [
        {
          "internalType": "string",
          "name": "token",
          "type": "string"
        },
        {
          "internalType": "uint256",
          "name": "_amountLP",
          "type": "uint256"
        },
        {
          "internalType": "address",
          "name": "_to",
          "type": "address"
        }
      ],
      "name": "removeLiquidity",
      "outputs": [],
      "stateMutability": "nonpayable",
      "type": "function"
    },
    {
      "inputs": [
        {
          "internalType": "address",
          "name": "_poolAddress",
          "type": "address"
        },
        {
          "internalType": "address",
          "name": "_stakingAddress",
          "type": "address"
        }
      ],
      "name": "stake",
      "outputs": [],
      "stateMutability": "nonpayable",
      "type": "function"
    },
    {
      "inputs": [
        {
          "internalType": "address",
          "name": "_stakingAddress",
          "type": "address"
        }
      ],
      "name": "unstake",
      "outputs": [],
      "stateMutability": "nonpayable",
      "type": "function"
    }
  ],
  "bytecode": "0x60806040523480156200001157600080fd5b5060405162001a1a38038062001a1a833981810160405281019062000037919062000296565b620000576200004b620000e360201b60201c565b620000eb60201b60201c565b83600160006101000a81548173ffffffffffffffffffffffffffffffffffffffff021916908373ffffffffffffffffffffffffffffffffffffffff16021790555082600060146101000a81548160ff021916908360ff1602179055508161ffff1660028190555080600360006101000a81548160ff021916908360ff1602179055505050505062000308565b600033905090565b60008060009054906101000a900473ffffffffffffffffffffffffffffffffffffffff169050816000806101000a81548173ffffffffffffffffffffffffffffffffffffffff021916908373ffffffffffffffffffffffffffffffffffffffff1602179055508173ffffffffffffffffffffffffffffffffffffffff168173ffffffffffffffffffffffffffffffffffffffff167f8be0079c531659141344cd1fd0a4f28419497f9722a3daafe3b4186f6b6457e060405160405180910390a35050565b600080fd5b600073ffffffffffffffffffffffffffffffffffffffff82169050919050565b6000620001e182620001b4565b9050919050565b620001f381620001d4565b8114620001ff57600080fd5b50565b6000815190506200021381620001e8565b92915050565b600060ff82169050919050565b620002318162000219565b81146200023d57600080fd5b50565b600081519050620002518162000226565b92915050565b600061ffff82169050919050565b620002708162000257565b81146200027c57600080fd5b50565b600081519050620002908162000265565b92915050565b60008060008060808587031215620002b357620002b2620001af565b5b6000620002c38782880162000202565b9450506020620002d68782880162000240565b9350506040620002e9878288016200027f565b9250506060620002fc8782880162000240565b91505092959194509250565b61170280620003186000396000f3fe608060405234801561001057600080fd5b50600436106100f55760003560e01c8063a7082de511610097578063f1be0eba11610066578063f1be0eba1461026e578063f2888dbb1461029e578063f2fde38b146102ba578063f8b2cb4f146102d6576100f5565b8063a7082de5146101ea578063bb8605c014610206578063e3275d5614610236578063e502021f14610252576100f5565b8063715018a6116100d3578063715018a614610176578063808615ac146101805780638a67f4bf1461019c5780638da5cb5b146101cc576100f5565b80633a02a42d146100fa578063473953be1461012a57806350f094e41461015a575b600080fd5b610114600480360381019061010f9190610e32565b610306565b6040516101219190610e78565b60405180910390f35b610144600480360381019061013f9190610fd9565b610389565b604051610151919061103e565b60405180910390f35b610174600480360381019061016f9190611085565b6103be565b005b61017e61044b565b005b61019a600480360381019061019591906110e1565b61045f565b005b6101b660048036038101906101b19190610e32565b6104dc565b6040516101c39190610e78565b60405180910390f35b6101d461055e565b6040516101e19190611130565b60405180910390f35b61020460048036038101906101ff9190611177565b610587565b005b610220600480360381019061021b91906110e1565b610713565b60405161022d9190610e78565b60405180910390f35b610250600480360381019061024b9190610fd9565b61082e565b005b61026c60048036038101906102679190611177565b6108af565b005b61028860048036038101906102839190610e32565b610a67565b6040516102959190610e78565b60405180910390f35b6102b860048036038101906102b39190610e32565b610adf565b005b6102d460048036038101906102cf9190610e32565b610b5b565b005b6102f060048036038101906102eb9190610e32565b610bde565b6040516102fd9190610e78565b60405180910390f35b60008173ffffffffffffffffffffffffffffffffffffffff166370a08231306040518263ffffffff1660e01b81526004016103419190611130565b602060405180830381865afa15801561035e573d6000803e3d6000fd5b505050506040513d601f19601f8201168201806040525081019061038291906111fb565b9050919050565b600060048260405161039b9190611299565b908152602001604051809103902060009054906101000a900460ff169050919050565b6103c6610c61565b806004836040516103d79190611299565b908152602001604051809103902060006101000a81548160ff021916908360ff1602179055507f4890af0366188cf41fbde6fd71fd65ee373eadb3a7bdaf08c8e33327fe92f6b5600060149054906101000a900460ff16838360405161043f939291906112fa565b60405180910390a15050565b610453610c61565b61045d6000610cdf565b565b600061046a83610bde565b90508173ffffffffffffffffffffffffffffffffffffffff1663a694fc3a826040518263ffffffff1660e01b81526004016104a59190610e78565b600060405180830381600087803b1580156104bf57600080fd5b505af11580156104d3573d6000803e3d6000fd5b50505050505050565b60008173ffffffffffffffffffffffffffffffffffffffff16628cc262306040518263ffffffff1660e01b81526004016105169190611130565b602060405180830381865afa158015610533573d6000803e3d6000fd5b505050506040513d601f19601f8201168201806040525081019061055791906111fb565b9050919050565b60008060009054906101000a900473ffffffffffffffffffffffffffffffffffffffff16905090565b600160009054906101000a900473ffffffffffffffffffffffffffffffffffffffff16600360016101000a81548173ffffffffffffffffffffffffffffffffffffffff021916908373ffffffffffffffffffffffffffffffffffffffff160217905550600360019054906101000a900473ffffffffffffffffffffffffffffffffffffffff1673ffffffffffffffffffffffffffffffffffffffff16633e3a156083600360009054906101000a900460ff168561064662500000610da3565b6040518563ffffffff1660e01b81526004016106659493929190611338565b600060405180830381600087803b15801561067f57600080fd5b505af1158015610693573d6000803e3d6000fd5b505050507ffef8e61dd74c7aa672773153432114aa4c0a27897a80c715a986fd64ee621741600060149054906101000a900460ff166004856040516106d89190611299565b908152602001604051809103902060009054906101000a900460ff16848460405161070694939291906113b8565b60405180910390a1505050565b600061071e83610a67565b8273ffffffffffffffffffffffffffffffffffffffff166370a08231306040518263ffffffff1660e01b81526004016107579190611130565b602060405180830381865afa158015610774573d6000803e3d6000fd5b505050506040513d601f19601f8201168201806040525081019061079891906111fb565b8473ffffffffffffffffffffffffffffffffffffffff166370a08231306040518263ffffffff1660e01b81526004016107d19190611130565b602060405180830381865afa1580156107ee573d6000803e3d6000fd5b505050506040513d601f19601f8201168201806040525081019061081291906111fb565b61081c919061142c565b6108269190611460565b905092915050565b610836610c61565b6004816040516108469190611299565b908152602001604051809103902060006101000a81549060ff02191690557fc711764bcf4589611b7bb6ddf25104d01fd1f72de959471f8a15786f4fb3df95600060149054906101000a900460ff16826040516108a49291906114a2565b60405180910390a150565b600160009054906101000a900473ffffffffffffffffffffffffffffffffffffffff16600360016101000a81548173ffffffffffffffffffffffffffffffffffffffff021916908373ffffffffffffffffffffffffffffffffffffffff160217905550600360019054906101000a900473ffffffffffffffffffffffffffffffffffffffff1673ffffffffffffffffffffffffffffffffffffffff16633e8847ec8367ffffffffffffffff81111561096a57610969610eae565b5b6040519080825280602002602001820160405280156109985781602001602082028036833780820191505090505b5084846040518463ffffffff1660e01b81526004016109b993929190611590565b600060405180830381600087803b1580156109d357600080fd5b505af11580156109e7573d6000803e3d6000fd5b505050507fa352002d708e7faff3eeef3b4475b6517105f279068f9a2a637a96822e5ced59600060149054906101000a900460ff16600485604051610a2c9190611299565b908152602001604051809103902060009054906101000a900460ff168484604051610a5a94939291906113b8565b60405180910390a1505050565b60008173ffffffffffffffffffffffffffffffffffffffff1663e25aa5fa6040518163ffffffff1660e01b8152600401602060405180830381865afa158015610ab4573d6000803e3d6000fd5b505050506040513d601f19601f82011682018060405250810190610ad891906111fb565b9050919050565b6000610aea82610306565b90508173ffffffffffffffffffffffffffffffffffffffff16632e1a7d4d826040518263ffffffff1660e01b8152600401610b259190610e78565b600060405180830381600087803b158015610b3f57600080fd5b505af1158015610b53573d6000803e3d6000fd5b505050505050565b610b63610c61565b600073ffffffffffffffffffffffffffffffffffffffff168173ffffffffffffffffffffffffffffffffffffffff1603610bd2576040517f08c379a0000000000000000000000000000000000000000000000000000000008152600401610bc990611640565b60405180910390fd5b610bdb81610cdf565b50565b60008173ffffffffffffffffffffffffffffffffffffffff166370a08231306040518263ffffffff1660e01b8152600401610c199190611130565b602060405180830381865afa158015610c36573d6000803e3d6000fd5b505050506040513d601f19601f82011682018060405250810190610c5a91906111fb565b9050919050565b610c69610db8565b73ffffffffffffffffffffffffffffffffffffffff16610c8761055e565b73ffffffffffffffffffffffffffffffffffffffff1614610cdd576040517f08c379a0000000000000000000000000000000000000000000000000000000008152600401610cd4906116ac565b60405180910390fd5b565b60008060009054906101000a900473ffffffffffffffffffffffffffffffffffffffff169050816000806101000a81548173ffffffffffffffffffffffffffffffffffffffff021916908373ffffffffffffffffffffffffffffffffffffffff1602179055508173ffffffffffffffffffffffffffffffffffffffff168173ffffffffffffffffffffffffffffffffffffffff167f8be0079c531659141344cd1fd0a4f28419497f9722a3daafe3b4186f6b6457e060405160405180910390a35050565b60008142610db1919061142c565b9050919050565b600033905090565b6000604051905090565b600080fd5b600080fd5b600073ffffffffffffffffffffffffffffffffffffffff82169050919050565b6000610dff82610dd4565b9050919050565b610e0f81610df4565b8114610e1a57600080fd5b50565b600081359050610e2c81610e06565b92915050565b600060208284031215610e4857610e47610dca565b5b6000610e5684828501610e1d565b91505092915050565b6000819050919050565b610e7281610e5f565b82525050565b6000602082019050610e8d6000830184610e69565b92915050565b600080fd5b600080fd5b6000601f19601f8301169050919050565b7f4e487b7100000000000000000000000000000000000000000000000000000000600052604160045260246000fd5b610ee682610e9d565b810181811067ffffffffffffffff82111715610f0557610f04610eae565b5b80604052505050565b6000610f18610dc0565b9050610f248282610edd565b919050565b600067ffffffffffffffff821115610f4457610f43610eae565b5b610f4d82610e9d565b9050602081019050919050565b82818337600083830152505050565b6000610f7c610f7784610f29565b610f0e565b905082815260208101848484011115610f9857610f97610e98565b5b610fa3848285610f5a565b509392505050565b600082601f830112610fc057610fbf610e93565b5b8135610fd0848260208601610f69565b91505092915050565b600060208284031215610fef57610fee610dca565b5b600082013567ffffffffffffffff81111561100d5761100c610dcf565b5b61101984828501610fab565b91505092915050565b600060ff82169050919050565b61103881611022565b82525050565b6000602082019050611053600083018461102f565b92915050565b61106281611022565b811461106d57600080fd5b50565b60008135905061107f81611059565b92915050565b6000806040838503121561109c5761109b610dca565b5b600083013567ffffffffffffffff8111156110ba576110b9610dcf565b5b6110c685828601610fab565b92505060206110d785828601611070565b9150509250929050565b600080604083850312156110f8576110f7610dca565b5b600061110685828601610e1d565b925050602061111785828601610e1d565b9150509250929050565b61112a81610df4565b82525050565b60006020820190506111456000830184611121565b92915050565b61115481610e5f565b811461115f57600080fd5b50565b6000813590506111718161114b565b92915050565b6000806000606084860312156111905761118f610dca565b5b600084013567ffffffffffffffff8111156111ae576111ad610dcf565b5b6111ba86828701610fab565b93505060206111cb86828701611162565b92505060406111dc86828701610e1d565b9150509250925092565b6000815190506111f58161114b565b92915050565b60006020828403121561121157611210610dca565b5b600061121f848285016111e6565b91505092915050565b600081519050919050565b600081905092915050565b60005b8381101561125c578082015181840152602081019050611241565b60008484015250505050565b600061127382611228565b61127d8185611233565b935061128d81856020860161123e565b80840191505092915050565b60006112a58284611268565b915081905092915050565b600082825260208201905092915050565b60006112cc82611228565b6112d681856112b0565b93506112e681856020860161123e565b6112ef81610e9d565b840191505092915050565b600060608201905061130f600083018661102f565b818103602083015261132181856112c1565b9050611330604083018461102f565b949350505050565b600060808201905061134d6000830187610e69565b61135a602083018661102f565b6113676040830185610e69565b6113746060830184610e69565b95945050505050565b6000819050919050565b60006113a261139d61139884611022565b61137d565b610e5f565b9050919050565b6113b281611387565b82525050565b60006080820190506113cd600083018761102f565b6113da60208301866113a9565b6113e76040830185610e69565b6113f46060830184611121565b95945050505050565b7f4e487b7100000000000000000000000000000000000000000000000000000000600052601160045260246000fd5b600061143782610e5f565b915061144283610e5f565b925082820190508082111561145a576114596113fd565b5b92915050565b600061146b82610e5f565b915061147683610e5f565b925082820261148481610e5f565b9150828204841483151761149b5761149a6113fd565b5b5092915050565b60006040820190506114b7600083018561102f565b81810360208301526114c981846112c1565b90509392505050565b600081519050919050565b600082825260208201905092915050565b6000819050602082019050919050565b61150781610e5f565b82525050565b600061151983836114fe565b60208301905092915050565b6000602082019050919050565b600061153d826114d2565b61154781856114dd565b9350611552836114ee565b8060005b8381101561158357815161156a888261150d565b975061157583611525565b925050600181019050611556565b5085935050505092915050565b600060608201905081810360008301526115aa8186611532565b90506115b96020830185610e69565b6115c66040830184611121565b949350505050565b7f4f776e61626c653a206e6577206f776e657220697320746865207a65726f206160008201527f6464726573730000000000000000000000000000000000000000000000000000602082015250565b600061162a6026836112b0565b9150611635826115ce565b604082019050919050565b600060208201905081810360008301526116598161161d565b9050919050565b7f4f776e61626c653a2063616c6c6572206973206e6f7420746865206f776e6572600082015250565b60006116966020836112b0565b91506116a182611660565b602082019050919050565b600060208201905081810360008301526116c581611689565b905091905056fea2646970667358221220e8bc05ef69ee906aa3de6109294a350ee621f9f38891ca00b1f7e32b059c996964736f6c63430008110033",
  "immutableReferences": {},
  "source": "// SPDX-License-Identifier: MIT\npragma solidity >=0.4.22 <0.9.0;\n\nimport \"../../node_modules/@openzeppelin/contracts/access/Ownable.sol\";\nimport \"../../node_modules/@openzeppelin/contracts/token/ERC20/IERC20.sol\";\nimport \"../interfaces/IHopRouter.sol\";\nimport \"../interfaces/IStakingIntegration.sol\";\nimport \"../interfaces/IHopPool.sol\";\nimport \"../interfaces/IHopRewards.sol\";\n\ncontract HopRouter is IStakingIntegration, Ownable {\n\n    uint8 projectId;\n    address private addr;\n    uint256 private hopChainId;\n    uint8 private hopTokenIndex;\n    IHopRouter private router;\n\n    mapping(string => uint8) private tokenId;\n    \n    constructor(address _addr, uint8 _projectId, uint16 _chainId, uint8 _hopTokenIndex) {\n        addr = _addr;\n        projectId = _projectId;\n        hopChainId = _chainId;\n        hopTokenIndex = _hopTokenIndex;\n    }\n\n    function getBalance(address _poolAddress) public view returns (uint256 balance) {\n        return IERC20(_poolAddress).balanceOf(address(this));\n    }\n\n    function getNotionalBalance(\n        address _poolAddress, \n        address _stakingAddress\n    ) external view returns (uint256 notionalBalance) {\n        return (IERC20(_poolAddress).balanceOf(address(this)) + IERC20(_stakingAddress).balanceOf(address(this))) * getVirtualPrice(_poolAddress);\n    }\n\n    function getStakedBalance(address _stakingAddress) public view returns (uint256 stakedBalance) {\n        return IERC20(_stakingAddress).balanceOf(address(this));\n    }\n\n    function getRewardsBalance(address _rewardsAddress) external view returns (uint256 rewardsBalance) {\n        return IHopRewards(_rewardsAddress).earned(address(this));\n    }\n\n    function getVirtualPrice(address _poolAddress) public view returns (uint256) {\n        return IHopPool(_poolAddress).getVirtualPrice();\n    }\n\n    function addTokenPool(string memory token, uint8 id) public onlyOwner {\n        tokenId[token] = id;\n        emit PoolAdded(projectId, token, id);\n    }\n\n    function removeTokenPool(string memory token) public onlyOwner {\n        delete tokenId[token];\n        emit PoolRemoved(projectId, token);\n    }\n\n    function getTokenPool(string memory token) public view returns (uint8 _tokenId) {\n        return tokenId[token];\n    }\n\n    function addLiquidity(\n        string memory _token,\n        uint256 _amountLD,\n        address _to\n    ) external {\n        router = IHopRouter(addr);\n        router.addLiquidity(new uint256[](_amountLD), _amountLD, _to);\n        emit PoolAddLiquidityEvent(projectId, tokenId[_token], _amountLD, _to);\n    }\n\n    function removeLiquidity(\n        string memory token,\n        uint256 _amountLP,\n        address _to\n    ) external {\n        router = IHopRouter(addr);\n        router.removeLiquidityOneToken(_amountLP, hopTokenIndex, _amountLP, getDeadline(0x500000));\n        emit PoolRemoveLiquidity(projectId, tokenId[token], _amountLP, _to);\n    }\n\n    function stake(address _poolAddress, address _stakingAddress) external {\n        uint256 balance = getBalance(_poolAddress);\n        IHopRewards(_stakingAddress).stake(balance);\n    }\n\n    function unstake(address _stakingAddress) external {\n        uint256 stakedBalance = getStakedBalance(_stakingAddress);\n        IHopRewards(_stakingAddress).withdraw(stakedBalance);\n    }\n\n    function getDeadline(uint256 _timeBuffer) internal view returns (uint256 timestamp) {\n        return block.timestamp + _timeBuffer;\n    }\n    \n}\n",
  "sourcePath": "/Users/irasigman/code/agoras/bandit-protocol/contracts/integrations/HopRouter.sol",
  "compiler": {
    "name": "solc",
    "version": "0.8.17+commit.8df45f5f.Emscripten.clang"
  },
  "schemaVersion": "3.4.10",
  "updatedAt": "2023-01-22T01:49:28.326Z",
  "networkType": "ethereum",
  "devdoc": {
    "kind": "dev",
    "methods": {
      "owner()": {
        "details": "Returns the address of the current owner."
      },
      "renounceOwnership()": {
        "details": "Leaves the contract without owner. It will not be possible to call `onlyOwner` functions anymore. Can only be called by the current owner. NOTE: Renouncing ownership will leave the contract without an owner, thereby removing any functionality that is only available to the owner."
      },
      "transferOwnership(address)": {
        "details": "Transfers ownership of the contract to a new account (`newOwner`). Can only be called by the current owner."
      }
    },
    "version": 1
  },
  "userdoc": {
    "kind": "user",
    "methods": {},
    "version": 1
  }
}