{
  "contractName": "HopRouter",
  "abi": [
    {
      "inputs": [
        {
          "internalType": "address",
          "name": "_addr",
          "type": "address"
        },
        {
          "internalType": "uint8",
          "name": "_projectId",
          "type": "uint8"
        },
        {
          "internalType": "uint16",
          "name": "_chainId",
          "type": "uint16"
        },
        {
          "internalType": "uint8",
          "name": "_hopTokenIndex",
          "type": "uint8"
        }
      ],
      "stateMutability": "nonpayable",
      "type": "constructor"
    },
    {
      "anonymous": false,
      "inputs": [
        {
          "indexed": true,
          "internalType": "address",
          "name": "previousOwner",
          "type": "address"
        },
        {
          "indexed": true,
          "internalType": "address",
          "name": "newOwner",
          "type": "address"
        }
      ],
      "name": "OwnershipTransferred",
      "type": "event"
    },
    {
      "anonymous": false,
      "inputs": [
        {
          "indexed": false,
          "internalType": "uint8",
          "name": "projectId",
          "type": "uint8"
        },
        {
          "indexed": false,
          "internalType": "uint256",
          "name": "_poolId",
          "type": "uint256"
        },
        {
          "indexed": false,
          "internalType": "uint256",
          "name": "_amountLD",
          "type": "uint256"
        },
        {
          "indexed": false,
          "internalType": "address",
          "name": "_to",
          "type": "address"
        }
      ],
      "name": "PoolAddLiquidityEvent",
      "type": "event"
    },
    {
      "anonymous": false,
      "inputs": [
        {
          "indexed": false,
          "internalType": "uint8",
          "name": "projectId",
          "type": "uint8"
        },
        {
          "indexed": false,
          "internalType": "string",
          "name": "token",
          "type": "string"
        },
        {
          "indexed": false,
          "internalType": "uint8",
          "name": "id",
          "type": "uint8"
        }
      ],
      "name": "PoolAdded",
      "type": "event"
    },
    {
      "anonymous": false,
      "inputs": [
        {
          "indexed": false,
          "internalType": "uint8",
          "name": "projectId",
          "type": "uint8"
        },
        {
          "indexed": false,
          "internalType": "uint256",
          "name": "_srcPoolId",
          "type": "uint256"
        },
        {
          "indexed": false,
          "internalType": "uint256",
          "name": "_amountLP",
          "type": "uint256"
        },
        {
          "indexed": false,
          "internalType": "address",
          "name": "_to",
          "type": "address"
        }
      ],
      "name": "PoolRemoveLiquidity",
      "type": "event"
    },
    {
      "anonymous": false,
      "inputs": [
        {
          "indexed": false,
          "internalType": "uint8",
          "name": "projectId",
          "type": "uint8"
        },
        {
          "indexed": false,
          "internalType": "string",
          "name": "token",
          "type": "string"
        }
      ],
      "name": "PoolRemoved",
      "type": "event"
    },
    {
      "inputs": [],
      "name": "owner",
      "outputs": [
        {
          "internalType": "address",
          "name": "",
          "type": "address"
        }
      ],
      "stateMutability": "view",
      "type": "function",
      "constant": true
    },
    {
      "inputs": [],
      "name": "renounceOwnership",
      "outputs": [],
      "stateMutability": "nonpayable",
      "type": "function"
    },
    {
      "inputs": [
        {
          "internalType": "address",
          "name": "newOwner",
          "type": "address"
        }
      ],
      "name": "transferOwnership",
      "outputs": [],
      "stateMutability": "nonpayable",
      "type": "function"
    },
    {
      "inputs": [
        {
          "internalType": "string",
          "name": "token",
          "type": "string"
        },
        {
          "internalType": "uint8",
          "name": "id",
          "type": "uint8"
        }
      ],
      "name": "addTokenPool",
      "outputs": [],
      "stateMutability": "nonpayable",
      "type": "function"
    },
    {
      "inputs": [
        {
          "internalType": "string",
          "name": "token",
          "type": "string"
        }
      ],
      "name": "removeTokenPool",
      "outputs": [],
      "stateMutability": "nonpayable",
      "type": "function"
    },
    {
      "inputs": [
        {
          "internalType": "string",
          "name": "_token",
          "type": "string"
        },
        {
          "internalType": "uint256",
          "name": "_amountLD",
          "type": "uint256"
        },
        {
          "internalType": "address",
          "name": "_to",
          "type": "address"
        }
      ],
      "name": "addLiquidity",
      "outputs": [],
      "stateMutability": "nonpayable",
      "type": "function"
    },
    {
      "inputs": [
        {
          "internalType": "string",
          "name": "token",
          "type": "string"
        },
        {
          "internalType": "uint256",
          "name": "_amountLP",
          "type": "uint256"
        },
        {
          "internalType": "address",
          "name": "_to",
          "type": "address"
        }
      ],
      "name": "removeLiquidity",
      "outputs": [],
      "stateMutability": "nonpayable",
      "type": "function"
    }
  ],
  "bytecode": "0x60806040523480156200001157600080fd5b506040516200136c3803806200136c833981810160405281019062000037919062000296565b620000576200004b620000e360201b60201c565b620000eb60201b60201c565b83600160006101000a81548173ffffffffffffffffffffffffffffffffffffffff021916908373ffffffffffffffffffffffffffffffffffffffff16021790555082600060146101000a81548160ff021916908360ff1602179055508161ffff1660028190555080600360006101000a81548160ff021916908360ff1602179055505050505062000308565b600033905090565b60008060009054906101000a900473ffffffffffffffffffffffffffffffffffffffff169050816000806101000a81548173ffffffffffffffffffffffffffffffffffffffff021916908373ffffffffffffffffffffffffffffffffffffffff1602179055508173ffffffffffffffffffffffffffffffffffffffff168173ffffffffffffffffffffffffffffffffffffffff167f8be0079c531659141344cd1fd0a4f28419497f9722a3daafe3b4186f6b6457e060405160405180910390a35050565b600080fd5b600073ffffffffffffffffffffffffffffffffffffffff82169050919050565b6000620001e182620001b4565b9050919050565b620001f381620001d4565b8114620001ff57600080fd5b50565b6000815190506200021381620001e8565b92915050565b600060ff82169050919050565b620002318162000219565b81146200023d57600080fd5b50565b600081519050620002518162000226565b92915050565b600061ffff82169050919050565b620002708162000257565b81146200027c57600080fd5b50565b600081519050620002908162000265565b92915050565b60008060008060808587031215620002b357620002b2620001af565b5b6000620002c38782880162000202565b9450506020620002d68782880162000240565b9350506040620002e9878288016200027f565b9250506060620002fc8782880162000240565b91505092959194509250565b61105480620003186000396000f3fe608060405234801561001057600080fd5b506004361061007d5760003560e01c8063a7082de51161005b578063a7082de5146100c6578063e3275d56146100e2578063e502021f146100fe578063f2fde38b1461011a5761007d565b806350f094e414610082578063715018a61461009e5780638da5cb5b146100a8575b600080fd5b61009c6004803603810190610097919061094c565b610136565b005b6100a66101c3565b005b6100b06101d7565b6040516100bd91906109e9565b60405180910390f35b6100e060048036038101906100db9190610a66565b610200565b005b6100fc60048036038101906100f79190610ad5565b610395565b005b61011860048036038101906101139190610a66565b610416565b005b610134600480360381019061012f9190610b1e565b6105d7565b005b61013e61065a565b8060048360405161014f9190610bbc565b908152602001604051809103902060006101000a81548160ff021916908360ff1602179055507f4890af0366188cf41fbde6fd71fd65ee373eadb3a7bdaf08c8e33327fe92f6b5600060149054906101000a900460ff1683836040516101b793929190610c2c565b60405180910390a15050565b6101cb61065a565b6101d560006106d8565b565b60008060009054906101000a900473ffffffffffffffffffffffffffffffffffffffff16905090565b600160009054906101000a900473ffffffffffffffffffffffffffffffffffffffff16600360016101000a81548173ffffffffffffffffffffffffffffffffffffffff021916908373ffffffffffffffffffffffffffffffffffffffff16021790555060006004846040516102759190610bbc565b908152602001604051809103902060009054906101000a900460ff1660ff169050600360019054906101000a900473ffffffffffffffffffffffffffffffffffffffff1673ffffffffffffffffffffffffffffffffffffffff16633e3a156084600360009054906101000a900460ff16866102f26250000061079c565b6040518563ffffffff1660e01b81526004016103119493929190610c79565b600060405180830381600087803b15801561032b57600080fd5b505af115801561033f573d6000803e3d6000fd5b505050507ffef8e61dd74c7aa672773153432114aa4c0a27897a80c715a986fd64ee621741600060149054906101000a900460ff168285856040516103879493929190610d07565b60405180910390a150505050565b61039d61065a565b6004816040516103ad9190610bbc565b908152602001604051809103902060006101000a81549060ff02191690557fc711764bcf4589611b7bb6ddf25104d01fd1f72de959471f8a15786f4fb3df95600060149054906101000a900460ff168260405161040b929190610d4c565b60405180910390a150565b600160009054906101000a900473ffffffffffffffffffffffffffffffffffffffff16600360016101000a81548173ffffffffffffffffffffffffffffffffffffffff021916908373ffffffffffffffffffffffffffffffffffffffff160217905550600060048460405161048b9190610bbc565b908152602001604051809103902060009054906101000a900460ff1660ff169050600360019054906101000a900473ffffffffffffffffffffffffffffffffffffffff1673ffffffffffffffffffffffffffffffffffffffff16633e8847ec8467ffffffffffffffff811115610504576105036107e8565b5b6040519080825280602002602001820160405280156105325781602001602082028036833780820191505090505b5085856040518463ffffffff1660e01b815260040161055393929190610e3a565b600060405180830381600087803b15801561056d57600080fd5b505af1158015610581573d6000803e3d6000fd5b505050507fa352002d708e7faff3eeef3b4475b6517105f279068f9a2a637a96822e5ced59600060149054906101000a900460ff168285856040516105c99493929190610e78565b60405180910390a150505050565b6105df61065a565b600073ffffffffffffffffffffffffffffffffffffffff168173ffffffffffffffffffffffffffffffffffffffff160361064e576040517f08c379a000000000000000000000000000000000000000000000000000000000815260040161064590610f2f565b60405180910390fd5b610657816106d8565b50565b6106626107b1565b73ffffffffffffffffffffffffffffffffffffffff166106806101d7565b73ffffffffffffffffffffffffffffffffffffffff16146106d6576040517f08c379a00000000000000000000000000000000000000000000000000000000081526004016106cd90610f9b565b60405180910390fd5b565b60008060009054906101000a900473ffffffffffffffffffffffffffffffffffffffff169050816000806101000a81548173ffffffffffffffffffffffffffffffffffffffff021916908373ffffffffffffffffffffffffffffffffffffffff1602179055508173ffffffffffffffffffffffffffffffffffffffff168173ffffffffffffffffffffffffffffffffffffffff167f8be0079c531659141344cd1fd0a4f28419497f9722a3daafe3b4186f6b6457e060405160405180910390a35050565b600081426107aa9190610fea565b9050919050565b600033905090565b6000604051905090565b600080fd5b600080fd5b600080fd5b600080fd5b6000601f19601f8301169050919050565b7f4e487b7100000000000000000000000000000000000000000000000000000000600052604160045260246000fd5b610820826107d7565b810181811067ffffffffffffffff8211171561083f5761083e6107e8565b5b80604052505050565b60006108526107b9565b905061085e8282610817565b919050565b600067ffffffffffffffff82111561087e5761087d6107e8565b5b610887826107d7565b9050602081019050919050565b82818337600083830152505050565b60006108b66108b184610863565b610848565b9050828152602081018484840111156108d2576108d16107d2565b5b6108dd848285610894565b509392505050565b600082601f8301126108fa576108f96107cd565b5b813561090a8482602086016108a3565b91505092915050565b600060ff82169050919050565b61092981610913565b811461093457600080fd5b50565b60008135905061094681610920565b92915050565b60008060408385031215610963576109626107c3565b5b600083013567ffffffffffffffff811115610981576109806107c8565b5b61098d858286016108e5565b925050602061099e85828601610937565b9150509250929050565b600073ffffffffffffffffffffffffffffffffffffffff82169050919050565b60006109d3826109a8565b9050919050565b6109e3816109c8565b82525050565b60006020820190506109fe60008301846109da565b92915050565b6000819050919050565b610a1781610a04565b8114610a2257600080fd5b50565b600081359050610a3481610a0e565b92915050565b610a43816109c8565b8114610a4e57600080fd5b50565b600081359050610a6081610a3a565b92915050565b600080600060608486031215610a7f57610a7e6107c3565b5b600084013567ffffffffffffffff811115610a9d57610a9c6107c8565b5b610aa9868287016108e5565b9350506020610aba86828701610a25565b9250506040610acb86828701610a51565b9150509250925092565b600060208284031215610aeb57610aea6107c3565b5b600082013567ffffffffffffffff811115610b0957610b086107c8565b5b610b15848285016108e5565b91505092915050565b600060208284031215610b3457610b336107c3565b5b6000610b4284828501610a51565b91505092915050565b600081519050919050565b600081905092915050565b60005b83811015610b7f578082015181840152602081019050610b64565b60008484015250505050565b6000610b9682610b4b565b610ba08185610b56565b9350610bb0818560208601610b61565b80840191505092915050565b6000610bc88284610b8b565b915081905092915050565b610bdc81610913565b82525050565b600082825260208201905092915050565b6000610bfe82610b4b565b610c088185610be2565b9350610c18818560208601610b61565b610c21816107d7565b840191505092915050565b6000606082019050610c416000830186610bd3565b8181036020830152610c538185610bf3565b9050610c626040830184610bd3565b949350505050565b610c7381610a04565b82525050565b6000608082019050610c8e6000830187610c6a565b610c9b6020830186610bd3565b610ca86040830185610c6a565b610cb56060830184610c6a565b95945050505050565b600061ffff82169050919050565b6000819050919050565b6000610cf1610cec610ce784610cbe565b610ccc565b610a04565b9050919050565b610d0181610cd6565b82525050565b6000608082019050610d1c6000830187610bd3565b610d296020830186610cf8565b610d366040830185610c6a565b610d4360608301846109da565b95945050505050565b6000604082019050610d616000830185610bd3565b8181036020830152610d738184610bf3565b90509392505050565b600081519050919050565b600082825260208201905092915050565b6000819050602082019050919050565b610db181610a04565b82525050565b6000610dc38383610da8565b60208301905092915050565b6000602082019050919050565b6000610de782610d7c565b610df18185610d87565b9350610dfc83610d98565b8060005b83811015610e2d578151610e148882610db7565b9750610e1f83610dcf565b925050600181019050610e00565b5085935050505092915050565b60006060820190508181036000830152610e548186610ddc565b9050610e636020830185610c6a565b610e7060408301846109da565b949350505050565b6000608082019050610e8d6000830187610bd3565b610e9a6020830186610c6a565b610ea76040830185610c6a565b610eb460608301846109da565b95945050505050565b7f4f776e61626c653a206e6577206f776e657220697320746865207a65726f206160008201527f6464726573730000000000000000000000000000000000000000000000000000602082015250565b6000610f19602683610be2565b9150610f2482610ebd565b604082019050919050565b60006020820190508181036000830152610f4881610f0c565b9050919050565b7f4f776e61626c653a2063616c6c6572206973206e6f7420746865206f776e6572600082015250565b6000610f85602083610be2565b9150610f9082610f4f565b602082019050919050565b60006020820190508181036000830152610fb481610f78565b9050919050565b7f4e487b7100000000000000000000000000000000000000000000000000000000600052601160045260246000fd5b6000610ff582610a04565b915061100083610a04565b925082820190508082111561101857611017610fbb565b5b9291505056fea2646970667358221220dc667ebe814c96d990e937bd017815c8a962558d72732eb573270cefcede29de64736f6c63430008110033",
  "immutableReferences": {},
  "source": "// SPDX-License-Identifier: MIT\npragma solidity >=0.4.22 <0.9.0;\n\nimport \"../../node_modules/@openzeppelin/contracts/access/Ownable.sol\";\nimport \"../interfaces/IHopRouter.sol\";\nimport \"../interfaces/IIntegration.sol\";\n\ncontract HopRouter is IIntegration, Ownable {\n\n    uint8 projectId;\n    address private addr;\n    uint256 private hopChainId;\n    uint8 private hopTokenIndex;\n    IHopRouter private router;\n\n    mapping(string => uint8) private tokenId;\n    \n    constructor(address _addr, uint8 _projectId, uint16 _chainId, uint8 _hopTokenIndex) {\n        addr = _addr;\n        projectId = _projectId;\n        hopChainId = _chainId;\n        hopTokenIndex = _hopTokenIndex;\n    }\n\n    function addTokenPool(string memory token, uint8 id) public onlyOwner {\n        tokenId[token] = id;\n        emit PoolAdded(projectId, token, id);\n    }\n\n    function removeTokenPool(string memory token) public onlyOwner {\n        delete tokenId[token];\n        emit PoolRemoved(projectId, token);\n    }\n\n    function addLiquidity(\n        string memory _token,\n        uint256 _amountLD,\n        address _to\n    ) external {\n        router = IHopRouter(addr);\n        uint _poolId = tokenId[_token];\n        router.addLiquidity(new uint256[](_amountLD), _amountLD, _to);\n        emit PoolAddLiquidityEvent(projectId, _poolId, _amountLD, _to);\n    }\n\n    function removeLiquidity(\n        string memory token,\n        uint256 _amountLP,\n        address _to\n    ) external {\n        router = IHopRouter(addr);\n        uint16 _srcPoolId = tokenId[token];\n        router.removeLiquidityOneToken(_amountLP, hopTokenIndex, _amountLP, getDeadline(0x500000));\n        emit PoolRemoveLiquidity(projectId, _srcPoolId, _amountLP, _to);\n    }\n\n    function getDeadline(uint256 _timeBuffer) internal view returns (uint256 timestamp) {\n        return block.timestamp + _timeBuffer;\n    }\n}\n",
  "sourcePath": "/Users/irasigman/code/agoras/bandit-protocol/contracts/integrations/HopRouter.sol",
  "compiler": {
    "name": "solc",
    "version": "0.8.17+commit.8df45f5f.Emscripten.clang"
  },
  "schemaVersion": "3.4.10",
  "updatedAt": "2022-12-31T15:19:57.135Z",
  "networkType": "ethereum",
  "devdoc": {
    "kind": "dev",
    "methods": {
      "owner()": {
        "details": "Returns the address of the current owner."
      },
      "renounceOwnership()": {
        "details": "Leaves the contract without owner. It will not be possible to call `onlyOwner` functions anymore. Can only be called by the current owner. NOTE: Renouncing ownership will leave the contract without an owner, thereby removing any functionality that is only available to the owner."
      },
      "transferOwnership(address)": {
        "details": "Transfers ownership of the contract to a new account (`newOwner`). Can only be called by the current owner."
      }
    },
    "version": 1
  },
  "userdoc": {
    "kind": "user",
    "methods": {},
    "version": 1
  }
}