{
  "contractName": "StargateRouter",
  "abi": [
    {
      "inputs": [
        {
          "internalType": "address",
          "name": "_addr",
          "type": "address"
        },
        {
          "internalType": "uint8",
          "name": "_projectId",
          "type": "uint8"
        },
        {
          "internalType": "uint16",
          "name": "_chainId",
          "type": "uint16"
        }
      ],
      "stateMutability": "nonpayable",
      "type": "constructor"
    },
    {
      "anonymous": false,
      "inputs": [
        {
          "indexed": true,
          "internalType": "address",
          "name": "previousOwner",
          "type": "address"
        },
        {
          "indexed": true,
          "internalType": "address",
          "name": "newOwner",
          "type": "address"
        }
      ],
      "name": "OwnershipTransferred",
      "type": "event"
    },
    {
      "anonymous": false,
      "inputs": [
        {
          "indexed": false,
          "internalType": "uint8",
          "name": "projectId",
          "type": "uint8"
        },
        {
          "indexed": false,
          "internalType": "uint256",
          "name": "_poolId",
          "type": "uint256"
        },
        {
          "indexed": false,
          "internalType": "uint256",
          "name": "_amountLD",
          "type": "uint256"
        },
        {
          "indexed": false,
          "internalType": "address",
          "name": "_to",
          "type": "address"
        }
      ],
      "name": "PoolAddLiquidityEvent",
      "type": "event"
    },
    {
      "anonymous": false,
      "inputs": [
        {
          "indexed": false,
          "internalType": "uint8",
          "name": "projectId",
          "type": "uint8"
        },
        {
          "indexed": false,
          "internalType": "string",
          "name": "token",
          "type": "string"
        },
        {
          "indexed": false,
          "internalType": "uint8",
          "name": "id",
          "type": "uint8"
        }
      ],
      "name": "PoolAdded",
      "type": "event"
    },
    {
      "anonymous": false,
      "inputs": [
        {
          "indexed": false,
          "internalType": "uint8",
          "name": "projectId",
          "type": "uint8"
        },
        {
          "indexed": false,
          "internalType": "uint256",
          "name": "_srcPoolId",
          "type": "uint256"
        },
        {
          "indexed": false,
          "internalType": "uint256",
          "name": "_amountLP",
          "type": "uint256"
        },
        {
          "indexed": false,
          "internalType": "address",
          "name": "_to",
          "type": "address"
        }
      ],
      "name": "PoolRemoveLiquidity",
      "type": "event"
    },
    {
      "anonymous": false,
      "inputs": [
        {
          "indexed": false,
          "internalType": "uint8",
          "name": "projectId",
          "type": "uint8"
        },
        {
          "indexed": false,
          "internalType": "string",
          "name": "token",
          "type": "string"
        }
      ],
      "name": "PoolRemoved",
      "type": "event"
    },
    {
      "inputs": [],
      "name": "owner",
      "outputs": [
        {
          "internalType": "address",
          "name": "",
          "type": "address"
        }
      ],
      "stateMutability": "view",
      "type": "function",
      "constant": true
    },
    {
      "inputs": [],
      "name": "renounceOwnership",
      "outputs": [],
      "stateMutability": "nonpayable",
      "type": "function"
    },
    {
      "inputs": [
        {
          "internalType": "address",
          "name": "newOwner",
          "type": "address"
        }
      ],
      "name": "transferOwnership",
      "outputs": [],
      "stateMutability": "nonpayable",
      "type": "function"
    },
    {
      "inputs": [
        {
          "internalType": "string",
          "name": "token",
          "type": "string"
        },
        {
          "internalType": "uint8",
          "name": "id",
          "type": "uint8"
        }
      ],
      "name": "addTokenPool",
      "outputs": [],
      "stateMutability": "nonpayable",
      "type": "function"
    },
    {
      "inputs": [
        {
          "internalType": "string",
          "name": "token",
          "type": "string"
        }
      ],
      "name": "removeTokenPool",
      "outputs": [],
      "stateMutability": "nonpayable",
      "type": "function"
    },
    {
      "inputs": [
        {
          "internalType": "string",
          "name": "token",
          "type": "string"
        }
      ],
      "name": "getTokenPool",
      "outputs": [
        {
          "internalType": "uint8",
          "name": "_tokenId",
          "type": "uint8"
        }
      ],
      "stateMutability": "view",
      "type": "function",
      "constant": true
    },
    {
      "inputs": [
        {
          "internalType": "string",
          "name": "_token",
          "type": "string"
        },
        {
          "internalType": "uint256",
          "name": "_amountLD",
          "type": "uint256"
        },
        {
          "internalType": "address",
          "name": "_to",
          "type": "address"
        }
      ],
      "name": "addLiquidity",
      "outputs": [],
      "stateMutability": "nonpayable",
      "type": "function"
    },
    {
      "inputs": [
        {
          "internalType": "string",
          "name": "token",
          "type": "string"
        },
        {
          "internalType": "uint256",
          "name": "_amountLP",
          "type": "uint256"
        },
        {
          "internalType": "address",
          "name": "_to",
          "type": "address"
        }
      ],
      "name": "removeLiquidity",
      "outputs": [],
      "stateMutability": "nonpayable",
      "type": "function"
    }
  ],
  "bytecode": "0x60806040523480156200001157600080fd5b50604051620012793803806200127983398181016040528101906200003791906200027a565b620000576200004b620000c760201b60201c565b620000cf60201b60201c565b82600160006101000a81548173ffffffffffffffffffffffffffffffffffffffff021916908373ffffffffffffffffffffffffffffffffffffffff16021790555081600060146101000a81548160ff021916908360ff1602179055508061ffff16600281905550505050620002d6565b600033905090565b60008060009054906101000a900473ffffffffffffffffffffffffffffffffffffffff169050816000806101000a81548173ffffffffffffffffffffffffffffffffffffffff021916908373ffffffffffffffffffffffffffffffffffffffff1602179055508173ffffffffffffffffffffffffffffffffffffffff168173ffffffffffffffffffffffffffffffffffffffff167f8be0079c531659141344cd1fd0a4f28419497f9722a3daafe3b4186f6b6457e060405160405180910390a35050565b600080fd5b600073ffffffffffffffffffffffffffffffffffffffff82169050919050565b6000620001c58262000198565b9050919050565b620001d781620001b8565b8114620001e357600080fd5b50565b600081519050620001f781620001cc565b92915050565b600060ff82169050919050565b6200021581620001fd565b81146200022157600080fd5b50565b60008151905062000235816200020a565b92915050565b600061ffff82169050919050565b62000254816200023b565b81146200026057600080fd5b50565b600081519050620002748162000249565b92915050565b60008060006060848603121562000296576200029562000193565b5b6000620002a686828701620001e6565b9350506020620002b98682870162000224565b9250506040620002cc8682870162000263565b9150509250925092565b610f9380620002e66000396000f3fe608060405234801561001057600080fd5b50600436106100885760003560e01c8063a7082de51161005b578063a7082de514610101578063e3275d561461011d578063e502021f14610139578063f2fde38b1461015557610088565b8063473953be1461008d57806350f094e4146100bd578063715018a6146100d95780638da5cb5b146100e3575b600080fd5b6100a760048036038101906100a2919061091c565b610171565b6040516100b49190610981565b60405180910390f35b6100d760048036038101906100d291906109c8565b6101a6565b005b6100e1610233565b005b6100eb610247565b6040516100f89190610a65565b60405180910390f35b61011b60048036038101906101169190610ae2565b610270565b005b6101376004803603810190610132919061091c565b6103fb565b005b610153600480360381019061014e9190610ae2565b61047c565b005b61016f600480360381019061016a9190610b51565b6105f5565b005b60006004826040516101839190610bef565b908152602001604051809103902060009054906101000a900460ff169050919050565b6101ae610678565b806004836040516101bf9190610bef565b908152602001604051809103902060006101000a81548160ff021916908360ff1602179055507f4890af0366188cf41fbde6fd71fd65ee373eadb3a7bdaf08c8e33327fe92f6b5600060149054906101000a900460ff16838360405161022793929190610c50565b60405180910390a15050565b61023b610678565b61024560006106f6565b565b60008060009054906101000a900473ffffffffffffffffffffffffffffffffffffffff16905090565b600160009054906101000a900473ffffffffffffffffffffffffffffffffffffffff16600360006101000a81548173ffffffffffffffffffffffffffffffffffffffff021916908373ffffffffffffffffffffffffffffffffffffffff16021790555060006004846040516102e59190610bef565b908152602001604051809103902060009054906101000a900460ff1660ff169050600360009054906101000a900473ffffffffffffffffffffffffffffffffffffffff1673ffffffffffffffffffffffffffffffffffffffff1663c4de93a58285856040518463ffffffff1660e01b815260040161036593929190610cba565b6020604051808303816000875af1158015610384573d6000803e3d6000fd5b505050506040513d601f19601f820116820180604052508101906103a89190610d06565b507ffef8e61dd74c7aa672773153432114aa4c0a27897a80c715a986fd64ee621741600060149054906101000a900460ff168285856040516103ed9493929190610d6e565b60405180910390a150505050565b610403610678565b6004816040516104139190610bef565b908152602001604051809103902060006101000a81549060ff02191690557fc711764bcf4589611b7bb6ddf25104d01fd1f72de959471f8a15786f4fb3df95600060149054906101000a900460ff1682604051610471929190610db3565b60405180910390a150565b600160009054906101000a900473ffffffffffffffffffffffffffffffffffffffff16600360006101000a81548173ffffffffffffffffffffffffffffffffffffffff021916908373ffffffffffffffffffffffffffffffffffffffff16021790555060006004846040516104f19190610bef565b908152602001604051809103902060009054906101000a900460ff1660ff169050600360009054906101000a900473ffffffffffffffffffffffffffffffffffffffff1673ffffffffffffffffffffffffffffffffffffffff166387b21efc8285856040518463ffffffff1660e01b815260040161057193929190610de3565b600060405180830381600087803b15801561058b57600080fd5b505af115801561059f573d6000803e3d6000fd5b505050507fa352002d708e7faff3eeef3b4475b6517105f279068f9a2a637a96822e5ced59600060149054906101000a900460ff168285856040516105e79493929190610e1a565b60405180910390a150505050565b6105fd610678565b600073ffffffffffffffffffffffffffffffffffffffff168173ffffffffffffffffffffffffffffffffffffffff160361066c576040517f08c379a000000000000000000000000000000000000000000000000000000000815260040161066390610ed1565b60405180910390fd5b610675816106f6565b50565b6106806107ba565b73ffffffffffffffffffffffffffffffffffffffff1661069e610247565b73ffffffffffffffffffffffffffffffffffffffff16146106f4576040517f08c379a00000000000000000000000000000000000000000000000000000000081526004016106eb90610f3d565b60405180910390fd5b565b60008060009054906101000a900473ffffffffffffffffffffffffffffffffffffffff169050816000806101000a81548173ffffffffffffffffffffffffffffffffffffffff021916908373ffffffffffffffffffffffffffffffffffffffff1602179055508173ffffffffffffffffffffffffffffffffffffffff168173ffffffffffffffffffffffffffffffffffffffff167f8be0079c531659141344cd1fd0a4f28419497f9722a3daafe3b4186f6b6457e060405160405180910390a35050565b600033905090565b6000604051905090565b600080fd5b600080fd5b600080fd5b600080fd5b6000601f19601f8301169050919050565b7f4e487b7100000000000000000000000000000000000000000000000000000000600052604160045260246000fd5b610829826107e0565b810181811067ffffffffffffffff82111715610848576108476107f1565b5b80604052505050565b600061085b6107c2565b90506108678282610820565b919050565b600067ffffffffffffffff821115610887576108866107f1565b5b610890826107e0565b9050602081019050919050565b82818337600083830152505050565b60006108bf6108ba8461086c565b610851565b9050828152602081018484840111156108db576108da6107db565b5b6108e684828561089d565b509392505050565b600082601f830112610903576109026107d6565b5b81356109138482602086016108ac565b91505092915050565b600060208284031215610932576109316107cc565b5b600082013567ffffffffffffffff8111156109505761094f6107d1565b5b61095c848285016108ee565b91505092915050565b600060ff82169050919050565b61097b81610965565b82525050565b60006020820190506109966000830184610972565b92915050565b6109a581610965565b81146109b057600080fd5b50565b6000813590506109c28161099c565b92915050565b600080604083850312156109df576109de6107cc565b5b600083013567ffffffffffffffff8111156109fd576109fc6107d1565b5b610a09858286016108ee565b9250506020610a1a858286016109b3565b9150509250929050565b600073ffffffffffffffffffffffffffffffffffffffff82169050919050565b6000610a4f82610a24565b9050919050565b610a5f81610a44565b82525050565b6000602082019050610a7a6000830184610a56565b92915050565b6000819050919050565b610a9381610a80565b8114610a9e57600080fd5b50565b600081359050610ab081610a8a565b92915050565b610abf81610a44565b8114610aca57600080fd5b50565b600081359050610adc81610ab6565b92915050565b600080600060608486031215610afb57610afa6107cc565b5b600084013567ffffffffffffffff811115610b1957610b186107d1565b5b610b25868287016108ee565b9350506020610b3686828701610aa1565b9250506040610b4786828701610acd565b9150509250925092565b600060208284031215610b6757610b666107cc565b5b6000610b7584828501610acd565b91505092915050565b600081519050919050565b600081905092915050565b60005b83811015610bb2578082015181840152602081019050610b97565b60008484015250505050565b6000610bc982610b7e565b610bd38185610b89565b9350610be3818560208601610b94565b80840191505092915050565b6000610bfb8284610bbe565b915081905092915050565b600082825260208201905092915050565b6000610c2282610b7e565b610c2c8185610c06565b9350610c3c818560208601610b94565b610c45816107e0565b840191505092915050565b6000606082019050610c656000830186610972565b8181036020830152610c778185610c17565b9050610c866040830184610972565b949350505050565b600061ffff82169050919050565b610ca581610c8e565b82525050565b610cb481610a80565b82525050565b6000606082019050610ccf6000830186610c9c565b610cdc6020830185610cab565b610ce96040830184610a56565b949350505050565b600081519050610d0081610a8a565b92915050565b600060208284031215610d1c57610d1b6107cc565b5b6000610d2a84828501610cf1565b91505092915050565b6000819050919050565b6000610d58610d53610d4e84610c8e565b610d33565b610a80565b9050919050565b610d6881610d3d565b82525050565b6000608082019050610d836000830187610972565b610d906020830186610d5f565b610d9d6040830185610cab565b610daa6060830184610a56565b95945050505050565b6000604082019050610dc86000830185610972565b8181036020830152610dda8184610c17565b90509392505050565b6000606082019050610df86000830186610cab565b610e056020830185610cab565b610e126040830184610a56565b949350505050565b6000608082019050610e2f6000830187610972565b610e3c6020830186610cab565b610e496040830185610cab565b610e566060830184610a56565b95945050505050565b7f4f776e61626c653a206e6577206f776e657220697320746865207a65726f206160008201527f6464726573730000000000000000000000000000000000000000000000000000602082015250565b6000610ebb602683610c06565b9150610ec682610e5f565b604082019050919050565b60006020820190508181036000830152610eea81610eae565b9050919050565b7f4f776e61626c653a2063616c6c6572206973206e6f7420746865206f776e6572600082015250565b6000610f27602083610c06565b9150610f3282610ef1565b602082019050919050565b60006020820190508181036000830152610f5681610f1a565b905091905056fea2646970667358221220007a41c60f49411bc6e0d130e9700eac7743c9327929901524553ebc6913b2a264736f6c63430008110033",
  "immutableReferences": {},
  "source": "// SPDX-License-Identifier: MIT\npragma solidity >=0.4.22 <0.9.0;\n\nimport \"../../node_modules/@openzeppelin/contracts/access/Ownable.sol\";\nimport \"../interfaces/IStargateRouter.sol\";\nimport \"../interfaces/IIntegration.sol\";\n\ncontract StargateRouter is IIntegration, Ownable {\n\n    uint8 projectId;                    // protocol project identifier\n    address private addr;               // router contract address\n    uint256 private stgChainId;         // STG chain identifier\n    IStargateRouter private router;     // STG router interface\n\n    mapping(string => uint8) private tokenId;\n    \n    constructor(address _addr, uint8 _projectId, uint16 _chainId) {\n        addr = _addr;\n        projectId = _projectId;\n        stgChainId = _chainId;\n    }\n\n    function addTokenPool(string memory token, uint8 id) public onlyOwner {\n        tokenId[token] = id;\n        emit PoolAdded(projectId, token, id);\n    }\n\n    function removeTokenPool(string memory token) public onlyOwner {\n        delete tokenId[token];\n        emit PoolRemoved(projectId, token);\n    }\n\n    function getTokenPool(string memory token) public view returns (uint8 _tokenId) {\n        return tokenId[token];\n    }\n\n    function addLiquidity(\n        string memory _token,\n        uint256 _amountLD,\n        address _to\n    ) external {\n        router = IStargateRouter(addr);\n        uint _poolId = tokenId[_token];\n        router.addLiquidity(_poolId, _amountLD, _to);\n        emit PoolAddLiquidityEvent(projectId, _poolId, _amountLD, _to);\n    }\n\n    function removeLiquidity(\n        string memory token,\n        uint256 _amountLP,\n        address _to\n    ) external {\n        router = IStargateRouter(addr);\n        uint16 _srcPoolId = tokenId[token];\n        router.instantRedeemLocal(_srcPoolId, _amountLP, _to);\n        emit PoolRemoveLiquidity(projectId, _srcPoolId, _amountLP, _to);\n    }\n\n}\n",
  "sourcePath": "/Users/irasigman/code/agoras/bandit-protocol/contracts/integrations/StargateRouter.sol",
  "compiler": {
    "name": "solc",
    "version": "0.8.17+commit.8df45f5f.Emscripten.clang"
  },
  "schemaVersion": "3.4.10",
  "updatedAt": "2023-01-08T20:12:00.900Z",
  "networkType": "ethereum",
  "devdoc": {
    "kind": "dev",
    "methods": {
      "owner()": {
        "details": "Returns the address of the current owner."
      },
      "renounceOwnership()": {
        "details": "Leaves the contract without owner. It will not be possible to call `onlyOwner` functions anymore. Can only be called by the current owner. NOTE: Renouncing ownership will leave the contract without an owner, thereby removing any functionality that is only available to the owner."
      },
      "transferOwnership(address)": {
        "details": "Transfers ownership of the contract to a new account (`newOwner`). Can only be called by the current owner."
      }
    },
    "version": 1
  },
  "userdoc": {
    "kind": "user",
    "methods": {},
    "version": 1
  }
}