{
  "contractName": "StargateRouter",
  "abi": [
    {
      "inputs": [
        {
          "internalType": "address",
          "name": "_addr",
          "type": "address"
        },
        {
          "internalType": "uint8",
          "name": "_projectId",
          "type": "uint8"
        },
        {
          "internalType": "uint16",
          "name": "_chainId",
          "type": "uint16"
        }
      ],
      "stateMutability": "nonpayable",
      "type": "constructor"
    },
    {
      "anonymous": false,
      "inputs": [
        {
          "indexed": true,
          "internalType": "address",
          "name": "previousOwner",
          "type": "address"
        },
        {
          "indexed": true,
          "internalType": "address",
          "name": "newOwner",
          "type": "address"
        }
      ],
      "name": "OwnershipTransferred",
      "type": "event"
    },
    {
      "anonymous": false,
      "inputs": [
        {
          "indexed": false,
          "internalType": "uint8",
          "name": "projectId",
          "type": "uint8"
        },
        {
          "indexed": false,
          "internalType": "uint256",
          "name": "_poolId",
          "type": "uint256"
        },
        {
          "indexed": false,
          "internalType": "uint256",
          "name": "_amountLD",
          "type": "uint256"
        },
        {
          "indexed": false,
          "internalType": "address",
          "name": "_to",
          "type": "address"
        }
      ],
      "name": "PoolAddLiquidityEvent",
      "type": "event"
    },
    {
      "anonymous": false,
      "inputs": [
        {
          "indexed": false,
          "internalType": "uint8",
          "name": "projectId",
          "type": "uint8"
        },
        {
          "indexed": false,
          "internalType": "string",
          "name": "token",
          "type": "string"
        },
        {
          "indexed": false,
          "internalType": "uint8",
          "name": "id",
          "type": "uint8"
        }
      ],
      "name": "PoolAdded",
      "type": "event"
    },
    {
      "anonymous": false,
      "inputs": [
        {
          "indexed": false,
          "internalType": "uint8",
          "name": "projectId",
          "type": "uint8"
        },
        {
          "indexed": false,
          "internalType": "uint256",
          "name": "_srcPoolId",
          "type": "uint256"
        },
        {
          "indexed": false,
          "internalType": "uint256",
          "name": "_amountLP",
          "type": "uint256"
        },
        {
          "indexed": false,
          "internalType": "address",
          "name": "_to",
          "type": "address"
        }
      ],
      "name": "PoolRemoveLiquidity",
      "type": "event"
    },
    {
      "anonymous": false,
      "inputs": [
        {
          "indexed": false,
          "internalType": "uint8",
          "name": "projectId",
          "type": "uint8"
        },
        {
          "indexed": false,
          "internalType": "string",
          "name": "token",
          "type": "string"
        }
      ],
      "name": "PoolRemoved",
      "type": "event"
    },
    {
      "inputs": [],
      "name": "owner",
      "outputs": [
        {
          "internalType": "address",
          "name": "",
          "type": "address"
        }
      ],
      "stateMutability": "view",
      "type": "function",
      "constant": true
    },
    {
      "inputs": [],
      "name": "renounceOwnership",
      "outputs": [],
      "stateMutability": "nonpayable",
      "type": "function"
    },
    {
      "inputs": [
        {
          "internalType": "address",
          "name": "newOwner",
          "type": "address"
        }
      ],
      "name": "transferOwnership",
      "outputs": [],
      "stateMutability": "nonpayable",
      "type": "function"
    },
    {
      "inputs": [
        {
          "internalType": "address",
          "name": "_poolAddress",
          "type": "address"
        }
      ],
      "name": "getBalance",
      "outputs": [
        {
          "internalType": "uint256",
          "name": "balance",
          "type": "uint256"
        }
      ],
      "stateMutability": "view",
      "type": "function",
      "constant": true
    },
    {
      "inputs": [
        {
          "internalType": "string",
          "name": "token",
          "type": "string"
        },
        {
          "internalType": "uint8",
          "name": "id",
          "type": "uint8"
        }
      ],
      "name": "addTokenPool",
      "outputs": [],
      "stateMutability": "nonpayable",
      "type": "function"
    },
    {
      "inputs": [
        {
          "internalType": "string",
          "name": "token",
          "type": "string"
        }
      ],
      "name": "removeTokenPool",
      "outputs": [],
      "stateMutability": "nonpayable",
      "type": "function"
    },
    {
      "inputs": [
        {
          "internalType": "string",
          "name": "token",
          "type": "string"
        }
      ],
      "name": "getTokenPool",
      "outputs": [
        {
          "internalType": "uint8",
          "name": "_tokenId",
          "type": "uint8"
        }
      ],
      "stateMutability": "view",
      "type": "function",
      "constant": true
    },
    {
      "inputs": [
        {
          "internalType": "string",
          "name": "_token",
          "type": "string"
        },
        {
          "internalType": "uint256",
          "name": "_amountLD",
          "type": "uint256"
        },
        {
          "internalType": "address",
          "name": "_to",
          "type": "address"
        }
      ],
      "name": "addLiquidity",
      "outputs": [],
      "stateMutability": "nonpayable",
      "type": "function"
    },
    {
      "inputs": [
        {
          "internalType": "string",
          "name": "token",
          "type": "string"
        },
        {
          "internalType": "uint256",
          "name": "_amountLP",
          "type": "uint256"
        },
        {
          "internalType": "address",
          "name": "_to",
          "type": "address"
        }
      ],
      "name": "removeLiquidity",
      "outputs": [],
      "stateMutability": "nonpayable",
      "type": "function"
    }
  ],
  "bytecode": "0x60806040523480156200001157600080fd5b50604051620013523803806200135283398181016040528101906200003791906200027a565b620000576200004b620000c760201b60201c565b620000cf60201b60201c565b82600160006101000a81548173ffffffffffffffffffffffffffffffffffffffff021916908373ffffffffffffffffffffffffffffffffffffffff16021790555081600060146101000a81548160ff021916908360ff1602179055508061ffff16600281905550505050620002d6565b600033905090565b60008060009054906101000a900473ffffffffffffffffffffffffffffffffffffffff169050816000806101000a81548173ffffffffffffffffffffffffffffffffffffffff021916908373ffffffffffffffffffffffffffffffffffffffff1602179055508173ffffffffffffffffffffffffffffffffffffffff168173ffffffffffffffffffffffffffffffffffffffff167f8be0079c531659141344cd1fd0a4f28419497f9722a3daafe3b4186f6b6457e060405160405180910390a35050565b600080fd5b600073ffffffffffffffffffffffffffffffffffffffff82169050919050565b6000620001c58262000198565b9050919050565b620001d781620001b8565b8114620001e357600080fd5b50565b600081519050620001f781620001cc565b92915050565b600060ff82169050919050565b6200021581620001fd565b81146200022157600080fd5b50565b60008151905062000235816200020a565b92915050565b600061ffff82169050919050565b62000254816200023b565b81146200026057600080fd5b50565b600081519050620002748162000249565b92915050565b60008060006060848603121562000296576200029562000193565b5b6000620002a686828701620001e6565b9350506020620002b98682870162000224565b9250506040620002cc8682870162000263565b9150509250925092565b61106c80620002e66000396000f3fe608060405234801561001057600080fd5b50600436106100935760003560e01c8063a7082de511610066578063a7082de51461010c578063e3275d5614610128578063e502021f14610144578063f2fde38b14610160578063f8b2cb4f1461017c57610093565b8063473953be1461009857806350f094e4146100c8578063715018a6146100e45780638da5cb5b146100ee575b600080fd5b6100b260048036038101906100ad91906109da565b6101ac565b6040516100bf9190610a3f565b60405180910390f35b6100e260048036038101906100dd9190610a86565b6101e1565b005b6100ec61026e565b005b6100f6610282565b6040516101039190610b23565b60405180910390f35b61012660048036038101906101219190610ba0565b6102ab565b005b610142600480360381019061013d91906109da565b610436565b005b61015e60048036038101906101599190610ba0565b6104b7565b005b61017a60048036038101906101759190610c0f565b610630565b005b61019660048036038101906101919190610c0f565b6106b3565b6040516101a39190610c4b565b60405180910390f35b60006004826040516101be9190610cd7565b908152602001604051809103902060009054906101000a900460ff169050919050565b6101e9610736565b806004836040516101fa9190610cd7565b908152602001604051809103902060006101000a81548160ff021916908360ff1602179055507f4890af0366188cf41fbde6fd71fd65ee373eadb3a7bdaf08c8e33327fe92f6b5600060149054906101000a900460ff16838360405161026293929190610d38565b60405180910390a15050565b610276610736565b61028060006107b4565b565b60008060009054906101000a900473ffffffffffffffffffffffffffffffffffffffff16905090565b600160009054906101000a900473ffffffffffffffffffffffffffffffffffffffff16600360006101000a81548173ffffffffffffffffffffffffffffffffffffffff021916908373ffffffffffffffffffffffffffffffffffffffff16021790555060006004846040516103209190610cd7565b908152602001604051809103902060009054906101000a900460ff1660ff169050600360009054906101000a900473ffffffffffffffffffffffffffffffffffffffff1673ffffffffffffffffffffffffffffffffffffffff1663c4de93a58285856040518463ffffffff1660e01b81526004016103a093929190610d93565b6020604051808303816000875af11580156103bf573d6000803e3d6000fd5b505050506040513d601f19601f820116820180604052508101906103e39190610ddf565b507ffef8e61dd74c7aa672773153432114aa4c0a27897a80c715a986fd64ee621741600060149054906101000a900460ff168285856040516104289493929190610e47565b60405180910390a150505050565b61043e610736565b60048160405161044e9190610cd7565b908152602001604051809103902060006101000a81549060ff02191690557fc711764bcf4589611b7bb6ddf25104d01fd1f72de959471f8a15786f4fb3df95600060149054906101000a900460ff16826040516104ac929190610e8c565b60405180910390a150565b600160009054906101000a900473ffffffffffffffffffffffffffffffffffffffff16600360006101000a81548173ffffffffffffffffffffffffffffffffffffffff021916908373ffffffffffffffffffffffffffffffffffffffff160217905550600060048460405161052c9190610cd7565b908152602001604051809103902060009054906101000a900460ff1660ff169050600360009054906101000a900473ffffffffffffffffffffffffffffffffffffffff1673ffffffffffffffffffffffffffffffffffffffff166387b21efc8285856040518463ffffffff1660e01b81526004016105ac93929190610ebc565b600060405180830381600087803b1580156105c657600080fd5b505af11580156105da573d6000803e3d6000fd5b505050507fa352002d708e7faff3eeef3b4475b6517105f279068f9a2a637a96822e5ced59600060149054906101000a900460ff168285856040516106229493929190610ef3565b60405180910390a150505050565b610638610736565b600073ffffffffffffffffffffffffffffffffffffffff168173ffffffffffffffffffffffffffffffffffffffff16036106a7576040517f08c379a000000000000000000000000000000000000000000000000000000000815260040161069e90610faa565b60405180910390fd5b6106b0816107b4565b50565b60008173ffffffffffffffffffffffffffffffffffffffff166370a08231306040518263ffffffff1660e01b81526004016106ee9190610b23565b602060405180830381865afa15801561070b573d6000803e3d6000fd5b505050506040513d601f19601f8201168201806040525081019061072f9190610ddf565b9050919050565b61073e610878565b73ffffffffffffffffffffffffffffffffffffffff1661075c610282565b73ffffffffffffffffffffffffffffffffffffffff16146107b2576040517f08c379a00000000000000000000000000000000000000000000000000000000081526004016107a990611016565b60405180910390fd5b565b60008060009054906101000a900473ffffffffffffffffffffffffffffffffffffffff169050816000806101000a81548173ffffffffffffffffffffffffffffffffffffffff021916908373ffffffffffffffffffffffffffffffffffffffff1602179055508173ffffffffffffffffffffffffffffffffffffffff168173ffffffffffffffffffffffffffffffffffffffff167f8be0079c531659141344cd1fd0a4f28419497f9722a3daafe3b4186f6b6457e060405160405180910390a35050565b600033905090565b6000604051905090565b600080fd5b600080fd5b600080fd5b600080fd5b6000601f19601f8301169050919050565b7f4e487b7100000000000000000000000000000000000000000000000000000000600052604160045260246000fd5b6108e78261089e565b810181811067ffffffffffffffff82111715610906576109056108af565b5b80604052505050565b6000610919610880565b905061092582826108de565b919050565b600067ffffffffffffffff821115610945576109446108af565b5b61094e8261089e565b9050602081019050919050565b82818337600083830152505050565b600061097d6109788461092a565b61090f565b90508281526020810184848401111561099957610998610899565b5b6109a484828561095b565b509392505050565b600082601f8301126109c1576109c0610894565b5b81356109d184826020860161096a565b91505092915050565b6000602082840312156109f0576109ef61088a565b5b600082013567ffffffffffffffff811115610a0e57610a0d61088f565b5b610a1a848285016109ac565b91505092915050565b600060ff82169050919050565b610a3981610a23565b82525050565b6000602082019050610a546000830184610a30565b92915050565b610a6381610a23565b8114610a6e57600080fd5b50565b600081359050610a8081610a5a565b92915050565b60008060408385031215610a9d57610a9c61088a565b5b600083013567ffffffffffffffff811115610abb57610aba61088f565b5b610ac7858286016109ac565b9250506020610ad885828601610a71565b9150509250929050565b600073ffffffffffffffffffffffffffffffffffffffff82169050919050565b6000610b0d82610ae2565b9050919050565b610b1d81610b02565b82525050565b6000602082019050610b386000830184610b14565b92915050565b6000819050919050565b610b5181610b3e565b8114610b5c57600080fd5b50565b600081359050610b6e81610b48565b92915050565b610b7d81610b02565b8114610b8857600080fd5b50565b600081359050610b9a81610b74565b92915050565b600080600060608486031215610bb957610bb861088a565b5b600084013567ffffffffffffffff811115610bd757610bd661088f565b5b610be3868287016109ac565b9350506020610bf486828701610b5f565b9250506040610c0586828701610b8b565b9150509250925092565b600060208284031215610c2557610c2461088a565b5b6000610c3384828501610b8b565b91505092915050565b610c4581610b3e565b82525050565b6000602082019050610c606000830184610c3c565b92915050565b600081519050919050565b600081905092915050565b60005b83811015610c9a578082015181840152602081019050610c7f565b60008484015250505050565b6000610cb182610c66565b610cbb8185610c71565b9350610ccb818560208601610c7c565b80840191505092915050565b6000610ce38284610ca6565b915081905092915050565b600082825260208201905092915050565b6000610d0a82610c66565b610d148185610cee565b9350610d24818560208601610c7c565b610d2d8161089e565b840191505092915050565b6000606082019050610d4d6000830186610a30565b8181036020830152610d5f8185610cff565b9050610d6e6040830184610a30565b949350505050565b600061ffff82169050919050565b610d8d81610d76565b82525050565b6000606082019050610da86000830186610d84565b610db56020830185610c3c565b610dc26040830184610b14565b949350505050565b600081519050610dd981610b48565b92915050565b600060208284031215610df557610df461088a565b5b6000610e0384828501610dca565b91505092915050565b6000819050919050565b6000610e31610e2c610e2784610d76565b610e0c565b610b3e565b9050919050565b610e4181610e16565b82525050565b6000608082019050610e5c6000830187610a30565b610e696020830186610e38565b610e766040830185610c3c565b610e836060830184610b14565b95945050505050565b6000604082019050610ea16000830185610a30565b8181036020830152610eb38184610cff565b90509392505050565b6000606082019050610ed16000830186610c3c565b610ede6020830185610c3c565b610eeb6040830184610b14565b949350505050565b6000608082019050610f086000830187610a30565b610f156020830186610c3c565b610f226040830185610c3c565b610f2f6060830184610b14565b95945050505050565b7f4f776e61626c653a206e6577206f776e657220697320746865207a65726f206160008201527f6464726573730000000000000000000000000000000000000000000000000000602082015250565b6000610f94602683610cee565b9150610f9f82610f38565b604082019050919050565b60006020820190508181036000830152610fc381610f87565b9050919050565b7f4f776e61626c653a2063616c6c6572206973206e6f7420746865206f776e6572600082015250565b6000611000602083610cee565b915061100b82610fca565b602082019050919050565b6000602082019050818103600083015261102f81610ff3565b905091905056fea2646970667358221220a5c9e9457236edfc46eb15ae86c95b6a5299701f2c8becb0b6bb8e61892b57b064736f6c63430008110033",
  "immutableReferences": {},
  "source": "// SPDX-License-Identifier: MIT\npragma solidity >=0.4.22 <0.9.0;\n\nimport \"../../node_modules/@openzeppelin/contracts/access/Ownable.sol\";\nimport \"../../node_modules/@openzeppelin/contracts/token/ERC20/IERC20.sol\";\nimport \"../interfaces/IStargateRouter.sol\";\nimport \"../interfaces/IIntegration.sol\";\n\ncontract StargateRouter is IIntegration, Ownable {\n\n    uint8 projectId;                    // protocol project identifier\n    address private addr;               // router contract address\n    uint256 private stgChainId;         // STG chain identifier\n    IStargateRouter private router;     // STG router interface\n\n    mapping(string => uint8) private tokenId;\n    \n    constructor(address _addr, uint8 _projectId, uint16 _chainId) {\n        addr = _addr;\n        projectId = _projectId;\n        stgChainId = _chainId;\n    }\n\n    function getBalance(address _poolAddress) public view returns (uint256 balance) {\n        return IERC20(_poolAddress).balanceOf(address(this));\n    }\n\n    function addTokenPool(string memory token, uint8 id) public onlyOwner {\n        tokenId[token] = id;\n        emit PoolAdded(projectId, token, id);\n    }\n\n    function removeTokenPool(string memory token) public onlyOwner {\n        delete tokenId[token];\n        emit PoolRemoved(projectId, token);\n    }\n\n    function getTokenPool(string memory token) public view returns (uint8 _tokenId) {\n        return tokenId[token];\n    }\n\n    function addLiquidity(\n        string memory _token,\n        uint256 _amountLD,\n        address _to\n    ) external {\n        router = IStargateRouter(addr);\n        uint _poolId = tokenId[_token];\n        router.addLiquidity(_poolId, _amountLD, _to);\n        emit PoolAddLiquidityEvent(projectId, _poolId, _amountLD, _to);\n    }\n\n    function removeLiquidity(\n        string memory token,\n        uint256 _amountLP,\n        address _to\n    ) external {\n        router = IStargateRouter(addr);\n        uint16 _srcPoolId = tokenId[token];\n        router.instantRedeemLocal(_srcPoolId, _amountLP, _to);\n        emit PoolRemoveLiquidity(projectId, _srcPoolId, _amountLP, _to);\n    }\n\n}\n",
  "sourcePath": "/Users/irasigman/code/agoras/bandit-protocol/contracts/integrations/StargateRouter.sol",
  "compiler": {
    "name": "solc",
    "version": "0.8.17+commit.8df45f5f.Emscripten.clang"
  },
  "schemaVersion": "3.4.10",
  "updatedAt": "2023-01-22T01:49:28.321Z",
  "networkType": "ethereum",
  "devdoc": {
    "kind": "dev",
    "methods": {
      "owner()": {
        "details": "Returns the address of the current owner."
      },
      "renounceOwnership()": {
        "details": "Leaves the contract without owner. It will not be possible to call `onlyOwner` functions anymore. Can only be called by the current owner. NOTE: Renouncing ownership will leave the contract without an owner, thereby removing any functionality that is only available to the owner."
      },
      "transferOwnership(address)": {
        "details": "Transfers ownership of the contract to a new account (`newOwner`). Can only be called by the current owner."
      }
    },
    "version": 1
  },
  "userdoc": {
    "kind": "user",
    "methods": {},
    "version": 1
  }
}