{
  "contractName": "StargateRouter",
  "abi": [
    {
      "inputs": [
        {
          "internalType": "address",
          "name": "_addr",
          "type": "address"
        },
        {
          "internalType": "uint8",
          "name": "_projectId",
          "type": "uint8"
        },
        {
          "internalType": "uint16",
          "name": "_chainId",
          "type": "uint16"
        }
      ],
      "stateMutability": "nonpayable",
      "type": "constructor"
    },
    {
      "anonymous": false,
      "inputs": [
        {
          "indexed": true,
          "internalType": "address",
          "name": "previousOwner",
          "type": "address"
        },
        {
          "indexed": true,
          "internalType": "address",
          "name": "newOwner",
          "type": "address"
        }
      ],
      "name": "OwnershipTransferred",
      "type": "event"
    },
    {
      "anonymous": false,
      "inputs": [
        {
          "indexed": false,
          "internalType": "uint8",
          "name": "projectId",
          "type": "uint8"
        },
        {
          "indexed": false,
          "internalType": "uint256",
          "name": "_poolId",
          "type": "uint256"
        },
        {
          "indexed": false,
          "internalType": "uint256",
          "name": "_amountLD",
          "type": "uint256"
        },
        {
          "indexed": false,
          "internalType": "address",
          "name": "_to",
          "type": "address"
        }
      ],
      "name": "PoolAddLiquidityEvent",
      "type": "event"
    },
    {
      "anonymous": false,
      "inputs": [
        {
          "indexed": false,
          "internalType": "uint8",
          "name": "projectId",
          "type": "uint8"
        },
        {
          "indexed": false,
          "internalType": "string",
          "name": "token",
          "type": "string"
        },
        {
          "indexed": false,
          "internalType": "uint8",
          "name": "id",
          "type": "uint8"
        }
      ],
      "name": "PoolAdded",
      "type": "event"
    },
    {
      "anonymous": false,
      "inputs": [
        {
          "indexed": false,
          "internalType": "uint8",
          "name": "projectId",
          "type": "uint8"
        },
        {
          "indexed": false,
          "internalType": "uint256",
          "name": "_srcPoolId",
          "type": "uint256"
        },
        {
          "indexed": false,
          "internalType": "uint256",
          "name": "_amountLP",
          "type": "uint256"
        },
        {
          "indexed": false,
          "internalType": "address",
          "name": "_to",
          "type": "address"
        }
      ],
      "name": "PoolRemoveLiquidity",
      "type": "event"
    },
    {
      "anonymous": false,
      "inputs": [
        {
          "indexed": false,
          "internalType": "uint8",
          "name": "projectId",
          "type": "uint8"
        },
        {
          "indexed": false,
          "internalType": "string",
          "name": "token",
          "type": "string"
        }
      ],
      "name": "PoolRemoved",
      "type": "event"
    },
    {
      "inputs": [],
      "name": "owner",
      "outputs": [
        {
          "internalType": "address",
          "name": "",
          "type": "address"
        }
      ],
      "stateMutability": "view",
      "type": "function",
      "constant": true
    },
    {
      "inputs": [],
      "name": "renounceOwnership",
      "outputs": [],
      "stateMutability": "nonpayable",
      "type": "function"
    },
    {
      "inputs": [
        {
          "internalType": "address",
          "name": "newOwner",
          "type": "address"
        }
      ],
      "name": "transferOwnership",
      "outputs": [],
      "stateMutability": "nonpayable",
      "type": "function"
    },
    {
      "inputs": [
        {
          "internalType": "string",
          "name": "token",
          "type": "string"
        },
        {
          "internalType": "uint8",
          "name": "id",
          "type": "uint8"
        }
      ],
      "name": "addTokenPool",
      "outputs": [],
      "stateMutability": "nonpayable",
      "type": "function"
    },
    {
      "inputs": [
        {
          "internalType": "string",
          "name": "token",
          "type": "string"
        }
      ],
      "name": "removeTokenPool",
      "outputs": [],
      "stateMutability": "nonpayable",
      "type": "function"
    },
    {
      "inputs": [
        {
          "internalType": "string",
          "name": "_token",
          "type": "string"
        },
        {
          "internalType": "uint256",
          "name": "_amountLD",
          "type": "uint256"
        },
        {
          "internalType": "address",
          "name": "_to",
          "type": "address"
        }
      ],
      "name": "addLiquidity",
      "outputs": [],
      "stateMutability": "nonpayable",
      "type": "function"
    },
    {
      "inputs": [
        {
          "internalType": "string",
          "name": "token",
          "type": "string"
        },
        {
          "internalType": "uint256",
          "name": "_amountLP",
          "type": "uint256"
        },
        {
          "internalType": "address",
          "name": "_to",
          "type": "address"
        }
      ],
      "name": "removeLiquidity",
      "outputs": [],
      "stateMutability": "nonpayable",
      "type": "function"
    }
  ],
  "bytecode": "0x60806040523480156200001157600080fd5b50604051620011ee380380620011ee83398181016040528101906200003791906200027a565b620000576200004b620000c760201b60201c565b620000cf60201b60201c565b82600160006101000a81548173ffffffffffffffffffffffffffffffffffffffff021916908373ffffffffffffffffffffffffffffffffffffffff16021790555081600060146101000a81548160ff021916908360ff1602179055508061ffff16600281905550505050620002d6565b600033905090565b60008060009054906101000a900473ffffffffffffffffffffffffffffffffffffffff169050816000806101000a81548173ffffffffffffffffffffffffffffffffffffffff021916908373ffffffffffffffffffffffffffffffffffffffff1602179055508173ffffffffffffffffffffffffffffffffffffffff168173ffffffffffffffffffffffffffffffffffffffff167f8be0079c531659141344cd1fd0a4f28419497f9722a3daafe3b4186f6b6457e060405160405180910390a35050565b600080fd5b600073ffffffffffffffffffffffffffffffffffffffff82169050919050565b6000620001c58262000198565b9050919050565b620001d781620001b8565b8114620001e357600080fd5b50565b600081519050620001f781620001cc565b92915050565b600060ff82169050919050565b6200021581620001fd565b81146200022157600080fd5b50565b60008151905062000235816200020a565b92915050565b600061ffff82169050919050565b62000254816200023b565b81146200026057600080fd5b50565b600081519050620002748162000249565b92915050565b60008060006060848603121562000296576200029562000193565b5b6000620002a686828701620001e6565b9350506020620002b98682870162000224565b9250506040620002cc8682870162000263565b9150509250925092565b610f0880620002e66000396000f3fe608060405234801561001057600080fd5b506004361061007d5760003560e01c8063a7082de51161005b578063a7082de5146100c6578063e3275d56146100e2578063e502021f146100fe578063f2fde38b1461011a5761007d565b806350f094e414610082578063715018a61461009e5780638da5cb5b146100a8575b600080fd5b61009c600480360381019061009791906108e5565b610136565b005b6100a66101c3565b005b6100b06101d7565b6040516100bd9190610982565b60405180910390f35b6100e060048036038101906100db91906109ff565b610200565b005b6100fc60048036038101906100f79190610a6e565b61038b565b005b610118600480360381019061011391906109ff565b61040c565b005b610134600480360381019061012f9190610ab7565b610585565b005b61013e610608565b8060048360405161014f9190610b55565b908152602001604051809103902060006101000a81548160ff021916908360ff1602179055507f4890af0366188cf41fbde6fd71fd65ee373eadb3a7bdaf08c8e33327fe92f6b5600060149054906101000a900460ff1683836040516101b793929190610bc5565b60405180910390a15050565b6101cb610608565b6101d56000610686565b565b60008060009054906101000a900473ffffffffffffffffffffffffffffffffffffffff16905090565b600160009054906101000a900473ffffffffffffffffffffffffffffffffffffffff16600360006101000a81548173ffffffffffffffffffffffffffffffffffffffff021916908373ffffffffffffffffffffffffffffffffffffffff16021790555060006004846040516102759190610b55565b908152602001604051809103902060009054906101000a900460ff1660ff169050600360009054906101000a900473ffffffffffffffffffffffffffffffffffffffff1673ffffffffffffffffffffffffffffffffffffffff1663c4de93a58285856040518463ffffffff1660e01b81526004016102f593929190610c2f565b6020604051808303816000875af1158015610314573d6000803e3d6000fd5b505050506040513d601f19601f820116820180604052508101906103389190610c7b565b507ffef8e61dd74c7aa672773153432114aa4c0a27897a80c715a986fd64ee621741600060149054906101000a900460ff1682858560405161037d9493929190610ce3565b60405180910390a150505050565b610393610608565b6004816040516103a39190610b55565b908152602001604051809103902060006101000a81549060ff02191690557fc711764bcf4589611b7bb6ddf25104d01fd1f72de959471f8a15786f4fb3df95600060149054906101000a900460ff1682604051610401929190610d28565b60405180910390a150565b600160009054906101000a900473ffffffffffffffffffffffffffffffffffffffff16600360006101000a81548173ffffffffffffffffffffffffffffffffffffffff021916908373ffffffffffffffffffffffffffffffffffffffff16021790555060006004846040516104819190610b55565b908152602001604051809103902060009054906101000a900460ff1660ff169050600360009054906101000a900473ffffffffffffffffffffffffffffffffffffffff1673ffffffffffffffffffffffffffffffffffffffff166387b21efc8285856040518463ffffffff1660e01b815260040161050193929190610d58565b600060405180830381600087803b15801561051b57600080fd5b505af115801561052f573d6000803e3d6000fd5b505050507fa352002d708e7faff3eeef3b4475b6517105f279068f9a2a637a96822e5ced59600060149054906101000a900460ff168285856040516105779493929190610d8f565b60405180910390a150505050565b61058d610608565b600073ffffffffffffffffffffffffffffffffffffffff168173ffffffffffffffffffffffffffffffffffffffff16036105fc576040517f08c379a00000000000000000000000000000000000000000000000000000000081526004016105f390610e46565b60405180910390fd5b61060581610686565b50565b61061061074a565b73ffffffffffffffffffffffffffffffffffffffff1661062e6101d7565b73ffffffffffffffffffffffffffffffffffffffff1614610684576040517f08c379a000000000000000000000000000000000000000000000000000000000815260040161067b90610eb2565b60405180910390fd5b565b60008060009054906101000a900473ffffffffffffffffffffffffffffffffffffffff169050816000806101000a81548173ffffffffffffffffffffffffffffffffffffffff021916908373ffffffffffffffffffffffffffffffffffffffff1602179055508173ffffffffffffffffffffffffffffffffffffffff168173ffffffffffffffffffffffffffffffffffffffff167f8be0079c531659141344cd1fd0a4f28419497f9722a3daafe3b4186f6b6457e060405160405180910390a35050565b600033905090565b6000604051905090565b600080fd5b600080fd5b600080fd5b600080fd5b6000601f19601f8301169050919050565b7f4e487b7100000000000000000000000000000000000000000000000000000000600052604160045260246000fd5b6107b982610770565b810181811067ffffffffffffffff821117156107d8576107d7610781565b5b80604052505050565b60006107eb610752565b90506107f782826107b0565b919050565b600067ffffffffffffffff82111561081757610816610781565b5b61082082610770565b9050602081019050919050565b82818337600083830152505050565b600061084f61084a846107fc565b6107e1565b90508281526020810184848401111561086b5761086a61076b565b5b61087684828561082d565b509392505050565b600082601f83011261089357610892610766565b5b81356108a384826020860161083c565b91505092915050565b600060ff82169050919050565b6108c2816108ac565b81146108cd57600080fd5b50565b6000813590506108df816108b9565b92915050565b600080604083850312156108fc576108fb61075c565b5b600083013567ffffffffffffffff81111561091a57610919610761565b5b6109268582860161087e565b9250506020610937858286016108d0565b9150509250929050565b600073ffffffffffffffffffffffffffffffffffffffff82169050919050565b600061096c82610941565b9050919050565b61097c81610961565b82525050565b60006020820190506109976000830184610973565b92915050565b6000819050919050565b6109b08161099d565b81146109bb57600080fd5b50565b6000813590506109cd816109a7565b92915050565b6109dc81610961565b81146109e757600080fd5b50565b6000813590506109f9816109d3565b92915050565b600080600060608486031215610a1857610a1761075c565b5b600084013567ffffffffffffffff811115610a3657610a35610761565b5b610a428682870161087e565b9350506020610a53868287016109be565b9250506040610a64868287016109ea565b9150509250925092565b600060208284031215610a8457610a8361075c565b5b600082013567ffffffffffffffff811115610aa257610aa1610761565b5b610aae8482850161087e565b91505092915050565b600060208284031215610acd57610acc61075c565b5b6000610adb848285016109ea565b91505092915050565b600081519050919050565b600081905092915050565b60005b83811015610b18578082015181840152602081019050610afd565b60008484015250505050565b6000610b2f82610ae4565b610b398185610aef565b9350610b49818560208601610afa565b80840191505092915050565b6000610b618284610b24565b915081905092915050565b610b75816108ac565b82525050565b600082825260208201905092915050565b6000610b9782610ae4565b610ba18185610b7b565b9350610bb1818560208601610afa565b610bba81610770565b840191505092915050565b6000606082019050610bda6000830186610b6c565b8181036020830152610bec8185610b8c565b9050610bfb6040830184610b6c565b949350505050565b600061ffff82169050919050565b610c1a81610c03565b82525050565b610c298161099d565b82525050565b6000606082019050610c446000830186610c11565b610c516020830185610c20565b610c5e6040830184610973565b949350505050565b600081519050610c75816109a7565b92915050565b600060208284031215610c9157610c9061075c565b5b6000610c9f84828501610c66565b91505092915050565b6000819050919050565b6000610ccd610cc8610cc384610c03565b610ca8565b61099d565b9050919050565b610cdd81610cb2565b82525050565b6000608082019050610cf86000830187610b6c565b610d056020830186610cd4565b610d126040830185610c20565b610d1f6060830184610973565b95945050505050565b6000604082019050610d3d6000830185610b6c565b8181036020830152610d4f8184610b8c565b90509392505050565b6000606082019050610d6d6000830186610c20565b610d7a6020830185610c20565b610d876040830184610973565b949350505050565b6000608082019050610da46000830187610b6c565b610db16020830186610c20565b610dbe6040830185610c20565b610dcb6060830184610973565b95945050505050565b7f4f776e61626c653a206e6577206f776e657220697320746865207a65726f206160008201527f6464726573730000000000000000000000000000000000000000000000000000602082015250565b6000610e30602683610b7b565b9150610e3b82610dd4565b604082019050919050565b60006020820190508181036000830152610e5f81610e23565b9050919050565b7f4f776e61626c653a2063616c6c6572206973206e6f7420746865206f776e6572600082015250565b6000610e9c602083610b7b565b9150610ea782610e66565b602082019050919050565b60006020820190508181036000830152610ecb81610e8f565b905091905056fea26469706673582212207f15f7cef155233e49a63acd309a3b7b859434c7d7eeca8399706ab87d7d159064736f6c63430008110033",
  "immutableReferences": {},
  "source": "// SPDX-License-Identifier: MIT\npragma solidity >=0.4.22 <0.9.0;\n\nimport \"../../node_modules/@openzeppelin/contracts/access/Ownable.sol\";\nimport \"../interfaces/IStargateRouter.sol\";\nimport \"../interfaces/IIntegration.sol\";\n\ncontract StargateRouter is IIntegration, Ownable {\n\n    uint8 projectId;                    // protocol project identifier\n    address private addr;               // router contract address\n    uint256 private stgChainId;         // STG chain identifier\n    IStargateRouter private router;     // STG router interface\n\n    mapping(string => uint8) private tokenId;\n    \n    constructor(address _addr, uint8 _projectId, uint16 _chainId) {\n        addr = _addr;\n        projectId = _projectId;\n        stgChainId = _chainId;\n    }\n\n    function addTokenPool(string memory token, uint8 id) public onlyOwner {\n        tokenId[token] = id;\n        emit PoolAdded(projectId, token, id);\n    }\n\n    function removeTokenPool(string memory token) public onlyOwner {\n        delete tokenId[token];\n        emit PoolRemoved(projectId, token);\n    }\n\n    function addLiquidity(\n        string memory _token,\n        uint256 _amountLD,\n        address _to\n    ) external {\n        router = IStargateRouter(addr);\n        uint _poolId = tokenId[_token];\n        router.addLiquidity(_poolId, _amountLD, _to);\n        emit PoolAddLiquidityEvent(projectId, _poolId, _amountLD, _to);\n    }\n\n    function removeLiquidity(\n        string memory token,\n        uint256 _amountLP,\n        address _to\n    ) external {\n        router = IStargateRouter(addr);\n        uint16 _srcPoolId = tokenId[token];\n        router.instantRedeemLocal(_srcPoolId, _amountLP, _to);\n        emit PoolRemoveLiquidity(projectId, _srcPoolId, _amountLP, _to);\n    }\n\n}\n",
  "sourcePath": "/Users/irasigman/code/agoras/bandit-protocol/contracts/integrations/StargateRouter.sol",
  "compiler": {
    "name": "solc",
    "version": "0.8.17+commit.8df45f5f.Emscripten.clang"
  },
  "schemaVersion": "3.4.10",
  "updatedAt": "2023-01-06T20:49:28.949Z",
  "networkType": "ethereum",
  "devdoc": {
    "kind": "dev",
    "methods": {
      "owner()": {
        "details": "Returns the address of the current owner."
      },
      "renounceOwnership()": {
        "details": "Leaves the contract without owner. It will not be possible to call `onlyOwner` functions anymore. Can only be called by the current owner. NOTE: Renouncing ownership will leave the contract without an owner, thereby removing any functionality that is only available to the owner."
      },
      "transferOwnership(address)": {
        "details": "Transfers ownership of the contract to a new account (`newOwner`). Can only be called by the current owner."
      }
    },
    "version": 1
  },
  "userdoc": {
    "kind": "user",
    "methods": {},
    "version": 1
  }
}