{
  "contractName": "TopYieldSwap",
  "abi": [
    {
      "inputs": [
        {
          "internalType": "uint16",
          "name": "_chainId",
          "type": "uint16"
        },
        {
          "internalType": "address",
          "name": "_tokenAddr",
          "type": "address"
        }
      ],
      "stateMutability": "nonpayable",
      "type": "constructor"
    },
    {
      "anonymous": false,
      "inputs": [
        {
          "indexed": false,
          "internalType": "uint16",
          "name": "_poolId",
          "type": "uint16"
        },
        {
          "indexed": false,
          "internalType": "uint256",
          "name": "_amount",
          "type": "uint256"
        },
        {
          "indexed": false,
          "internalType": "uint256",
          "name": "_balance",
          "type": "uint256"
        }
      ],
      "name": "EnterPool",
      "type": "event"
    },
    {
      "anonymous": false,
      "inputs": [
        {
          "indexed": false,
          "internalType": "uint16",
          "name": "_poolId",
          "type": "uint16"
        },
        {
          "indexed": false,
          "internalType": "uint256",
          "name": "_amount",
          "type": "uint256"
        }
      ],
      "name": "ExitPool",
      "type": "event"
    },
    {
      "anonymous": false,
      "inputs": [
        {
          "indexed": true,
          "internalType": "address",
          "name": "previousOwner",
          "type": "address"
        },
        {
          "indexed": true,
          "internalType": "address",
          "name": "newOwner",
          "type": "address"
        }
      ],
      "name": "OwnershipTransferred",
      "type": "event"
    },
    {
      "anonymous": false,
      "inputs": [
        {
          "indexed": false,
          "internalType": "string",
          "name": "_project",
          "type": "string"
        },
        {
          "indexed": false,
          "internalType": "string",
          "name": "_token",
          "type": "string"
        },
        {
          "indexed": false,
          "internalType": "address",
          "name": "_addr",
          "type": "address"
        }
      ],
      "name": "YieldPoolAdded",
      "type": "event"
    },
    {
      "anonymous": false,
      "inputs": [
        {
          "indexed": false,
          "internalType": "uint16",
          "name": "_id",
          "type": "uint16"
        }
      ],
      "name": "YieldPoolRemoved",
      "type": "event"
    },
    {
      "anonymous": false,
      "inputs": [
        {
          "indexed": false,
          "internalType": "uint16",
          "name": "_poolId",
          "type": "uint16"
        },
        {
          "indexed": false,
          "internalType": "uint16",
          "name": "_newYield",
          "type": "uint16"
        }
      ],
      "name": "YieldPoolYieldSet",
      "type": "event"
    },
    {
      "inputs": [],
      "name": "owner",
      "outputs": [
        {
          "internalType": "address",
          "name": "",
          "type": "address"
        }
      ],
      "stateMutability": "view",
      "type": "function",
      "constant": true
    },
    {
      "inputs": [],
      "name": "renounceOwnership",
      "outputs": [],
      "stateMutability": "nonpayable",
      "type": "function"
    },
    {
      "inputs": [
        {
          "internalType": "address",
          "name": "newOwner",
          "type": "address"
        }
      ],
      "name": "transferOwnership",
      "outputs": [],
      "stateMutability": "nonpayable",
      "type": "function"
    },
    {
      "inputs": [
        {
          "internalType": "uint16[]",
          "name": "_poolIds",
          "type": "uint16[]"
        },
        {
          "internalType": "uint16",
          "name": "_length",
          "type": "uint16"
        }
      ],
      "name": "rebalance",
      "outputs": [
        {
          "internalType": "uint16",
          "name": "_yield",
          "type": "uint16"
        }
      ],
      "stateMutability": "nonpayable",
      "type": "function"
    },
    {
      "inputs": [],
      "name": "getCurrentYield",
      "outputs": [
        {
          "internalType": "uint16",
          "name": "_apy",
          "type": "uint16"
        }
      ],
      "stateMutability": "view",
      "type": "function",
      "constant": true
    },
    {
      "inputs": [
        {
          "internalType": "address",
          "name": "spender",
          "type": "address"
        },
        {
          "internalType": "uint256",
          "name": "_amount",
          "type": "uint256"
        }
      ],
      "name": "approve",
      "outputs": [],
      "stateMutability": "nonpayable",
      "type": "function"
    },
    {
      "inputs": [
        {
          "internalType": "uint256",
          "name": "_amount",
          "type": "uint256"
        }
      ],
      "name": "deposit",
      "outputs": [],
      "stateMutability": "payable",
      "type": "function",
      "payable": true
    },
    {
      "inputs": [
        {
          "internalType": "address",
          "name": "_to",
          "type": "address"
        },
        {
          "internalType": "uint256",
          "name": "_amount",
          "type": "uint256"
        }
      ],
      "name": "withdrawal",
      "outputs": [],
      "stateMutability": "nonpayable",
      "type": "function"
    },
    {
      "inputs": [],
      "name": "getTokenBalance",
      "outputs": [
        {
          "internalType": "uint256",
          "name": "tokenBalance",
          "type": "uint256"
        }
      ],
      "stateMutability": "view",
      "type": "function",
      "constant": true
    },
    {
      "inputs": [],
      "name": "exitCurrentPool",
      "outputs": [],
      "stateMutability": "nonpayable",
      "type": "function"
    },
    {
      "inputs": [
        {
          "internalType": "uint16[]",
          "name": "_poolIds",
          "type": "uint16[]"
        },
        {
          "internalType": "uint16",
          "name": "_length",
          "type": "uint16"
        }
      ],
      "name": "selectPool",
      "outputs": [
        {
          "components": [
            {
              "internalType": "uint16",
              "name": "id",
              "type": "uint16"
            },
            {
              "internalType": "string",
              "name": "project",
              "type": "string"
            },
            {
              "internalType": "string",
              "name": "token",
              "type": "string"
            },
            {
              "internalType": "address",
              "name": "addr",
              "type": "address"
            },
            {
              "internalType": "uint16",
              "name": "currentYield",
              "type": "uint16"
            }
          ],
          "internalType": "struct TopYieldSwap.YieldPool",
          "name": "yieldPool",
          "type": "tuple"
        }
      ],
      "stateMutability": "view",
      "type": "function",
      "constant": true
    },
    {
      "inputs": [
        {
          "internalType": "uint16",
          "name": "id",
          "type": "uint16"
        },
        {
          "internalType": "string",
          "name": "_project",
          "type": "string"
        },
        {
          "internalType": "string",
          "name": "_token",
          "type": "string"
        },
        {
          "internalType": "address",
          "name": "_addr",
          "type": "address"
        }
      ],
      "name": "addYieldPool",
      "outputs": [
        {
          "internalType": "contract IIntegration",
          "name": "integration",
          "type": "address"
        }
      ],
      "stateMutability": "nonpayable",
      "type": "function"
    },
    {
      "inputs": [
        {
          "internalType": "uint16",
          "name": "_id",
          "type": "uint16"
        }
      ],
      "name": "removeYieldPool",
      "outputs": [],
      "stateMutability": "nonpayable",
      "type": "function"
    },
    {
      "inputs": [
        {
          "internalType": "uint16",
          "name": "_id",
          "type": "uint16"
        },
        {
          "internalType": "uint16",
          "name": "_yield",
          "type": "uint16"
        }
      ],
      "name": "setYieldPoolYield",
      "outputs": [],
      "stateMutability": "nonpayable",
      "type": "function"
    },
    {
      "inputs": [
        {
          "internalType": "uint16",
          "name": "_id",
          "type": "uint16"
        }
      ],
      "name": "getYieldPool",
      "outputs": [
        {
          "components": [
            {
              "internalType": "uint16",
              "name": "id",
              "type": "uint16"
            },
            {
              "internalType": "string",
              "name": "project",
              "type": "string"
            },
            {
              "internalType": "string",
              "name": "token",
              "type": "string"
            },
            {
              "internalType": "address",
              "name": "addr",
              "type": "address"
            },
            {
              "internalType": "uint16",
              "name": "currentYield",
              "type": "uint16"
            }
          ],
          "internalType": "struct TopYieldSwap.YieldPool",
          "name": "yieldPool",
          "type": "tuple"
        }
      ],
      "stateMutability": "view",
      "type": "function",
      "constant": true
    }
  ],
  "bytecode": "0x60806040523480156200001157600080fd5b506040516200281d3803806200281d833981810160405281019062000037919062000250565b620000576200004b620000db60201b60201c565b620000e360201b60201c565b81600060146101000a81548161ffff021916908361ffff16021790555080600160006101000a81548173ffffffffffffffffffffffffffffffffffffffff021916908373ffffffffffffffffffffffffffffffffffffffff1602179055506000600160146101000a81548161ffff021916908361ffff160217905550505062000297565b600033905090565b60008060009054906101000a900473ffffffffffffffffffffffffffffffffffffffff169050816000806101000a81548173ffffffffffffffffffffffffffffffffffffffff021916908373ffffffffffffffffffffffffffffffffffffffff1602179055508173ffffffffffffffffffffffffffffffffffffffff168173ffffffffffffffffffffffffffffffffffffffff167f8be0079c531659141344cd1fd0a4f28419497f9722a3daafe3b4186f6b6457e060405160405180910390a35050565b600080fd5b600061ffff82169050919050565b620001c581620001ac565b8114620001d157600080fd5b50565b600081519050620001e581620001ba565b92915050565b600073ffffffffffffffffffffffffffffffffffffffff82169050919050565b60006200021882620001eb565b9050919050565b6200022a816200020b565b81146200023657600080fd5b50565b6000815190506200024a816200021f565b92915050565b600080604083850312156200026a5762000269620001a7565b5b60006200027a85828601620001d4565b92505060206200028d8582860162000239565b9150509250929050565b61257680620002a76000396000f3fe6080604052600436106100e85760003560e01c80637412fe341161008a578063b91503a611610059578063b91503a6146102bf578063e430e53a146102ea578063f2fde38b14610313578063fcb8c9a61461033c576100e8565b80637412fe341461023657806382b2e2571461024d5780638da5cb5b14610278578063b6b55f25146102a3576100e8565b80633acc5696116100c65780633acc56961461017c5780634a2bcb40146101b95780635a6b26ba146101f6578063715018a61461021f576100e8565b80630370bd62146100ed578063095ea7b31461012a5780630cd1eaf314610153575b600080fd5b3480156100f957600080fd5b50610114600480360381019061010f91906117e3565b610379565b604051610121919061196d565b60405180910390f35b34801561013657600080fd5b50610151600480360381019061014c91906119f1565b610570565b005b34801561015f57600080fd5b5061017a60048036038101906101759190611a31565b610660565b005b34801561018857600080fd5b506101a3600480360381019061019e9190611ad6565b6106de565b6040516101b09190611b45565b60405180910390f35b3480156101c557600080fd5b506101e060048036038101906101db9190611ad6565b61079f565b6040516101ed919061196d565b60405180910390f35b34801561020257600080fd5b5061021d600480360381019061021891906119f1565b610aac565b005b34801561022b57600080fd5b50610234610ba6565b005b34801561024257600080fd5b5061024b610bba565b005b34801561025957600080fd5b50610262610f21565b60405161026f9190611b6f565b60405180910390f35b34801561028457600080fd5b5061028d610fc4565b60405161029a9190611b99565b60405180910390f35b6102bd60048036038101906102b89190611bb4565b610fed565b005b3480156102cb57600080fd5b506102d46110de565b6040516102e19190611b45565b60405180910390f35b3480156102f657600080fd5b50610311600480360381019061030c91906117e3565b611122565b005b34801561031f57600080fd5b5061033a60048036038101906103359190611be1565b611231565b005b34801561034857600080fd5b50610363600480360381019061035e9190611d3e565b6112b4565b6040516103709190611e3c565b60405180910390f35b6103816116eb565b6103896114b6565b600260008361ffff1661ffff1681526020019081526020016000206040518060a00160405290816000820160009054906101000a900461ffff1661ffff1661ffff1681526020016001820180546103df90611e86565b80601f016020809104026020016040519081016040528092919081815260200182805461040b90611e86565b80156104585780601f1061042d57610100808354040283529160200191610458565b820191906000526020600020905b81548152906001019060200180831161043b57829003601f168201915b5050505050815260200160028201805461047190611e86565b80601f016020809104026020016040519081016040528092919081815260200182805461049d90611e86565b80156104ea5780601f106104bf576101008083540402835291602001916104ea565b820191906000526020600020905b8154815290600101906020018083116104cd57829003601f168201915b505050505081526020016003820160009054906101000a900473ffffffffffffffffffffffffffffffffffffffff1673ffffffffffffffffffffffffffffffffffffffff1673ffffffffffffffffffffffffffffffffffffffff1681526020016003820160149054906101000a900461ffff1661ffff1661ffff16815250509050919050565b80600081116105b4576040517f08c379a00000000000000000000000000000000000000000000000000000000081526004016105ab90611f3a565b60405180910390fd5b6000600160009054906101000a900473ffffffffffffffffffffffffffffffffffffffff1690508073ffffffffffffffffffffffffffffffffffffffff1663095ea7b385856040518363ffffffff1660e01b8152600401610616929190611f5a565b6020604051808303816000875af1158015610635573d6000803e3d6000fd5b505050506040513d601f19601f820116820180604052508101906106599190611fbb565b5050505050565b6106686114b6565b80600260008461ffff1661ffff16815260200190815260200160002060030160146101000a81548161ffff021916908361ffff1602179055507f7ba87dc2f0579f73c0c81556149b4a38ba7b7ad1c04893bd6b0adf5d90904e9b82826040516106d2929190611fe8565b60405180910390a15050565b60006106e86114b6565b60006106f2610f21565b90506106ff858585611534565b801561070b5750600081115b1561072257610718610bba565b6000915050610798565b61072d858585611534565b80156107395750600081145b156107965761075161074c86868661079f565b61157e565b60026000600160149054906101000a900461ffff1661ffff1661ffff16815260200190815260200160002060030160149054906101000a900461ffff16915050610798565b505b9392505050565b6107a76116eb565b60008060005b8461ffff168161ffff1610156108c0578261ffff166002600089898561ffff168181106107dd576107dc612011565b5b90506020020160208101906107f291906117e3565b61ffff1661ffff16815260200190815260200160002060030160149054906101000a900461ffff1661ffff1611156108ad576002600088888461ffff1681811061083f5761083e612011565b5b905060200201602081019061085491906117e3565b61ffff1661ffff16815260200190815260200160002060030160149054906101000a900461ffff16925086868261ffff1681811061089557610894612011565b5b90506020020160208101906108aa91906117e3565b91505b80806108b89061206f565b9150506107ad565b50600260008261ffff1661ffff1681526020019081526020016000206040518060a00160405290816000820160009054906101000a900461ffff1661ffff1661ffff16815260200160018201805461091790611e86565b80601f016020809104026020016040519081016040528092919081815260200182805461094390611e86565b80156109905780601f1061096557610100808354040283529160200191610990565b820191906000526020600020905b81548152906001019060200180831161097357829003601f168201915b505050505081526020016002820180546109a990611e86565b80601f01602080910402602001604051908101604052809291908181526020018280546109d590611e86565b8015610a225780601f106109f757610100808354040283529160200191610a22565b820191906000526020600020905b815481529060010190602001808311610a0557829003601f168201915b505050505081526020016003820160009054906101000a900473ffffffffffffffffffffffffffffffffffffffff1673ffffffffffffffffffffffffffffffffffffffff1673ffffffffffffffffffffffffffffffffffffffff1681526020016003820160149054906101000a900461ffff1661ffff1661ffff1681525050925050509392505050565b610ab46114b6565b8060008111610af8576040517f08c379a0000000000000000000000000000000000000000000000000000000008152600401610aef90611f3a565b60405180910390fd5b6000600160009054906101000a900473ffffffffffffffffffffffffffffffffffffffff1690508073ffffffffffffffffffffffffffffffffffffffff166323b872dd3086866040518463ffffffff1660e01b8152600401610b5c93929190612099565b6020604051808303816000875af1158015610b7b573d6000803e3d6000fd5b505050506040513d601f19601f82011682018060405250810190610b9f9190611fbb565b5050505050565b610bae6114b6565b610bb8600061161f565b565b610bc26114b6565b600060026000600160149054906101000a900461ffff1661ffff1661ffff1681526020019081526020016000206040518060a00160405290816000820160009054906101000a900461ffff1661ffff1661ffff168152602001600182018054610c2a90611e86565b80601f0160208091040260200160405190810160405280929190818152602001828054610c5690611e86565b8015610ca35780601f10610c7857610100808354040283529160200191610ca3565b820191906000526020600020905b815481529060010190602001808311610c8657829003601f168201915b50505050508152602001600282018054610cbc90611e86565b80601f0160208091040260200160405190810160405280929190818152602001828054610ce890611e86565b8015610d355780601f10610d0a57610100808354040283529160200191610d35565b820191906000526020600020905b815481529060010190602001808311610d1857829003601f168201915b505050505081526020016003820160009054906101000a900473ffffffffffffffffffffffffffffffffffffffff1673ffffffffffffffffffffffffffffffffffffffff1673ffffffffffffffffffffffffffffffffffffffff1681526020016003820160149054906101000a900461ffff1661ffff1661ffff16815250509050600060026000600160149054906101000a900461ffff1661ffff1661ffff16815260200190815260200160002060030160009054906101000a900473ffffffffffffffffffffffffffffffffffffffff1690506000826060015173ffffffffffffffffffffffffffffffffffffffff166370a08231306040518263ffffffff1660e01b8152600401610e489190611b99565b602060405180830381865afa158015610e65573d6000803e3d6000fd5b505050506040513d601f19601f82011682018060405250810190610e8991906120e5565b90508173ffffffffffffffffffffffffffffffffffffffff1663a7082de5846040015183306040518463ffffffff1660e01b8152600401610ecc9392919061214b565b600060405180830381600087803b158015610ee657600080fd5b505af1158015610efa573d6000803e3d6000fd5b505050506000600160146101000a81548161ffff021916908361ffff160217905550505050565b6000600160009054906101000a900473ffffffffffffffffffffffffffffffffffffffff1673ffffffffffffffffffffffffffffffffffffffff166370a08231306040518263ffffffff1660e01b8152600401610f7e9190611b99565b602060405180830381865afa158015610f9b573d6000803e3d6000fd5b505050506040513d601f19601f82011682018060405250810190610fbf91906120e5565b905090565b60008060009054906101000a900473ffffffffffffffffffffffffffffffffffffffff16905090565b8060008111611031576040517f08c379a000000000000000000000000000000000000000000000000000000000815260040161102890611f3a565b60405180910390fd5b6000600160009054906101000a900473ffffffffffffffffffffffffffffffffffffffff1690508073ffffffffffffffffffffffffffffffffffffffff166323b872dd3330866040518463ffffffff1660e01b815260040161109593929190612099565b6020604051808303816000875af11580156110b4573d6000803e3d6000fd5b505050506040513d601f19601f820116820180604052508101906110d89190611fbb565b50505050565b600060026000600160149054906101000a900461ffff1661ffff1661ffff16815260200190815260200160002060030160149054906101000a900461ffff16905090565b61112a6114b6565b600260008261ffff1661ffff168152602001908152602001600020600080820160006101000a81549061ffff021916905560018201600061116b9190611738565b60028201600061117b9190611738565b6003820160006101000a81549073ffffffffffffffffffffffffffffffffffffffff02191690556003820160146101000a81549061ffff02191690555050600360008261ffff1661ffff16815260200190815260200160002060006101000a81549073ffffffffffffffffffffffffffffffffffffffff02191690557f1b2a4599ca8376db030733f91aee33d618c2c4bf06bdee6f9513c121ece0ff1e816040516112269190611b45565b60405180910390a150565b6112396114b6565b600073ffffffffffffffffffffffffffffffffffffffff168173ffffffffffffffffffffffffffffffffffffffff16036112a8576040517f08c379a000000000000000000000000000000000000000000000000000000000815260040161129f906121fb565b60405180910390fd5b6112b18161161f565b50565b60006112be6114b6565b6040518060a001604052808661ffff1681526020018581526020018481526020018373ffffffffffffffffffffffffffffffffffffffff168152602001600061ffff16815250600260008761ffff1661ffff16815260200190815260200160002060008201518160000160006101000a81548161ffff021916908361ffff160217905550602082015181600101908161135791906123bd565b50604082015181600201908161136d91906123bd565b5060608201518160030160006101000a81548173ffffffffffffffffffffffffffffffffffffffff021916908373ffffffffffffffffffffffffffffffffffffffff16021790555060808201518160030160146101000a81548161ffff021916908361ffff16021790555090505081600360008761ffff1661ffff16815260200190815260200160002060006101000a81548173ffffffffffffffffffffffffffffffffffffffff021916908373ffffffffffffffffffffffffffffffffffffffff1602179055507fed71e55bd13a81ef77c16d1341638615a55bbe7198dd92ac1ea4221ab71ad7d18484846040516114689392919061248f565b60405180910390a1600360008661ffff1661ffff16815260200190815260200160002060009054906101000a900473ffffffffffffffffffffffffffffffffffffffff169050949350505050565b6114be6116e3565b73ffffffffffffffffffffffffffffffffffffffff166114dc610fc4565b73ffffffffffffffffffffffffffffffffffffffff1614611532576040517f08c379a000000000000000000000000000000000000000000000000000000000815260040161152990612520565b60405180910390fd5b565b60008061154285858561079f565b9050600160149054906101000a900461ffff1661ffff16816000015161ffff1603611571576000915050611577565b60019150505b9392505050565b6000816060015190508073ffffffffffffffffffffffffffffffffffffffff1663e502021f836040015147306040518463ffffffff1660e01b81526004016115c89392919061214b565b600060405180830381600087803b1580156115e257600080fd5b505af11580156115f6573d6000803e3d6000fd5b505050508160000151600160146101000a81548161ffff021916908361ffff1602179055505050565b60008060009054906101000a900473ffffffffffffffffffffffffffffffffffffffff169050816000806101000a81548173ffffffffffffffffffffffffffffffffffffffff021916908373ffffffffffffffffffffffffffffffffffffffff1602179055508173ffffffffffffffffffffffffffffffffffffffff168173ffffffffffffffffffffffffffffffffffffffff167f8be0079c531659141344cd1fd0a4f28419497f9722a3daafe3b4186f6b6457e060405160405180910390a35050565b600033905090565b6040518060a00160405280600061ffff1681526020016060815260200160608152602001600073ffffffffffffffffffffffffffffffffffffffff168152602001600061ffff1681525090565b50805461174490611e86565b6000825580601f106117565750611775565b601f0160209004906000526020600020908101906117749190611778565b5b50565b5b80821115611791576000816000905550600101611779565b5090565b6000604051905090565b600080fd5b600080fd5b600061ffff82169050919050565b6117c0816117a9565b81146117cb57600080fd5b50565b6000813590506117dd816117b7565b92915050565b6000602082840312156117f9576117f861179f565b5b6000611807848285016117ce565b91505092915050565b611819816117a9565b82525050565b600081519050919050565b600082825260208201905092915050565b60005b8381101561185957808201518184015260208101905061183e565b60008484015250505050565b6000601f19601f8301169050919050565b60006118818261181f565b61188b818561182a565b935061189b81856020860161183b565b6118a481611865565b840191505092915050565b600073ffffffffffffffffffffffffffffffffffffffff82169050919050565b60006118da826118af565b9050919050565b6118ea816118cf565b82525050565b600060a0830160008301516119086000860182611810565b50602083015184820360208601526119208282611876565b9150506040830151848203604086015261193a8282611876565b915050606083015161194f60608601826118e1565b5060808301516119626080860182611810565b508091505092915050565b6000602082019050818103600083015261198781846118f0565b905092915050565b611998816118cf565b81146119a357600080fd5b50565b6000813590506119b58161198f565b92915050565b6000819050919050565b6119ce816119bb565b81146119d957600080fd5b50565b6000813590506119eb816119c5565b92915050565b60008060408385031215611a0857611a0761179f565b5b6000611a16858286016119a6565b9250506020611a27858286016119dc565b9150509250929050565b60008060408385031215611a4857611a4761179f565b5b6000611a56858286016117ce565b9250506020611a67858286016117ce565b9150509250929050565b600080fd5b600080fd5b600080fd5b60008083601f840112611a9657611a95611a71565b5b8235905067ffffffffffffffff811115611ab357611ab2611a76565b5b602083019150836020820283011115611acf57611ace611a7b565b5b9250929050565b600080600060408486031215611aef57611aee61179f565b5b600084013567ffffffffffffffff811115611b0d57611b0c6117a4565b5b611b1986828701611a80565b93509350506020611b2c868287016117ce565b9150509250925092565b611b3f816117a9565b82525050565b6000602082019050611b5a6000830184611b36565b92915050565b611b69816119bb565b82525050565b6000602082019050611b846000830184611b60565b92915050565b611b93816118cf565b82525050565b6000602082019050611bae6000830184611b8a565b92915050565b600060208284031215611bca57611bc961179f565b5b6000611bd8848285016119dc565b91505092915050565b600060208284031215611bf757611bf661179f565b5b6000611c05848285016119a6565b91505092915050565b600080fd5b7f4e487b7100000000000000000000000000000000000000000000000000000000600052604160045260246000fd5b611c4b82611865565b810181811067ffffffffffffffff82111715611c6a57611c69611c13565b5b80604052505050565b6000611c7d611795565b9050611c898282611c42565b919050565b600067ffffffffffffffff821115611ca957611ca8611c13565b5b611cb282611865565b9050602081019050919050565b82818337600083830152505050565b6000611ce1611cdc84611c8e565b611c73565b905082815260208101848484011115611cfd57611cfc611c0e565b5b611d08848285611cbf565b509392505050565b600082601f830112611d2557611d24611a71565b5b8135611d35848260208601611cce565b91505092915050565b60008060008060808587031215611d5857611d5761179f565b5b6000611d66878288016117ce565b945050602085013567ffffffffffffffff811115611d8757611d866117a4565b5b611d9387828801611d10565b935050604085013567ffffffffffffffff811115611db457611db36117a4565b5b611dc087828801611d10565b9250506060611dd1878288016119a6565b91505092959194509250565b6000819050919050565b6000611e02611dfd611df8846118af565b611ddd565b6118af565b9050919050565b6000611e1482611de7565b9050919050565b6000611e2682611e09565b9050919050565b611e3681611e1b565b82525050565b6000602082019050611e516000830184611e2d565b92915050565b7f4e487b7100000000000000000000000000000000000000000000000000000000600052602260045260246000fd5b60006002820490506001821680611e9e57607f821691505b602082108103611eb157611eb0611e57565b5b50919050565b600082825260208201905092915050565b7f416d6f756e742073686f756c642062652067726561746572207468616e207a6560008201527f726f2e0000000000000000000000000000000000000000000000000000000000602082015250565b6000611f24602383611eb7565b9150611f2f82611ec8565b604082019050919050565b60006020820190508181036000830152611f5381611f17565b9050919050565b6000604082019050611f6f6000830185611b8a565b611f7c6020830184611b60565b9392505050565b60008115159050919050565b611f9881611f83565b8114611fa357600080fd5b50565b600081519050611fb581611f8f565b92915050565b600060208284031215611fd157611fd061179f565b5b6000611fdf84828501611fa6565b91505092915050565b6000604082019050611ffd6000830185611b36565b61200a6020830184611b36565b9392505050565b7f4e487b7100000000000000000000000000000000000000000000000000000000600052603260045260246000fd5b7f4e487b7100000000000000000000000000000000000000000000000000000000600052601160045260246000fd5b600061207a826117a9565b915061ffff820361208e5761208d612040565b5b600182019050919050565b60006060820190506120ae6000830186611b8a565b6120bb6020830185611b8a565b6120c86040830184611b60565b949350505050565b6000815190506120df816119c5565b92915050565b6000602082840312156120fb576120fa61179f565b5b6000612109848285016120d0565b91505092915050565b600061211d8261181f565b6121278185611eb7565b935061213781856020860161183b565b61214081611865565b840191505092915050565b600060608201905081810360008301526121658186612112565b90506121746020830185611b60565b6121816040830184611b8a565b949350505050565b7f4f776e61626c653a206e6577206f776e657220697320746865207a65726f206160008201527f6464726573730000000000000000000000000000000000000000000000000000602082015250565b60006121e5602683611eb7565b91506121f082612189565b604082019050919050565b60006020820190508181036000830152612214816121d8565b9050919050565b60008190508160005260206000209050919050565b60006020601f8301049050919050565b600082821b905092915050565b60006008830261227d7fffffffffffffffffffffffffffffffffffffffffffffffffffffffffffffffff82612240565b6122878683612240565b95508019841693508086168417925050509392505050565b60006122ba6122b56122b0846119bb565b611ddd565b6119bb565b9050919050565b6000819050919050565b6122d48361229f565b6122e86122e0826122c1565b84845461224d565b825550505050565b600090565b6122fd6122f0565b6123088184846122cb565b505050565b5b8181101561232c576123216000826122f5565b60018101905061230e565b5050565b601f821115612371576123428161221b565b61234b84612230565b8101602085101561235a578190505b61236e61236685612230565b83018261230d565b50505b505050565b600082821c905092915050565b600061239460001984600802612376565b1980831691505092915050565b60006123ad8383612383565b9150826002028217905092915050565b6123c68261181f565b67ffffffffffffffff8111156123df576123de611c13565b5b6123e98254611e86565b6123f4828285612330565b600060209050601f8311600181146124275760008415612415578287015190505b61241f85826123a1565b865550612487565b601f1984166124358661221b565b60005b8281101561245d57848901518255600182019150602085019450602081019050612438565b8683101561247a5784890151612476601f891682612383565b8355505b6001600288020188555050505b505050505050565b600060608201905081810360008301526124a98186612112565b905081810360208301526124bd8185612112565b90506124cc6040830184611b8a565b949350505050565b7f4f776e61626c653a2063616c6c6572206973206e6f7420746865206f776e6572600082015250565b600061250a602083611eb7565b9150612515826124d4565b602082019050919050565b60006020820190508181036000830152612539816124fd565b905091905056fea26469706673582212205cde0903f8f765aa6a6d5d14c344be2674f4419a62612b5caaf36d8fc0cd781e64736f6c63430008110033",
  "immutableReferences": {},
  "source": "// SPDX-License-Identifier: MIT\npragma solidity >=0.4.22 <0.9.0;\n\nimport \"../../node_modules/@openzeppelin/contracts/access/Ownable.sol\";\nimport \"../../node_modules/@openzeppelin/contracts/token/ERC20/presets/ERC20PresetMinterPauser.sol\";\nimport \"../interfaces/IIntegration.sol\";\n\ncontract TopYieldSwap is Ownable {\n\n    uint16 private chainId;\n    address private tokenAddr;\n    uint16 private activePool;\n\n    struct YieldPool {\n        uint16 id;              // unique pool id\n        string project;         // project name\n        string token;           // ERC20 name\n        address addr;           // pool address\n        uint16 currentYield;    // pool yield\n    }\n\n    event YieldPoolAdded(string _project, string _token, address _addr);\n    event YieldPoolRemoved(uint16 _id);\n\n    event YieldPoolYieldSet(uint16 _poolId, uint16 _newYield);\n\n    event EnterPool(uint16 _poolId, uint256 _amount, uint256 _balance);\n    event ExitPool(uint16 _poolId, uint256 _amount);\n\n    mapping (uint16 => YieldPool) private yieldPools;\n    mapping (uint16 => IIntegration) private integrations;\n\n    constructor(uint16 _chainId, address _tokenAddr) {\n        chainId = _chainId;\n        tokenAddr = _tokenAddr;\n        activePool = 0x0;\n    }\n\n    /**\n     * @dev rebalance will exclusively: do nothing, exit current pool, or enter top pool\n     * should therefore be called again if exit current pool was the performed action.\n     */\n    function rebalance(uint16[] calldata _poolIds, uint16 _length) public onlyOwner returns(uint16 _yield) {\n        uint256 tokenBalance = getTokenBalance();\n        if (shouldSwap(_poolIds, _length) && tokenBalance > 0) {\n            exitCurrentPool();\n            return 0x0;\n        } else if (shouldSwap(_poolIds, _length) && tokenBalance == 0) {\n            enterPool(selectPool(_poolIds, _length));\n            return yieldPools[activePool].currentYield;\n        }\n    }\n\n    function getCurrentYield() public view returns (uint16 _apy) {\n        return yieldPools[activePool].currentYield;\n    }\n\n    function approve(address spender, uint256 _amount) public gtZero(_amount) {\n        IERC20 tokenContract = IERC20(tokenAddr);\n        tokenContract.approve(spender, _amount);\n    }\n\n    function deposit(uint256 _amount) payable public gtZero(_amount) {\n        IERC20 tokenContract = IERC20(tokenAddr);\n        tokenContract.transferFrom(msg.sender, address(this), _amount);\n    }\n\n    function withdrawal(address _to, uint256 _amount) public onlyOwner gtZero(_amount) {\n        IERC20 tokenContract = IERC20(tokenAddr);\n        tokenContract.transferFrom(address(this), _to, _amount);\n    }\n\n    function getTokenBalance() public view returns (uint256 tokenBalance) {\n        return IERC20(tokenAddr).balanceOf(address(this));\n    }\n\n    function enterPool(YieldPool memory _yieldPool) internal {\n        IIntegration integration = IIntegration(_yieldPool.addr);\n        integration.addLiquidity(_yieldPool.token, address(this).balance, address(this));\n        activePool = _yieldPool.id;\n    }\n\n    function exitCurrentPool() public onlyOwner {\n        YieldPool memory currentPool = yieldPools[activePool];\n        IIntegration integration = IIntegration(yieldPools[activePool].addr);\n        uint256 balance = IERC20(currentPool.addr).balanceOf(address(this));\n        integration.removeLiquidity(currentPool.token, balance, address(this));\n        activePool = 0x0;\n    }\n\n    function shouldSwap(uint16[] calldata _poolIds, uint16 _length) internal view returns(bool _bool) {\n        YieldPool memory topPool = selectPool(_poolIds, _length);\n        if (topPool.id == activePool) {\n            return false;\n        }\n        return true;\n    }\n\n    function selectPool(uint16[] calldata _poolIds, uint16 _length) public view returns (YieldPool memory yieldPool) {\n        uint16 _topYield = 0x0;\n        uint16 _poolId = 0;\n        for (uint16 i = 0; i < _length; i++) {\n            if (yieldPools[_poolIds[i]].currentYield > _topYield) {\n                _topYield = yieldPools[_poolIds[i]].currentYield;\n                _poolId = _poolIds[i];\n            }\n        }\n        return yieldPools[_poolId];\n    }\n\n    function addYieldPool(\n        uint16 id,\n        string memory _project,\n        string memory _token,\n        address _addr\n    ) public onlyOwner returns(IIntegration integration) {\n        yieldPools[id] = YieldPool(id, _project, _token, _addr, 0x0);\n        integrations[id] = IIntegration(_addr);\n        emit YieldPoolAdded(_project, _token, _addr);\n        return integrations[id];\n    }\n\n    function removeYieldPool(\n        uint16 _id\n    ) public onlyOwner {\n        delete yieldPools[_id];\n        delete integrations[_id];\n        emit YieldPoolRemoved(_id);\n    }\n\n    function setYieldPoolYield(uint16 _id, uint16 _yield) public onlyOwner {\n        yieldPools[_id].currentYield = _yield; \n        emit YieldPoolYieldSet(_id, _yield);\n    }\n\n    function getYieldPool(uint16 _id) public view onlyOwner returns(YieldPool memory yieldPool) {\n        return yieldPools[_id];\n    }\n\n    modifier gtZero (uint256 _amount) {\n        require(_amount > 0, \"Amount should be greater than zero.\");\n        _;\n    }\n\n}\n",
  "sourcePath": "/Users/irasigman/code/agoras/bandit-protocol/contracts/instruments/TopYieldSwap.sol",
  "compiler": {
    "name": "solc",
    "version": "0.8.17+commit.8df45f5f.Emscripten.clang"
  },
  "schemaVersion": "3.4.10",
  "updatedAt": "2023-01-08T20:12:00.885Z",
  "networkType": "ethereum",
  "devdoc": {
    "kind": "dev",
    "methods": {
      "owner()": {
        "details": "Returns the address of the current owner."
      },
      "rebalance(uint16[],uint16)": {
        "details": "rebalance will exclusively: do nothing, exit current pool, or enter top pool should therefore be called again if exit current pool was the performed action."
      },
      "renounceOwnership()": {
        "details": "Leaves the contract without owner. It will not be possible to call `onlyOwner` functions anymore. Can only be called by the current owner. NOTE: Renouncing ownership will leave the contract without an owner, thereby removing any functionality that is only available to the owner."
      },
      "transferOwnership(address)": {
        "details": "Transfers ownership of the contract to a new account (`newOwner`). Can only be called by the current owner."
      }
    },
    "version": 1
  },
  "userdoc": {
    "kind": "user",
    "methods": {},
    "version": 1
  }
}