{
  "contractName": "TopYieldSwap",
  "abi": [
    {
      "inputs": [
        {
          "internalType": "uint16",
          "name": "_chainId",
          "type": "uint16"
        },
        {
          "internalType": "address",
          "name": "_tokenAddr",
          "type": "address"
        }
      ],
      "stateMutability": "nonpayable",
      "type": "constructor"
    },
    {
      "anonymous": false,
      "inputs": [
        {
          "indexed": false,
          "internalType": "uint16",
          "name": "_poolId",
          "type": "uint16"
        },
        {
          "indexed": false,
          "internalType": "uint256",
          "name": "_amount",
          "type": "uint256"
        },
        {
          "indexed": false,
          "internalType": "uint256",
          "name": "_balance",
          "type": "uint256"
        }
      ],
      "name": "EnterPool",
      "type": "event"
    },
    {
      "anonymous": false,
      "inputs": [
        {
          "indexed": false,
          "internalType": "uint16",
          "name": "_poolId",
          "type": "uint16"
        },
        {
          "indexed": false,
          "internalType": "uint256",
          "name": "_amount",
          "type": "uint256"
        }
      ],
      "name": "ExitPool",
      "type": "event"
    },
    {
      "anonymous": false,
      "inputs": [
        {
          "indexed": true,
          "internalType": "address",
          "name": "previousOwner",
          "type": "address"
        },
        {
          "indexed": true,
          "internalType": "address",
          "name": "newOwner",
          "type": "address"
        }
      ],
      "name": "OwnershipTransferred",
      "type": "event"
    },
    {
      "anonymous": false,
      "inputs": [
        {
          "indexed": false,
          "internalType": "string",
          "name": "_project",
          "type": "string"
        },
        {
          "indexed": false,
          "internalType": "string",
          "name": "_token",
          "type": "string"
        },
        {
          "indexed": false,
          "internalType": "address",
          "name": "_addr",
          "type": "address"
        }
      ],
      "name": "YieldPoolAdded",
      "type": "event"
    },
    {
      "anonymous": false,
      "inputs": [
        {
          "indexed": false,
          "internalType": "uint16",
          "name": "_id",
          "type": "uint16"
        }
      ],
      "name": "YieldPoolRemoved",
      "type": "event"
    },
    {
      "inputs": [],
      "name": "owner",
      "outputs": [
        {
          "internalType": "address",
          "name": "",
          "type": "address"
        }
      ],
      "stateMutability": "view",
      "type": "function"
    },
    {
      "inputs": [],
      "name": "renounceOwnership",
      "outputs": [],
      "stateMutability": "nonpayable",
      "type": "function"
    },
    {
      "inputs": [
        {
          "internalType": "address",
          "name": "newOwner",
          "type": "address"
        }
      ],
      "name": "transferOwnership",
      "outputs": [],
      "stateMutability": "nonpayable",
      "type": "function"
    },
    {
      "inputs": [
        {
          "internalType": "uint16[]",
          "name": "_poolIds",
          "type": "uint16[]"
        },
        {
          "internalType": "uint16",
          "name": "_length",
          "type": "uint16"
        }
      ],
      "name": "rebalance",
      "outputs": [
        {
          "internalType": "uint16",
          "name": "_yield",
          "type": "uint16"
        }
      ],
      "stateMutability": "nonpayable",
      "type": "function"
    },
    {
      "inputs": [],
      "name": "getTokenBalance",
      "outputs": [
        {
          "internalType": "uint256",
          "name": "tokenBalance",
          "type": "uint256"
        }
      ],
      "stateMutability": "view",
      "type": "function"
    },
    {
      "inputs": [
        {
          "internalType": "uint16",
          "name": "id",
          "type": "uint16"
        },
        {
          "internalType": "string",
          "name": "_project",
          "type": "string"
        },
        {
          "internalType": "string",
          "name": "_token",
          "type": "string"
        },
        {
          "internalType": "address",
          "name": "_addr",
          "type": "address"
        }
      ],
      "name": "addYieldPool",
      "outputs": [
        {
          "internalType": "contract IIntegration",
          "name": "integration",
          "type": "address"
        }
      ],
      "stateMutability": "nonpayable",
      "type": "function"
    },
    {
      "inputs": [
        {
          "internalType": "uint16",
          "name": "_id",
          "type": "uint16"
        }
      ],
      "name": "removeYieldPool",
      "outputs": [],
      "stateMutability": "nonpayable",
      "type": "function"
    }
  ],
  "bytecode": "0x60806040523480156200001157600080fd5b5060405162001cf338038062001cf3833981810160405281019062000037919062000250565b620000576200004b620000db60201b60201c565b620000e360201b60201c565b81600060146101000a81548161ffff021916908361ffff16021790555080600160006101000a81548173ffffffffffffffffffffffffffffffffffffffff021916908373ffffffffffffffffffffffffffffffffffffffff1602179055506000600160146101000a81548161ffff021916908361ffff160217905550505062000297565b600033905090565b60008060009054906101000a900473ffffffffffffffffffffffffffffffffffffffff169050816000806101000a81548173ffffffffffffffffffffffffffffffffffffffff021916908373ffffffffffffffffffffffffffffffffffffffff1602179055508173ffffffffffffffffffffffffffffffffffffffff168173ffffffffffffffffffffffffffffffffffffffff167f8be0079c531659141344cd1fd0a4f28419497f9722a3daafe3b4186f6b6457e060405160405180910390a35050565b600080fd5b600061ffff82169050919050565b620001c581620001ac565b8114620001d157600080fd5b50565b600081519050620001e581620001ba565b92915050565b600073ffffffffffffffffffffffffffffffffffffffff82169050919050565b60006200021882620001eb565b9050919050565b6200022a816200020b565b81146200023657600080fd5b50565b6000815190506200024a816200021f565b92915050565b600080604083850312156200026a5762000269620001a7565b5b60006200027a85828601620001d4565b92505060206200028d8582860162000239565b9150509250929050565b611a4c80620002a76000396000f3fe608060405234801561001057600080fd5b506004361061007d5760003560e01c80638da5cb5b1161005b5780638da5cb5b146100da578063e430e53a146100f8578063f2fde38b14610114578063fcb8c9a6146101305761007d565b80633acc569614610082578063715018a6146100b257806382b2e257146100bc575b600080fd5b61009c60048036038101906100979190611067565b610160565b6040516100a991906110d6565b60405180910390f35b6100ba610221565b005b6100c4610235565b6040516100d1919061110a565b60405180910390f35b6100e26102d8565b6040516100ef9190611166565b60405180910390f35b610112600480360381019061010d9190611181565b610301565b005b61012e600480360381019061012991906111da565b610410565b005b61014a60048036038101906101459190611348565b610493565b6040516101579190611446565b60405180910390f35b600061016a610695565b6000610174610235565b9050610181858585610713565b801561018d5750600081115b156101a45761019a61075d565b600091505061021a565b6101af858585610713565b80156101bb5750600081145b15610218576101d36101ce868686610abc565b610d9d565b60026000600160149054906101000a900461ffff1661ffff1661ffff16815260200190815260200160002060030160149054906101000a900461ffff1691505061021a565b505b9392505050565b610229610695565b6102336000610e3e565b565b6000600160009054906101000a900473ffffffffffffffffffffffffffffffffffffffff1673ffffffffffffffffffffffffffffffffffffffff166370a08231306040518263ffffffff1660e01b81526004016102929190611166565b602060405180830381865afa1580156102af573d6000803e3d6000fd5b505050506040513d601f19601f820116820180604052508101906102d3919061148d565b905090565b60008060009054906101000a900473ffffffffffffffffffffffffffffffffffffffff16905090565b610309610695565b600260008261ffff1661ffff168152602001908152602001600020600080820160006101000a81549061ffff021916905560018201600061034a9190610f0a565b60028201600061035a9190610f0a565b6003820160006101000a81549073ffffffffffffffffffffffffffffffffffffffff02191690556003820160146101000a81549061ffff02191690555050600360008261ffff1661ffff16815260200190815260200160002060006101000a81549073ffffffffffffffffffffffffffffffffffffffff02191690557f1b2a4599ca8376db030733f91aee33d618c2c4bf06bdee6f9513c121ece0ff1e8160405161040591906110d6565b60405180910390a150565b610418610695565b600073ffffffffffffffffffffffffffffffffffffffff168173ffffffffffffffffffffffffffffffffffffffff1603610487576040517f08c379a000000000000000000000000000000000000000000000000000000000815260040161047e9061153d565b60405180910390fd5b61049081610e3e565b50565b600061049d610695565b6040518060a001604052808661ffff1681526020018581526020018481526020018373ffffffffffffffffffffffffffffffffffffffff168152602001600061ffff16815250600260008761ffff1661ffff16815260200190815260200160002060008201518160000160006101000a81548161ffff021916908361ffff1602179055506020820151816001019081610536919061176a565b50604082015181600201908161054c919061176a565b5060608201518160030160006101000a81548173ffffffffffffffffffffffffffffffffffffffff021916908373ffffffffffffffffffffffffffffffffffffffff16021790555060808201518160030160146101000a81548161ffff021916908361ffff16021790555090505081600360008761ffff1661ffff16815260200190815260200160002060006101000a81548173ffffffffffffffffffffffffffffffffffffffff021916908373ffffffffffffffffffffffffffffffffffffffff1602179055507fed71e55bd13a81ef77c16d1341638615a55bbe7198dd92ac1ea4221ab71ad7d18484846040516106479392919061189f565b60405180910390a1600360008661ffff1661ffff16815260200190815260200160002060009054906101000a900473ffffffffffffffffffffffffffffffffffffffff169050949350505050565b61069d610f02565b73ffffffffffffffffffffffffffffffffffffffff166106bb6102d8565b73ffffffffffffffffffffffffffffffffffffffff1614610711576040517f08c379a000000000000000000000000000000000000000000000000000000000815260040161070890611930565b60405180910390fd5b565b600080610721858585610abc565b9050600160149054906101000a900461ffff1661ffff16816000015161ffff1603610750576000915050610756565b60019150505b9392505050565b600060026000600160149054906101000a900461ffff1661ffff1661ffff1681526020019081526020016000206040518060a00160405290816000820160009054906101000a900461ffff1661ffff1661ffff1681526020016001820180546107c590611597565b80601f01602080910402602001604051908101604052809291908181526020018280546107f190611597565b801561083e5780601f106108135761010080835404028352916020019161083e565b820191906000526020600020905b81548152906001019060200180831161082157829003601f168201915b5050505050815260200160028201805461085790611597565b80601f016020809104026020016040519081016040528092919081815260200182805461088390611597565b80156108d05780601f106108a5576101008083540402835291602001916108d0565b820191906000526020600020905b8154815290600101906020018083116108b357829003601f168201915b505050505081526020016003820160009054906101000a900473ffffffffffffffffffffffffffffffffffffffff1673ffffffffffffffffffffffffffffffffffffffff1673ffffffffffffffffffffffffffffffffffffffff1681526020016003820160149054906101000a900461ffff1661ffff1661ffff16815250509050600060026000600160149054906101000a900461ffff1661ffff1661ffff16815260200190815260200160002060030160009054906101000a900473ffffffffffffffffffffffffffffffffffffffff1690506000826060015173ffffffffffffffffffffffffffffffffffffffff166370a08231306040518263ffffffff1660e01b81526004016109e39190611166565b602060405180830381865afa158015610a00573d6000803e3d6000fd5b505050506040513d601f19601f82011682018060405250810190610a24919061148d565b90508173ffffffffffffffffffffffffffffffffffffffff1663a7082de5846040015183306040518463ffffffff1660e01b8152600401610a6793929190611950565b600060405180830381600087803b158015610a8157600080fd5b505af1158015610a95573d6000803e3d6000fd5b505050506000600160146101000a81548161ffff021916908361ffff160217905550505050565b610ac4610f4a565b60008060005b8461ffff168161ffff161015610bb1578261ffff166002600089898561ffff16818110610afa57610af961198e565b5b9050602002016020810190610b0f9190611181565b61ffff1661ffff16815260200190815260200160002060030160149054906101000a900461ffff1661ffff1610610b9e576002600088888461ffff16818110610b5b57610b5a61198e565b5b9050602002016020810190610b709190611181565b61ffff1661ffff16815260200190815260200160002060030160149054906101000a900461ffff1692508091505b8080610ba9906119ec565b915050610aca565b50600260008261ffff1661ffff1681526020019081526020016000206040518060a00160405290816000820160009054906101000a900461ffff1661ffff1661ffff168152602001600182018054610c0890611597565b80601f0160208091040260200160405190810160405280929190818152602001828054610c3490611597565b8015610c815780601f10610c5657610100808354040283529160200191610c81565b820191906000526020600020905b815481529060010190602001808311610c6457829003601f168201915b50505050508152602001600282018054610c9a90611597565b80601f0160208091040260200160405190810160405280929190818152602001828054610cc690611597565b8015610d135780601f10610ce857610100808354040283529160200191610d13565b820191906000526020600020905b815481529060010190602001808311610cf657829003601f168201915b505050505081526020016003820160009054906101000a900473ffffffffffffffffffffffffffffffffffffffff1673ffffffffffffffffffffffffffffffffffffffff1673ffffffffffffffffffffffffffffffffffffffff1681526020016003820160149054906101000a900461ffff1661ffff1661ffff1681525050925050509392505050565b6000816060015190508073ffffffffffffffffffffffffffffffffffffffff1663e502021f836040015147306040518463ffffffff1660e01b8152600401610de793929190611950565b600060405180830381600087803b158015610e0157600080fd5b505af1158015610e15573d6000803e3d6000fd5b505050508160000151600160146101000a81548161ffff021916908361ffff1602179055505050565b60008060009054906101000a900473ffffffffffffffffffffffffffffffffffffffff169050816000806101000a81548173ffffffffffffffffffffffffffffffffffffffff021916908373ffffffffffffffffffffffffffffffffffffffff1602179055508173ffffffffffffffffffffffffffffffffffffffff168173ffffffffffffffffffffffffffffffffffffffff167f8be0079c531659141344cd1fd0a4f28419497f9722a3daafe3b4186f6b6457e060405160405180910390a35050565b600033905090565b508054610f1690611597565b6000825580601f10610f285750610f47565b601f016020900490600052602060002090810190610f469190610f97565b5b50565b6040518060a00160405280600061ffff1681526020016060815260200160608152602001600073ffffffffffffffffffffffffffffffffffffffff168152602001600061ffff1681525090565b5b80821115610fb0576000816000905550600101610f98565b5090565b6000604051905090565b600080fd5b600080fd5b600080fd5b600080fd5b600080fd5b60008083601f840112610fed57610fec610fc8565b5b8235905067ffffffffffffffff81111561100a57611009610fcd565b5b60208301915083602082028301111561102657611025610fd2565b5b9250929050565b600061ffff82169050919050565b6110448161102d565b811461104f57600080fd5b50565b6000813590506110618161103b565b92915050565b6000806000604084860312156110805761107f610fbe565b5b600084013567ffffffffffffffff81111561109e5761109d610fc3565b5b6110aa86828701610fd7565b935093505060206110bd86828701611052565b9150509250925092565b6110d08161102d565b82525050565b60006020820190506110eb60008301846110c7565b92915050565b6000819050919050565b611104816110f1565b82525050565b600060208201905061111f60008301846110fb565b92915050565b600073ffffffffffffffffffffffffffffffffffffffff82169050919050565b600061115082611125565b9050919050565b61116081611145565b82525050565b600060208201905061117b6000830184611157565b92915050565b60006020828403121561119757611196610fbe565b5b60006111a584828501611052565b91505092915050565b6111b781611145565b81146111c257600080fd5b50565b6000813590506111d4816111ae565b92915050565b6000602082840312156111f0576111ef610fbe565b5b60006111fe848285016111c5565b91505092915050565b600080fd5b6000601f19601f8301169050919050565b7f4e487b7100000000000000000000000000000000000000000000000000000000600052604160045260246000fd5b6112558261120c565b810181811067ffffffffffffffff821117156112745761127361121d565b5b80604052505050565b6000611287610fb4565b9050611293828261124c565b919050565b600067ffffffffffffffff8211156112b3576112b261121d565b5b6112bc8261120c565b9050602081019050919050565b82818337600083830152505050565b60006112eb6112e684611298565b61127d565b90508281526020810184848401111561130757611306611207565b5b6113128482856112c9565b509392505050565b600082601f83011261132f5761132e610fc8565b5b813561133f8482602086016112d8565b91505092915050565b6000806000806080858703121561136257611361610fbe565b5b600061137087828801611052565b945050602085013567ffffffffffffffff81111561139157611390610fc3565b5b61139d8782880161131a565b935050604085013567ffffffffffffffff8111156113be576113bd610fc3565b5b6113ca8782880161131a565b92505060606113db878288016111c5565b91505092959194509250565b6000819050919050565b600061140c61140761140284611125565b6113e7565b611125565b9050919050565b600061141e826113f1565b9050919050565b600061143082611413565b9050919050565b61144081611425565b82525050565b600060208201905061145b6000830184611437565b92915050565b61146a816110f1565b811461147557600080fd5b50565b60008151905061148781611461565b92915050565b6000602082840312156114a3576114a2610fbe565b5b60006114b184828501611478565b91505092915050565b600082825260208201905092915050565b7f4f776e61626c653a206e6577206f776e657220697320746865207a65726f206160008201527f6464726573730000000000000000000000000000000000000000000000000000602082015250565b60006115276026836114ba565b9150611532826114cb565b604082019050919050565b600060208201905081810360008301526115568161151a565b9050919050565b600081519050919050565b7f4e487b7100000000000000000000000000000000000000000000000000000000600052602260045260246000fd5b600060028204905060018216806115af57607f821691505b6020821081036115c2576115c1611568565b5b50919050565b60008190508160005260206000209050919050565b60006020601f8301049050919050565b600082821b905092915050565b60006008830261162a7fffffffffffffffffffffffffffffffffffffffffffffffffffffffffffffffff826115ed565b61163486836115ed565b95508019841693508086168417925050509392505050565b600061166761166261165d846110f1565b6113e7565b6110f1565b9050919050565b6000819050919050565b6116818361164c565b61169561168d8261166e565b8484546115fa565b825550505050565b600090565b6116aa61169d565b6116b5818484611678565b505050565b5b818110156116d9576116ce6000826116a2565b6001810190506116bb565b5050565b601f82111561171e576116ef816115c8565b6116f8846115dd565b81016020851015611707578190505b61171b611713856115dd565b8301826116ba565b50505b505050565b600082821c905092915050565b600061174160001984600802611723565b1980831691505092915050565b600061175a8383611730565b9150826002028217905092915050565b6117738261155d565b67ffffffffffffffff81111561178c5761178b61121d565b5b6117968254611597565b6117a18282856116dd565b600060209050601f8311600181146117d457600084156117c2578287015190505b6117cc858261174e565b865550611834565b601f1984166117e2866115c8565b60005b8281101561180a578489015182556001820191506020850194506020810190506117e5565b868310156118275784890151611823601f891682611730565b8355505b6001600288020188555050505b505050505050565b60005b8381101561185a57808201518184015260208101905061183f565b60008484015250505050565b60006118718261155d565b61187b81856114ba565b935061188b81856020860161183c565b6118948161120c565b840191505092915050565b600060608201905081810360008301526118b98186611866565b905081810360208301526118cd8185611866565b90506118dc6040830184611157565b949350505050565b7f4f776e61626c653a2063616c6c6572206973206e6f7420746865206f776e6572600082015250565b600061191a6020836114ba565b9150611925826118e4565b602082019050919050565b600060208201905081810360008301526119498161190d565b9050919050565b6000606082019050818103600083015261196a8186611866565b905061197960208301856110fb565b6119866040830184611157565b949350505050565b7f4e487b7100000000000000000000000000000000000000000000000000000000600052603260045260246000fd5b7f4e487b7100000000000000000000000000000000000000000000000000000000600052601160045260246000fd5b60006119f78261102d565b915061ffff8203611a0b57611a0a6119bd565b5b60018201905091905056fea26469706673582212201a700200df63fe08324842b1ea284575b8ec4eacc0317a014bd4411d90ec1e1864736f6c63430008110033",
  "immutableReferences": {},
  "source": "// SPDX-License-Identifier: MIT\npragma solidity >=0.4.22 <0.9.0;\n\nimport \"../../node_modules/@openzeppelin/contracts/access/Ownable.sol\";\nimport \"../interfaces/IIntegration.sol\";\n\ncontract TopYieldSwap is Ownable {\n\n    uint16 private chainId;\n    address private tokenAddr;\n    uint16 private activePool;\n\n    struct YieldPool {\n        uint16 id;\n        string project;\n        string token;\n        address addr;\n        uint16 currentYield;\n    }\n\n    event YieldPoolAdded(string _project, string _token, address _addr);\n    event YieldPoolRemoved(uint16 _id);\n\n    event EnterPool(uint16 _poolId, uint256 _amount, uint256 _balance);\n    event ExitPool(uint16 _poolId, uint256 _amount);\n\n    mapping (uint16 => YieldPool) private yieldPools;\n    mapping (uint16 => IIntegration) private integrations;\n\n    constructor(uint16 _chainId, address _tokenAddr) {\n        chainId = _chainId;\n        tokenAddr = _tokenAddr;\n        activePool = 0x0;\n    }\n\n    /**\n     * @dev rebalance will exclusively: do nothing, exit current pool, or enter top pool \n     */\n    function rebalance(uint16[] calldata _poolIds, uint16 _length) public onlyOwner returns(uint16 _yield) {\n        uint256 tokenBalance = getTokenBalance();\n        if (shouldSwap(_poolIds, _length) && tokenBalance > 0) {\n            exitCurrentPool();\n            return 0x0;\n        } else if (shouldSwap(_poolIds, _length) && tokenBalance == 0) {\n            enterPool(selectPool(_poolIds, _length));\n            return yieldPools[activePool].currentYield;\n        }\n    }\n\n    function getTokenBalance() public view returns (uint256 tokenBalance) {\n        return IERC20(tokenAddr).balanceOf(address(this));\n    }\n\n    function enterPool(YieldPool memory _yieldPool) internal {\n        IIntegration integration = IIntegration(_yieldPool.addr);\n        integration.addLiquidity(_yieldPool.token, address(this).balance, address(this));\n        activePool = _yieldPool.id;\n    }\n\n    function exitCurrentPool() internal {\n        YieldPool memory currentPool = yieldPools[activePool];\n        IIntegration integration = IIntegration(yieldPools[activePool].addr);\n        uint256 balance = IERC20(currentPool.addr).balanceOf(address(this));\n        integration.removeLiquidity(currentPool.token, balance, address(this));\n        activePool = 0x0;\n    }\n\n    function shouldSwap(uint16[] calldata _poolIds, uint16 _length) internal view returns(bool _bool) {\n        YieldPool memory topPool = selectPool(_poolIds, _length);\n        if (topPool.id == activePool) {\n            return false;\n        }\n        return true;\n    }\n\n    function selectPool(uint16[] calldata _poolIds, uint16 _length) internal view returns (YieldPool memory yieldPool) {\n        uint16 _topYield = 0x0;\n        uint16 _poolId = 0;\n        for (uint16 i = 0; i < _length; i++) {\n            if (yieldPools[_poolIds[i]].currentYield >= _topYield) {\n                _topYield = yieldPools[_poolIds[i]].currentYield;\n                _poolId = i;\n            }\n        }\n        return yieldPools[_poolId];\n    }\n\n    function addYieldPool(\n        uint16 id,\n        string memory _project,\n        string memory _token,\n        address _addr\n    ) public onlyOwner returns(IIntegration integration) {\n        yieldPools[id] = YieldPool(id, _project, _token, _addr, 0x0);\n        integrations[id] = IIntegration(_addr);\n        emit YieldPoolAdded(_project, _token, _addr);\n        return integrations[id];\n    }\n\n    function removeYieldPool(\n        uint16 _id\n    ) public onlyOwner {\n        delete yieldPools[_id];\n        delete integrations[_id];\n        emit YieldPoolRemoved(_id);\n    }\n\n}\n",
  "sourcePath": "/Users/irasigman/code/agoras/bandit-protocol/contracts/instruments/TopYieldSwap.sol",
  "compiler": {
    "name": "solc",
    "version": "0.8.17+commit.8df45f5f.Emscripten.clang"
  },
  "schemaVersion": "3.4.11",
  "updatedAt": "2022-12-09T04:23:07.760Z",
  "devdoc": {
    "kind": "dev",
    "methods": {
      "owner()": {
        "details": "Returns the address of the current owner."
      },
      "rebalance(uint16[],uint16)": {
        "details": "rebalance will exclusively: do nothing, exit current pool, or enter top pool "
      },
      "renounceOwnership()": {
        "details": "Leaves the contract without owner. It will not be possible to call `onlyOwner` functions anymore. Can only be called by the current owner. NOTE: Renouncing ownership will leave the contract without an owner, thereby removing any functionality that is only available to the owner."
      },
      "transferOwnership(address)": {
        "details": "Transfers ownership of the contract to a new account (`newOwner`). Can only be called by the current owner."
      }
    },
    "version": 1
  },
  "userdoc": {
    "kind": "user",
    "methods": {},
    "version": 1
  }
}