{
  "contractName": "TopYieldSwap",
  "abi": [
    {
      "inputs": [
        {
          "internalType": "uint16",
          "name": "_chainId",
          "type": "uint16"
        },
        {
          "internalType": "address",
          "name": "_tokenAddr",
          "type": "address"
        }
      ],
      "stateMutability": "nonpayable",
      "type": "constructor"
    },
    {
      "anonymous": false,
      "inputs": [
        {
          "indexed": false,
          "internalType": "uint16",
          "name": "_poolId",
          "type": "uint16"
        },
        {
          "indexed": false,
          "internalType": "uint256",
          "name": "_amount",
          "type": "uint256"
        },
        {
          "indexed": false,
          "internalType": "uint256",
          "name": "_balance",
          "type": "uint256"
        }
      ],
      "name": "EnterPool",
      "type": "event"
    },
    {
      "anonymous": false,
      "inputs": [
        {
          "indexed": false,
          "internalType": "uint16",
          "name": "_poolId",
          "type": "uint16"
        },
        {
          "indexed": false,
          "internalType": "uint256",
          "name": "_amount",
          "type": "uint256"
        }
      ],
      "name": "ExitPool",
      "type": "event"
    },
    {
      "anonymous": false,
      "inputs": [
        {
          "indexed": true,
          "internalType": "address",
          "name": "previousOwner",
          "type": "address"
        },
        {
          "indexed": true,
          "internalType": "address",
          "name": "newOwner",
          "type": "address"
        }
      ],
      "name": "OwnershipTransferred",
      "type": "event"
    },
    {
      "anonymous": false,
      "inputs": [
        {
          "indexed": false,
          "internalType": "string",
          "name": "_project",
          "type": "string"
        },
        {
          "indexed": false,
          "internalType": "string",
          "name": "_token",
          "type": "string"
        },
        {
          "indexed": false,
          "internalType": "address",
          "name": "_addr",
          "type": "address"
        }
      ],
      "name": "YieldPoolAdded",
      "type": "event"
    },
    {
      "anonymous": false,
      "inputs": [
        {
          "indexed": false,
          "internalType": "uint16",
          "name": "_id",
          "type": "uint16"
        }
      ],
      "name": "YieldPoolRemoved",
      "type": "event"
    },
    {
      "inputs": [],
      "name": "owner",
      "outputs": [
        {
          "internalType": "address",
          "name": "",
          "type": "address"
        }
      ],
      "stateMutability": "view",
      "type": "function",
      "constant": true
    },
    {
      "inputs": [],
      "name": "renounceOwnership",
      "outputs": [],
      "stateMutability": "nonpayable",
      "type": "function"
    },
    {
      "inputs": [
        {
          "internalType": "address",
          "name": "newOwner",
          "type": "address"
        }
      ],
      "name": "transferOwnership",
      "outputs": [],
      "stateMutability": "nonpayable",
      "type": "function"
    },
    {
      "inputs": [
        {
          "internalType": "uint16[]",
          "name": "_poolIds",
          "type": "uint16[]"
        },
        {
          "internalType": "uint16",
          "name": "_length",
          "type": "uint16"
        }
      ],
      "name": "rebalance",
      "outputs": [
        {
          "internalType": "uint16",
          "name": "_yield",
          "type": "uint16"
        }
      ],
      "stateMutability": "nonpayable",
      "type": "function"
    },
    {
      "inputs": [],
      "name": "getCurrentYield",
      "outputs": [
        {
          "internalType": "uint16",
          "name": "_apy",
          "type": "uint16"
        }
      ],
      "stateMutability": "view",
      "type": "function",
      "constant": true
    },
    {
      "inputs": [
        {
          "internalType": "address",
          "name": "spender",
          "type": "address"
        },
        {
          "internalType": "uint256",
          "name": "_amount",
          "type": "uint256"
        }
      ],
      "name": "approve",
      "outputs": [],
      "stateMutability": "nonpayable",
      "type": "function"
    },
    {
      "inputs": [
        {
          "internalType": "uint256",
          "name": "_amount",
          "type": "uint256"
        }
      ],
      "name": "deposit",
      "outputs": [],
      "stateMutability": "payable",
      "type": "function",
      "payable": true
    },
    {
      "inputs": [
        {
          "internalType": "uint256",
          "name": "_amount",
          "type": "uint256"
        }
      ],
      "name": "withdrawl",
      "outputs": [],
      "stateMutability": "nonpayable",
      "type": "function"
    },
    {
      "inputs": [],
      "name": "getTokenBalance",
      "outputs": [
        {
          "internalType": "uint256",
          "name": "tokenBalance",
          "type": "uint256"
        }
      ],
      "stateMutability": "view",
      "type": "function",
      "constant": true
    },
    {
      "inputs": [
        {
          "internalType": "uint16",
          "name": "id",
          "type": "uint16"
        },
        {
          "internalType": "string",
          "name": "_project",
          "type": "string"
        },
        {
          "internalType": "string",
          "name": "_token",
          "type": "string"
        },
        {
          "internalType": "address",
          "name": "_addr",
          "type": "address"
        }
      ],
      "name": "addYieldPool",
      "outputs": [
        {
          "internalType": "contract IIntegration",
          "name": "integration",
          "type": "address"
        }
      ],
      "stateMutability": "nonpayable",
      "type": "function"
    },
    {
      "inputs": [
        {
          "internalType": "uint16",
          "name": "_id",
          "type": "uint16"
        }
      ],
      "name": "removeYieldPool",
      "outputs": [],
      "stateMutability": "nonpayable",
      "type": "function"
    }
  ],
  "bytecode": "0x60806040523480156200001157600080fd5b506040516200238138038062002381833981810160405281019062000037919062000250565b620000576200004b620000db60201b60201c565b620000e360201b60201c565b81600060146101000a81548161ffff021916908361ffff16021790555080600160006101000a81548173ffffffffffffffffffffffffffffffffffffffff021916908373ffffffffffffffffffffffffffffffffffffffff1602179055506000600160146101000a81548161ffff021916908361ffff160217905550505062000297565b600033905090565b60008060009054906101000a900473ffffffffffffffffffffffffffffffffffffffff169050816000806101000a81548173ffffffffffffffffffffffffffffffffffffffff021916908373ffffffffffffffffffffffffffffffffffffffff1602179055508173ffffffffffffffffffffffffffffffffffffffff168173ffffffffffffffffffffffffffffffffffffffff167f8be0079c531659141344cd1fd0a4f28419497f9722a3daafe3b4186f6b6457e060405160405180910390a35050565b600080fd5b600061ffff82169050919050565b620001c581620001ac565b8114620001d157600080fd5b50565b600081519050620001e581620001ba565b92915050565b600073ffffffffffffffffffffffffffffffffffffffff82169050919050565b60006200021882620001eb565b9050919050565b6200022a816200020b565b81146200023657600080fd5b50565b6000815190506200024a816200021f565b92915050565b600080604083850312156200026a5762000269620001a7565b5b60006200027a85828601620001d4565b92505060206200028d8582860162000239565b9150509250929050565b6120da80620002a76000396000f3fe60806040526004361061009c5760003560e01c8063b6b55f2511610064578063b6b55f2514610174578063b91503a614610190578063e430e53a146101bb578063e4480dd8146101e4578063f2fde38b1461020d578063fcb8c9a6146102365761009c565b8063095ea7b3146100a15780633acc5696146100ca578063715018a61461010757806382b2e2571461011e5780638da5cb5b14610149575b600080fd5b3480156100ad57600080fd5b506100c860048036038101906100c39190611511565b610273565b005b3480156100d657600080fd5b506100f160048036038101906100ec91906115f0565b61038f565b6040516100fe919061165f565b60405180910390f35b34801561011357600080fd5b5061011c610450565b005b34801561012a57600080fd5b50610133610464565b6040516101409190611689565b60405180910390f35b34801561015557600080fd5b5061015e610507565b60405161016b91906116b3565b60405180910390f35b61018e600480360381019061018991906116ce565b610530565b005b34801561019c57600080fd5b506101a561064d565b6040516101b2919061165f565b60405180910390f35b3480156101c757600080fd5b506101e260048036038101906101dd91906116fb565b610691565b005b3480156101f057600080fd5b5061020b600480360381019061020691906116ce565b6107a0565b005b34801561021957600080fd5b50610234600480360381019061022f9190611728565b6108c5565b005b34801561024257600080fd5b5061025d60048036038101906102589190611896565b610948565b60405161026a9190611994565b60405180910390f35b80600081116102b7576040517f08c379a00000000000000000000000000000000000000000000000000000000081526004016102ae90611a32565b60405180910390fd5b600060026000600160149054906101000a900461ffff1661ffff1661ffff16815260200190815260200160002060030160009054906101000a900473ffffffffffffffffffffffffffffffffffffffff1690508073ffffffffffffffffffffffffffffffffffffffff1663095ea7b385856040518363ffffffff1660e01b8152600401610345929190611a52565b6020604051808303816000875af1158015610364573d6000803e3d6000fd5b505050506040513d601f19601f820116820180604052508101906103889190611ab3565b5050505050565b6000610399610b4a565b60006103a3610464565b90506103b0858585610bc8565b80156103bc5750600081115b156103d3576103c9610c12565b6000915050610449565b6103de858585610bc8565b80156103ea5750600081145b15610447576104026103fd868686610f71565b611252565b60026000600160149054906101000a900461ffff1661ffff1661ffff16815260200190815260200160002060030160149054906101000a900461ffff16915050610449565b505b9392505050565b610458610b4a565b61046260006112f3565b565b6000600160009054906101000a900473ffffffffffffffffffffffffffffffffffffffff1673ffffffffffffffffffffffffffffffffffffffff166370a08231306040518263ffffffff1660e01b81526004016104c191906116b3565b602060405180830381865afa1580156104de573d6000803e3d6000fd5b505050506040513d601f19601f820116820180604052508101906105029190611af5565b905090565b60008060009054906101000a900473ffffffffffffffffffffffffffffffffffffffff16905090565b8060008111610574576040517f08c379a000000000000000000000000000000000000000000000000000000000815260040161056b90611a32565b60405180910390fd5b600060026000600160149054906101000a900461ffff1661ffff1661ffff16815260200190815260200160002060030160009054906101000a900473ffffffffffffffffffffffffffffffffffffffff1690508073ffffffffffffffffffffffffffffffffffffffff166323b872dd3330866040518463ffffffff1660e01b815260040161060493929190611b22565b6020604051808303816000875af1158015610623573d6000803e3d6000fd5b505050506040513d601f19601f820116820180604052508101906106479190611ab3565b50505050565b600060026000600160149054906101000a900461ffff1661ffff1661ffff16815260200190815260200160002060030160149054906101000a900461ffff16905090565b610699610b4a565b600260008261ffff1661ffff168152602001908152602001600020600080820160006101000a81549061ffff02191690556001820160006106da91906113bf565b6002820160006106ea91906113bf565b6003820160006101000a81549073ffffffffffffffffffffffffffffffffffffffff02191690556003820160146101000a81549061ffff02191690555050600360008261ffff1661ffff16815260200190815260200160002060006101000a81549073ffffffffffffffffffffffffffffffffffffffff02191690557f1b2a4599ca8376db030733f91aee33d618c2c4bf06bdee6f9513c121ece0ff1e81604051610795919061165f565b60405180910390a150565b6107a8610b4a565b80600081116107ec576040517f08c379a00000000000000000000000000000000000000000000000000000000081526004016107e390611a32565b60405180910390fd5b600060026000600160149054906101000a900461ffff1661ffff1661ffff16815260200190815260200160002060030160009054906101000a900473ffffffffffffffffffffffffffffffffffffffff1690508073ffffffffffffffffffffffffffffffffffffffff166323b872dd3033866040518463ffffffff1660e01b815260040161087c93929190611b22565b6020604051808303816000875af115801561089b573d6000803e3d6000fd5b505050506040513d601f19601f820116820180604052508101906108bf9190611ab3565b50505050565b6108cd610b4a565b600073ffffffffffffffffffffffffffffffffffffffff168173ffffffffffffffffffffffffffffffffffffffff160361093c576040517f08c379a000000000000000000000000000000000000000000000000000000000815260040161093390611bcb565b60405180910390fd5b610945816112f3565b50565b6000610952610b4a565b6040518060a001604052808661ffff1681526020018581526020018481526020018373ffffffffffffffffffffffffffffffffffffffff168152602001600061ffff16815250600260008761ffff1661ffff16815260200190815260200160002060008201518160000160006101000a81548161ffff021916908361ffff16021790555060208201518160010190816109eb9190611df8565b506040820151816002019081610a019190611df8565b5060608201518160030160006101000a81548173ffffffffffffffffffffffffffffffffffffffff021916908373ffffffffffffffffffffffffffffffffffffffff16021790555060808201518160030160146101000a81548161ffff021916908361ffff16021790555090505081600360008761ffff1661ffff16815260200190815260200160002060006101000a81548173ffffffffffffffffffffffffffffffffffffffff021916908373ffffffffffffffffffffffffffffffffffffffff1602179055507fed71e55bd13a81ef77c16d1341638615a55bbe7198dd92ac1ea4221ab71ad7d1848484604051610afc93929190611f2d565b60405180910390a1600360008661ffff1661ffff16815260200190815260200160002060009054906101000a900473ffffffffffffffffffffffffffffffffffffffff169050949350505050565b610b526113b7565b73ffffffffffffffffffffffffffffffffffffffff16610b70610507565b73ffffffffffffffffffffffffffffffffffffffff1614610bc6576040517f08c379a0000000000000000000000000000000000000000000000000000000008152600401610bbd90611fbe565b60405180910390fd5b565b600080610bd6858585610f71565b9050600160149054906101000a900461ffff1661ffff16816000015161ffff1603610c05576000915050610c0b565b60019150505b9392505050565b600060026000600160149054906101000a900461ffff1661ffff1661ffff1681526020019081526020016000206040518060a00160405290816000820160009054906101000a900461ffff1661ffff1661ffff168152602001600182018054610c7a90611c25565b80601f0160208091040260200160405190810160405280929190818152602001828054610ca690611c25565b8015610cf35780601f10610cc857610100808354040283529160200191610cf3565b820191906000526020600020905b815481529060010190602001808311610cd657829003601f168201915b50505050508152602001600282018054610d0c90611c25565b80601f0160208091040260200160405190810160405280929190818152602001828054610d3890611c25565b8015610d855780601f10610d5a57610100808354040283529160200191610d85565b820191906000526020600020905b815481529060010190602001808311610d6857829003601f168201915b505050505081526020016003820160009054906101000a900473ffffffffffffffffffffffffffffffffffffffff1673ffffffffffffffffffffffffffffffffffffffff1673ffffffffffffffffffffffffffffffffffffffff1681526020016003820160149054906101000a900461ffff1661ffff1661ffff16815250509050600060026000600160149054906101000a900461ffff1661ffff1661ffff16815260200190815260200160002060030160009054906101000a900473ffffffffffffffffffffffffffffffffffffffff1690506000826060015173ffffffffffffffffffffffffffffffffffffffff166370a08231306040518263ffffffff1660e01b8152600401610e9891906116b3565b602060405180830381865afa158015610eb5573d6000803e3d6000fd5b505050506040513d601f19601f82011682018060405250810190610ed99190611af5565b90508173ffffffffffffffffffffffffffffffffffffffff1663a7082de5846040015183306040518463ffffffff1660e01b8152600401610f1c93929190611fde565b600060405180830381600087803b158015610f3657600080fd5b505af1158015610f4a573d6000803e3d6000fd5b505050506000600160146101000a81548161ffff021916908361ffff160217905550505050565b610f796113ff565b60008060005b8461ffff168161ffff161015611066578261ffff166002600089898561ffff16818110610faf57610fae61201c565b5b9050602002016020810190610fc491906116fb565b61ffff1661ffff16815260200190815260200160002060030160149054906101000a900461ffff1661ffff1610611053576002600088888461ffff168181106110105761100f61201c565b5b905060200201602081019061102591906116fb565b61ffff1661ffff16815260200190815260200160002060030160149054906101000a900461ffff1692508091505b808061105e9061207a565b915050610f7f565b50600260008261ffff1661ffff1681526020019081526020016000206040518060a00160405290816000820160009054906101000a900461ffff1661ffff1661ffff1681526020016001820180546110bd90611c25565b80601f01602080910402602001604051908101604052809291908181526020018280546110e990611c25565b80156111365780601f1061110b57610100808354040283529160200191611136565b820191906000526020600020905b81548152906001019060200180831161111957829003601f168201915b5050505050815260200160028201805461114f90611c25565b80601f016020809104026020016040519081016040528092919081815260200182805461117b90611c25565b80156111c85780601f1061119d576101008083540402835291602001916111c8565b820191906000526020600020905b8154815290600101906020018083116111ab57829003601f168201915b505050505081526020016003820160009054906101000a900473ffffffffffffffffffffffffffffffffffffffff1673ffffffffffffffffffffffffffffffffffffffff1673ffffffffffffffffffffffffffffffffffffffff1681526020016003820160149054906101000a900461ffff1661ffff1661ffff1681525050925050509392505050565b6000816060015190508073ffffffffffffffffffffffffffffffffffffffff1663e502021f836040015147306040518463ffffffff1660e01b815260040161129c93929190611fde565b600060405180830381600087803b1580156112b657600080fd5b505af11580156112ca573d6000803e3d6000fd5b505050508160000151600160146101000a81548161ffff021916908361ffff1602179055505050565b60008060009054906101000a900473ffffffffffffffffffffffffffffffffffffffff169050816000806101000a81548173ffffffffffffffffffffffffffffffffffffffff021916908373ffffffffffffffffffffffffffffffffffffffff1602179055508173ffffffffffffffffffffffffffffffffffffffff168173ffffffffffffffffffffffffffffffffffffffff167f8be0079c531659141344cd1fd0a4f28419497f9722a3daafe3b4186f6b6457e060405160405180910390a35050565b600033905090565b5080546113cb90611c25565b6000825580601f106113dd57506113fc565b601f0160209004906000526020600020908101906113fb919061144c565b5b50565b6040518060a00160405280600061ffff1681526020016060815260200160608152602001600073ffffffffffffffffffffffffffffffffffffffff168152602001600061ffff1681525090565b5b8082111561146557600081600090555060010161144d565b5090565b6000604051905090565b600080fd5b600080fd5b600073ffffffffffffffffffffffffffffffffffffffff82169050919050565b60006114a88261147d565b9050919050565b6114b88161149d565b81146114c357600080fd5b50565b6000813590506114d5816114af565b92915050565b6000819050919050565b6114ee816114db565b81146114f957600080fd5b50565b60008135905061150b816114e5565b92915050565b6000806040838503121561152857611527611473565b5b6000611536858286016114c6565b9250506020611547858286016114fc565b9150509250929050565b600080fd5b600080fd5b600080fd5b60008083601f84011261157657611575611551565b5b8235905067ffffffffffffffff81111561159357611592611556565b5b6020830191508360208202830111156115af576115ae61155b565b5b9250929050565b600061ffff82169050919050565b6115cd816115b6565b81146115d857600080fd5b50565b6000813590506115ea816115c4565b92915050565b60008060006040848603121561160957611608611473565b5b600084013567ffffffffffffffff81111561162757611626611478565b5b61163386828701611560565b93509350506020611646868287016115db565b9150509250925092565b611659816115b6565b82525050565b60006020820190506116746000830184611650565b92915050565b611683816114db565b82525050565b600060208201905061169e600083018461167a565b92915050565b6116ad8161149d565b82525050565b60006020820190506116c860008301846116a4565b92915050565b6000602082840312156116e4576116e3611473565b5b60006116f2848285016114fc565b91505092915050565b60006020828403121561171157611710611473565b5b600061171f848285016115db565b91505092915050565b60006020828403121561173e5761173d611473565b5b600061174c848285016114c6565b91505092915050565b600080fd5b6000601f19601f8301169050919050565b7f4e487b7100000000000000000000000000000000000000000000000000000000600052604160045260246000fd5b6117a38261175a565b810181811067ffffffffffffffff821117156117c2576117c161176b565b5b80604052505050565b60006117d5611469565b90506117e1828261179a565b919050565b600067ffffffffffffffff8211156118015761180061176b565b5b61180a8261175a565b9050602081019050919050565b82818337600083830152505050565b6000611839611834846117e6565b6117cb565b90508281526020810184848401111561185557611854611755565b5b611860848285611817565b509392505050565b600082601f83011261187d5761187c611551565b5b813561188d848260208601611826565b91505092915050565b600080600080608085870312156118b0576118af611473565b5b60006118be878288016115db565b945050602085013567ffffffffffffffff8111156118df576118de611478565b5b6118eb87828801611868565b935050604085013567ffffffffffffffff81111561190c5761190b611478565b5b61191887828801611868565b9250506060611929878288016114c6565b91505092959194509250565b6000819050919050565b600061195a6119556119508461147d565b611935565b61147d565b9050919050565b600061196c8261193f565b9050919050565b600061197e82611961565b9050919050565b61198e81611973565b82525050565b60006020820190506119a96000830184611985565b92915050565b600082825260208201905092915050565b7f416d6f756e742073686f756c642062652067726561746572207468616e207a6560008201527f726f2e0000000000000000000000000000000000000000000000000000000000602082015250565b6000611a1c6023836119af565b9150611a27826119c0565b604082019050919050565b60006020820190508181036000830152611a4b81611a0f565b9050919050565b6000604082019050611a6760008301856116a4565b611a74602083018461167a565b9392505050565b60008115159050919050565b611a9081611a7b565b8114611a9b57600080fd5b50565b600081519050611aad81611a87565b92915050565b600060208284031215611ac957611ac8611473565b5b6000611ad784828501611a9e565b91505092915050565b600081519050611aef816114e5565b92915050565b600060208284031215611b0b57611b0a611473565b5b6000611b1984828501611ae0565b91505092915050565b6000606082019050611b3760008301866116a4565b611b4460208301856116a4565b611b51604083018461167a565b949350505050565b7f4f776e61626c653a206e6577206f776e657220697320746865207a65726f206160008201527f6464726573730000000000000000000000000000000000000000000000000000602082015250565b6000611bb56026836119af565b9150611bc082611b59565b604082019050919050565b60006020820190508181036000830152611be481611ba8565b9050919050565b600081519050919050565b7f4e487b7100000000000000000000000000000000000000000000000000000000600052602260045260246000fd5b60006002820490506001821680611c3d57607f821691505b602082108103611c5057611c4f611bf6565b5b50919050565b60008190508160005260206000209050919050565b60006020601f8301049050919050565b600082821b905092915050565b600060088302611cb87fffffffffffffffffffffffffffffffffffffffffffffffffffffffffffffffff82611c7b565b611cc28683611c7b565b95508019841693508086168417925050509392505050565b6000611cf5611cf0611ceb846114db565b611935565b6114db565b9050919050565b6000819050919050565b611d0f83611cda565b611d23611d1b82611cfc565b848454611c88565b825550505050565b600090565b611d38611d2b565b611d43818484611d06565b505050565b5b81811015611d6757611d5c600082611d30565b600181019050611d49565b5050565b601f821115611dac57611d7d81611c56565b611d8684611c6b565b81016020851015611d95578190505b611da9611da185611c6b565b830182611d48565b50505b505050565b600082821c905092915050565b6000611dcf60001984600802611db1565b1980831691505092915050565b6000611de88383611dbe565b9150826002028217905092915050565b611e0182611beb565b67ffffffffffffffff811115611e1a57611e1961176b565b5b611e248254611c25565b611e2f828285611d6b565b600060209050601f831160018114611e625760008415611e50578287015190505b611e5a8582611ddc565b865550611ec2565b601f198416611e7086611c56565b60005b82811015611e9857848901518255600182019150602085019450602081019050611e73565b86831015611eb55784890151611eb1601f891682611dbe565b8355505b6001600288020188555050505b505050505050565b60005b83811015611ee8578082015181840152602081019050611ecd565b60008484015250505050565b6000611eff82611beb565b611f0981856119af565b9350611f19818560208601611eca565b611f228161175a565b840191505092915050565b60006060820190508181036000830152611f478186611ef4565b90508181036020830152611f5b8185611ef4565b9050611f6a60408301846116a4565b949350505050565b7f4f776e61626c653a2063616c6c6572206973206e6f7420746865206f776e6572600082015250565b6000611fa86020836119af565b9150611fb382611f72565b602082019050919050565b60006020820190508181036000830152611fd781611f9b565b9050919050565b60006060820190508181036000830152611ff88186611ef4565b9050612007602083018561167a565b61201460408301846116a4565b949350505050565b7f4e487b7100000000000000000000000000000000000000000000000000000000600052603260045260246000fd5b7f4e487b7100000000000000000000000000000000000000000000000000000000600052601160045260246000fd5b6000612085826115b6565b915061ffff82036120995761209861204b565b5b60018201905091905056fea26469706673582212200fb70a2249c9d33d89544c66c1a486c382c211a1adfe98be7279e3ef97ee051864736f6c63430008110033",
  "immutableReferences": {},
  "source": "// SPDX-License-Identifier: MIT\npragma solidity >=0.4.22 <0.9.0;\n\nimport \"../../node_modules/@openzeppelin/contracts/access/Ownable.sol\";\nimport \"../interfaces/IIntegration.sol\";\n\ncontract TopYieldSwap is Ownable {\n\n    uint16 private chainId;\n    address private tokenAddr;\n    uint16 private activePool;\n\n    struct YieldPool {\n        uint16 id;              // unique pool id\n        string project;         // project name\n        string token;           // ERC20 name\n        address addr;           // pool address\n        uint16 currentYield;    // pool yield\n    }\n\n    event YieldPoolAdded(string _project, string _token, address _addr);\n    event YieldPoolRemoved(uint16 _id);\n\n    event EnterPool(uint16 _poolId, uint256 _amount, uint256 _balance);\n    event ExitPool(uint16 _poolId, uint256 _amount);\n\n    mapping (uint16 => YieldPool) private yieldPools;\n    mapping (uint16 => IIntegration) private integrations;\n\n    constructor(uint16 _chainId, address _tokenAddr) {\n        chainId = _chainId;\n        tokenAddr = _tokenAddr;\n        activePool = 0x0;\n    }\n\n    /**\n     * @dev rebalance will exclusively: do nothing, exit current pool, or enter top pool\n     * should therefore be called again if exit current pool was the performed action.\n     */\n    function rebalance(uint16[] calldata _poolIds, uint16 _length) public onlyOwner returns(uint16 _yield) {\n        uint256 tokenBalance = getTokenBalance();\n        if (shouldSwap(_poolIds, _length) && tokenBalance > 0) {\n            exitCurrentPool();\n            return 0x0;\n        } else if (shouldSwap(_poolIds, _length) && tokenBalance == 0) {\n            enterPool(selectPool(_poolIds, _length));\n            return yieldPools[activePool].currentYield;\n        }\n    }\n\n    function getCurrentYield() public view returns (uint16 _apy) {\n        return yieldPools[activePool].currentYield;\n    }\n\n    function approve(address spender, uint256 _amount) public gtZero(_amount) {\n        IERC20 tokenContract = IERC20(yieldPools[activePool].addr);\n        tokenContract.approve(spender, _amount);\n    }\n\n    function deposit(uint256 _amount) payable public gtZero(_amount) {\n        IERC20 tokenContract = IERC20(yieldPools[activePool].addr);\n        tokenContract.transferFrom(msg.sender, address(this), _amount);\n    }\n\n    function withdrawl(uint256 _amount) public onlyOwner gtZero(_amount) {\n        IERC20 tokenContract = IERC20(yieldPools[activePool].addr);\n        tokenContract.transferFrom(address(this), msg.sender, _amount);\n    }\n\n    function getTokenBalance() public view returns (uint256 tokenBalance) {\n        return IERC20(tokenAddr).balanceOf(address(this));\n    }\n\n    function enterPool(YieldPool memory _yieldPool) internal {\n        IIntegration integration = IIntegration(_yieldPool.addr);\n        integration.addLiquidity(_yieldPool.token, address(this).balance, address(this));\n        activePool = _yieldPool.id;\n    }\n\n    function exitCurrentPool() internal {\n        YieldPool memory currentPool = yieldPools[activePool];\n        IIntegration integration = IIntegration(yieldPools[activePool].addr);\n        uint256 balance = IERC20(currentPool.addr).balanceOf(address(this));\n        integration.removeLiquidity(currentPool.token, balance, address(this));\n        activePool = 0x0;\n    }\n\n    function shouldSwap(uint16[] calldata _poolIds, uint16 _length) internal view returns(bool _bool) {\n        YieldPool memory topPool = selectPool(_poolIds, _length);\n        if (topPool.id == activePool) {\n            return false;\n        }\n        return true;\n    }\n\n    function selectPool(uint16[] calldata _poolIds, uint16 _length) internal view returns (YieldPool memory yieldPool) {\n        uint16 _topYield = 0x0;\n        uint16 _poolId = 0;\n        for (uint16 i = 0; i < _length; i++) {\n            if (yieldPools[_poolIds[i]].currentYield >= _topYield) {\n                _topYield = yieldPools[_poolIds[i]].currentYield;\n                _poolId = i;\n            }\n        }\n        return yieldPools[_poolId];\n    }\n\n    function addYieldPool(\n        uint16 id,\n        string memory _project,\n        string memory _token,\n        address _addr\n    ) public onlyOwner returns(IIntegration integration) {\n        yieldPools[id] = YieldPool(id, _project, _token, _addr, 0x0);\n        integrations[id] = IIntegration(_addr);\n        emit YieldPoolAdded(_project, _token, _addr);\n        return integrations[id];\n    }\n\n    function removeYieldPool(\n        uint16 _id\n    ) public onlyOwner {\n        delete yieldPools[_id];\n        delete integrations[_id];\n        emit YieldPoolRemoved(_id);\n    }\n\n    modifier gtZero (uint256 _amount) {\n        require(_amount > 0, \"Amount should be greater than zero.\");\n        _;\n    }\n\n}\n",
  "sourcePath": "/Users/irasigman/code/agoras/bandit-protocol/contracts/instruments/TopYieldSwap.sol",
  "compiler": {
    "name": "solc",
    "version": "0.8.17+commit.8df45f5f.Emscripten.clang"
  },
  "schemaVersion": "3.4.10",
  "updatedAt": "2022-12-31T15:19:56.499Z",
  "networkType": "ethereum",
  "devdoc": {
    "kind": "dev",
    "methods": {
      "owner()": {
        "details": "Returns the address of the current owner."
      },
      "rebalance(uint16[],uint16)": {
        "details": "rebalance will exclusively: do nothing, exit current pool, or enter top pool should therefore be called again if exit current pool was the performed action."
      },
      "renounceOwnership()": {
        "details": "Leaves the contract without owner. It will not be possible to call `onlyOwner` functions anymore. Can only be called by the current owner. NOTE: Renouncing ownership will leave the contract without an owner, thereby removing any functionality that is only available to the owner."
      },
      "transferOwnership(address)": {
        "details": "Transfers ownership of the contract to a new account (`newOwner`). Can only be called by the current owner."
      }
    },
    "version": 1
  },
  "userdoc": {
    "kind": "user",
    "methods": {},
    "version": 1
  }
}