{
  "contractName": "TopYieldSwap",
  "abi": [
    {
      "inputs": [
        {
          "internalType": "uint16",
          "name": "_chainId",
          "type": "uint16"
        },
        {
          "internalType": "address",
          "name": "_tokenAddr",
          "type": "address"
        }
      ],
      "stateMutability": "nonpayable",
      "type": "constructor"
    },
    {
      "anonymous": false,
      "inputs": [
        {
          "indexed": false,
          "internalType": "uint16",
          "name": "_poolId",
          "type": "uint16"
        },
        {
          "indexed": false,
          "internalType": "uint256",
          "name": "_amount",
          "type": "uint256"
        },
        {
          "indexed": false,
          "internalType": "uint256",
          "name": "_balance",
          "type": "uint256"
        }
      ],
      "name": "EnterPool",
      "type": "event"
    },
    {
      "anonymous": false,
      "inputs": [
        {
          "indexed": false,
          "internalType": "uint16",
          "name": "_poolId",
          "type": "uint16"
        },
        {
          "indexed": false,
          "internalType": "uint256",
          "name": "_amount",
          "type": "uint256"
        }
      ],
      "name": "ExitPool",
      "type": "event"
    },
    {
      "anonymous": false,
      "inputs": [
        {
          "indexed": true,
          "internalType": "address",
          "name": "previousOwner",
          "type": "address"
        },
        {
          "indexed": true,
          "internalType": "address",
          "name": "newOwner",
          "type": "address"
        }
      ],
      "name": "OwnershipTransferred",
      "type": "event"
    },
    {
      "anonymous": false,
      "inputs": [
        {
          "indexed": false,
          "internalType": "string",
          "name": "_project",
          "type": "string"
        },
        {
          "indexed": false,
          "internalType": "string",
          "name": "_token",
          "type": "string"
        },
        {
          "indexed": false,
          "internalType": "address",
          "name": "_addr",
          "type": "address"
        }
      ],
      "name": "YieldPoolAdded",
      "type": "event"
    },
    {
      "anonymous": false,
      "inputs": [
        {
          "indexed": false,
          "internalType": "uint16",
          "name": "_id",
          "type": "uint16"
        }
      ],
      "name": "YieldPoolRemoved",
      "type": "event"
    },
    {
      "anonymous": false,
      "inputs": [
        {
          "indexed": false,
          "internalType": "uint16",
          "name": "_poolId",
          "type": "uint16"
        },
        {
          "indexed": false,
          "internalType": "uint256",
          "name": "_tvl",
          "type": "uint256"
        }
      ],
      "name": "YieldPoolTvlSet",
      "type": "event"
    },
    {
      "anonymous": false,
      "inputs": [
        {
          "indexed": false,
          "internalType": "uint16",
          "name": "_poolId",
          "type": "uint16"
        },
        {
          "indexed": false,
          "internalType": "uint16",
          "name": "_newYield",
          "type": "uint16"
        }
      ],
      "name": "YieldPoolYieldSet",
      "type": "event"
    },
    {
      "inputs": [
        {
          "internalType": "address",
          "name": "",
          "type": "address"
        }
      ],
      "name": "balanceOf",
      "outputs": [
        {
          "internalType": "uint256",
          "name": "",
          "type": "uint256"
        }
      ],
      "stateMutability": "view",
      "type": "function",
      "constant": true
    },
    {
      "inputs": [
        {
          "internalType": "uint256",
          "name": "_amount",
          "type": "uint256"
        }
      ],
      "name": "deposit",
      "outputs": [],
      "stateMutability": "nonpayable",
      "type": "function"
    },
    {
      "inputs": [
        {
          "internalType": "address",
          "name": "_addr",
          "type": "address"
        }
      ],
      "name": "getBalance",
      "outputs": [
        {
          "internalType": "uint256",
          "name": "",
          "type": "uint256"
        }
      ],
      "stateMutability": "view",
      "type": "function",
      "constant": true
    },
    {
      "inputs": [],
      "name": "isCooldownActive",
      "outputs": [
        {
          "internalType": "bool",
          "name": "active",
          "type": "bool"
        }
      ],
      "stateMutability": "view",
      "type": "function",
      "constant": true
    },
    {
      "inputs": [],
      "name": "owner",
      "outputs": [
        {
          "internalType": "address",
          "name": "",
          "type": "address"
        }
      ],
      "stateMutability": "view",
      "type": "function",
      "constant": true
    },
    {
      "inputs": [],
      "name": "renounceOwnership",
      "outputs": [],
      "stateMutability": "nonpayable",
      "type": "function"
    },
    {
      "inputs": [
        {
          "internalType": "uint256",
          "name": "_seconds",
          "type": "uint256"
        }
      ],
      "name": "setCooldown",
      "outputs": [],
      "stateMutability": "nonpayable",
      "type": "function"
    },
    {
      "inputs": [],
      "name": "token",
      "outputs": [
        {
          "internalType": "contract IERC20",
          "name": "",
          "type": "address"
        }
      ],
      "stateMutability": "view",
      "type": "function",
      "constant": true
    },
    {
      "inputs": [],
      "name": "totalSupply",
      "outputs": [
        {
          "internalType": "uint256",
          "name": "",
          "type": "uint256"
        }
      ],
      "stateMutability": "view",
      "type": "function",
      "constant": true
    },
    {
      "inputs": [
        {
          "internalType": "address",
          "name": "newOwner",
          "type": "address"
        }
      ],
      "name": "transferOwnership",
      "outputs": [],
      "stateMutability": "nonpayable",
      "type": "function"
    },
    {
      "inputs": [
        {
          "internalType": "uint256",
          "name": "_shares",
          "type": "uint256"
        }
      ],
      "name": "withdraw",
      "outputs": [],
      "stateMutability": "nonpayable",
      "type": "function"
    },
    {
      "inputs": [
        {
          "internalType": "uint16[]",
          "name": "_poolIds",
          "type": "uint16[]"
        },
        {
          "internalType": "uint16",
          "name": "_length",
          "type": "uint16"
        }
      ],
      "name": "rebalance",
      "outputs": [
        {
          "internalType": "uint16",
          "name": "_yield",
          "type": "uint16"
        }
      ],
      "stateMutability": "nonpayable",
      "type": "function"
    },
    {
      "inputs": [],
      "name": "getCurrentYield",
      "outputs": [
        {
          "internalType": "uint16",
          "name": "_apy",
          "type": "uint16"
        }
      ],
      "stateMutability": "view",
      "type": "function",
      "constant": true
    },
    {
      "inputs": [
        {
          "internalType": "address",
          "name": "spender",
          "type": "address"
        },
        {
          "internalType": "uint256",
          "name": "_amount",
          "type": "uint256"
        }
      ],
      "name": "approve",
      "outputs": [],
      "stateMutability": "nonpayable",
      "type": "function"
    },
    {
      "inputs": [],
      "name": "getTokenBalance",
      "outputs": [
        {
          "internalType": "uint256",
          "name": "tokenBalance",
          "type": "uint256"
        }
      ],
      "stateMutability": "view",
      "type": "function",
      "constant": true
    },
    {
      "inputs": [],
      "name": "getDepositBalance",
      "outputs": [
        {
          "internalType": "uint256",
          "name": "depositBalance",
          "type": "uint256"
        }
      ],
      "stateMutability": "view",
      "type": "function",
      "constant": true
    },
    {
      "inputs": [],
      "name": "exitCurrentPool",
      "outputs": [],
      "stateMutability": "nonpayable",
      "type": "function"
    },
    {
      "inputs": [
        {
          "internalType": "uint16",
          "name": "_poolId",
          "type": "uint16"
        }
      ],
      "name": "stakePool",
      "outputs": [],
      "stateMutability": "nonpayable",
      "type": "function"
    },
    {
      "inputs": [
        {
          "internalType": "uint16",
          "name": "_poolId",
          "type": "uint16"
        }
      ],
      "name": "unstakePool",
      "outputs": [],
      "stateMutability": "nonpayable",
      "type": "function"
    },
    {
      "inputs": [
        {
          "internalType": "uint16[]",
          "name": "_poolIds",
          "type": "uint16[]"
        },
        {
          "internalType": "uint16",
          "name": "_length",
          "type": "uint16"
        }
      ],
      "name": "selectPool",
      "outputs": [
        {
          "components": [
            {
              "internalType": "uint16",
              "name": "id",
              "type": "uint16"
            },
            {
              "internalType": "string",
              "name": "project",
              "type": "string"
            },
            {
              "internalType": "string",
              "name": "token",
              "type": "string"
            },
            {
              "internalType": "address",
              "name": "addr",
              "type": "address"
            },
            {
              "internalType": "address",
              "name": "poolAddr",
              "type": "address"
            },
            {
              "internalType": "address",
              "name": "stakingAddr",
              "type": "address"
            },
            {
              "internalType": "uint16",
              "name": "currentYield",
              "type": "uint16"
            },
            {
              "internalType": "uint256",
              "name": "tvl",
              "type": "uint256"
            }
          ],
          "internalType": "struct TopYieldSwap.YieldPool",
          "name": "yieldPool",
          "type": "tuple"
        }
      ],
      "stateMutability": "view",
      "type": "function",
      "constant": true
    },
    {
      "inputs": [
        {
          "internalType": "uint16",
          "name": "id",
          "type": "uint16"
        },
        {
          "internalType": "string",
          "name": "_project",
          "type": "string"
        },
        {
          "internalType": "string",
          "name": "_token",
          "type": "string"
        },
        {
          "internalType": "address",
          "name": "_addr",
          "type": "address"
        },
        {
          "internalType": "address",
          "name": "_tokenAddr",
          "type": "address"
        },
        {
          "internalType": "address",
          "name": "_stakingAddr",
          "type": "address"
        }
      ],
      "name": "addYieldPool",
      "outputs": [
        {
          "internalType": "contract IIntegration",
          "name": "integration",
          "type": "address"
        }
      ],
      "stateMutability": "nonpayable",
      "type": "function"
    },
    {
      "inputs": [
        {
          "internalType": "uint16",
          "name": "_id",
          "type": "uint16"
        }
      ],
      "name": "removeYieldPool",
      "outputs": [],
      "stateMutability": "nonpayable",
      "type": "function"
    },
    {
      "inputs": [
        {
          "internalType": "uint16",
          "name": "_id",
          "type": "uint16"
        },
        {
          "internalType": "uint16",
          "name": "_yield",
          "type": "uint16"
        }
      ],
      "name": "setYieldPoolYield",
      "outputs": [],
      "stateMutability": "nonpayable",
      "type": "function"
    },
    {
      "inputs": [
        {
          "internalType": "uint16",
          "name": "_id",
          "type": "uint16"
        },
        {
          "internalType": "uint256",
          "name": "_tvl",
          "type": "uint256"
        }
      ],
      "name": "setYieldPoolTvl",
      "outputs": [],
      "stateMutability": "nonpayable",
      "type": "function"
    },
    {
      "inputs": [
        {
          "internalType": "uint16",
          "name": "_id",
          "type": "uint16"
        }
      ],
      "name": "getYieldPool",
      "outputs": [
        {
          "components": [
            {
              "internalType": "uint16",
              "name": "id",
              "type": "uint16"
            },
            {
              "internalType": "string",
              "name": "project",
              "type": "string"
            },
            {
              "internalType": "string",
              "name": "token",
              "type": "string"
            },
            {
              "internalType": "address",
              "name": "addr",
              "type": "address"
            },
            {
              "internalType": "address",
              "name": "poolAddr",
              "type": "address"
            },
            {
              "internalType": "address",
              "name": "stakingAddr",
              "type": "address"
            },
            {
              "internalType": "uint16",
              "name": "currentYield",
              "type": "uint16"
            },
            {
              "internalType": "uint256",
              "name": "tvl",
              "type": "uint256"
            }
          ],
          "internalType": "struct TopYieldSwap.YieldPool",
          "name": "yieldPool",
          "type": "tuple"
        }
      ],
      "stateMutability": "view",
      "type": "function",
      "constant": true
    },
    {
      "inputs": [
        {
          "internalType": "uint256",
          "name": "_minTvl",
          "type": "uint256"
        }
      ],
      "name": "setMinTvl",
      "outputs": [],
      "stateMutability": "nonpayable",
      "type": "function"
    }
  ],
  "bytecode": "0x60a06040523480156200001157600080fd5b5060405162003ca138038062003ca1833981810160405281019062000037919062000286565b80620000586200004c6200011160201b60201c565b6200011960201b60201c565b8073ffffffffffffffffffffffffffffffffffffffff1660808173ffffffffffffffffffffffffffffffffffffffff16815250505081600560006101000a81548161ffff021916908361ffff16021790555080600560026101000a81548173ffffffffffffffffffffffffffffffffffffffff021916908373ffffffffffffffffffffffffffffffffffffffff1602179055506000600560166101000a81548161ffff021916908361ffff1602179055505050620002cd565b600033905090565b60008060009054906101000a900473ffffffffffffffffffffffffffffffffffffffff169050816000806101000a81548173ffffffffffffffffffffffffffffffffffffffff021916908373ffffffffffffffffffffffffffffffffffffffff1602179055508173ffffffffffffffffffffffffffffffffffffffff168173ffffffffffffffffffffffffffffffffffffffff167f8be0079c531659141344cd1fd0a4f28419497f9722a3daafe3b4186f6b6457e060405160405180910390a35050565b600080fd5b600061ffff82169050919050565b620001fb81620001e2565b81146200020757600080fd5b50565b6000815190506200021b81620001f0565b92915050565b600073ffffffffffffffffffffffffffffffffffffffff82169050919050565b60006200024e8262000221565b9050919050565b620002608162000241565b81146200026c57600080fd5b50565b600081519050620002808162000255565b92915050565b60008060408385031215620002a0576200029f620001dd565b5b6000620002b0858286016200020a565b9250506020620002c3858286016200026f565b9150509250929050565b60805161399c6200030560003960008181611213015281816112ce01528181611d9a01528181611e590152612173015261399c6000f3fe608060405234801561001057600080fd5b506004361061018e5760003560e01c806360976e6f116100de578063b6b55f2511610097578063f2fde38b11610071578063f2fde38b14610447578063f8b2cb4f14610463578063fc0c546a14610493578063fe9ec384146104b15761018e565b8063b6b55f25146103f1578063b91503a61461040d578063e430e53a1461042b5761018e565b806360976e6f1461035557806370a0823114610371578063715018a6146103a15780637412fe34146103ab57806382b2e257146103b55780638da5cb5b146103d35761018e565b806318160ddd1161014b5780632e1a7d4d116101255780632e1a7d4d146102bd5780633acc5696146102d95780634a2bcb40146103095780634fc3f41a146103395761018e565b806318160ddd146102515780631c4c78431461026f57806329f9bff81461028d5761018e565b80630370bd62146101935780630497de4a146101c3578063095ea7b3146101e15780630a9831ad146101fd5780630cd1eaf3146102195780630e31cdb514610235575b600080fd5b6101ad60048036038101906101a8919061282e565b6104cd565b6040516101ba9190612a0b565b60405180910390f35b6101cb61077b565b6040516101d89190612a3c565b60405180910390f35b6101fb60048036038101906101f69190612aaf565b610aab565b005b6102176004803603810190610212919061282e565b610b9b565b005b610233600480360381019061022e9190612aef565b610e1f565b005b61024f600480360381019061024a9190612b2f565b610e9d565b005b610259610f05565b6040516102669190612a3c565b60405180910390f35b610277610f0b565b6040516102849190612b8a565b60405180910390f35b6102a760048036038101906102a29190612cda565b610f30565b6040516102b49190612dfe565b60405180910390f35b6102d760048036038101906102d29190612e19565b61120c565b005b6102f360048036038101906102ee9190612ea6565b61136f565b6040516103009190612f15565b60405180910390f35b610323600480360381019061031e9190612ea6565b611430565b6040516103309190612a0b565b60405180910390f35b610353600480360381019061034e9190612e19565b61184b565b005b61036f600480360381019061036a9190612e19565b61185d565b005b61038b60048036038101906103869190612f30565b61186f565b6040516103989190612a3c565b60405180910390f35b6103a9611887565b005b6103b361189b565b005b6103bd611cb9565b6040516103ca9190612a3c565b60405180910390f35b6103db611d5c565b6040516103e89190612f6c565b60405180910390f35b61040b60048036038101906104069190612e19565b611d85565b005b610415611efc565b6040516104229190612f15565b60405180910390f35b6104456004803603810190610440919061282e565b611f40565b005b610461600480360381019061045c9190612f30565b6120a5565b005b61047d60048036038101906104789190612f30565b612128565b60405161048a9190612a3c565b60405180910390f35b61049b612171565b6040516104a89190612fa8565b60405180910390f35b6104cb60048036038101906104c6919061282e565b612195565b005b6104d56126f4565b6104dd6123d9565b600760008361ffff1661ffff168152602001908152602001600020604051806101000160405290816000820160009054906101000a900461ffff1661ffff1661ffff16815260200160018201805461053490612ff2565b80601f016020809104026020016040519081016040528092919081815260200182805461056090612ff2565b80156105ad5780601f10610582576101008083540402835291602001916105ad565b820191906000526020600020905b81548152906001019060200180831161059057829003601f168201915b505050505081526020016002820180546105c690612ff2565b80601f01602080910402602001604051908101604052809291908181526020018280546105f290612ff2565b801561063f5780601f106106145761010080835404028352916020019161063f565b820191906000526020600020905b81548152906001019060200180831161062257829003601f168201915b505050505081526020016003820160009054906101000a900473ffffffffffffffffffffffffffffffffffffffff1673ffffffffffffffffffffffffffffffffffffffff1673ffffffffffffffffffffffffffffffffffffffff1681526020016004820160009054906101000a900473ffffffffffffffffffffffffffffffffffffffff1673ffffffffffffffffffffffffffffffffffffffff1673ffffffffffffffffffffffffffffffffffffffff1681526020016005820160009054906101000a900473ffffffffffffffffffffffffffffffffffffffff1673ffffffffffffffffffffffffffffffffffffffff1673ffffffffffffffffffffffffffffffffffffffff1681526020016005820160149054906101000a900461ffff1661ffff1661ffff1681526020016006820154815250509050919050565b60008060076000600560169054906101000a900461ffff1661ffff1661ffff168152602001908152602001600020604051806101000160405290816000820160009054906101000a900461ffff1661ffff1661ffff1681526020016001820180546107e590612ff2565b80601f016020809104026020016040519081016040528092919081815260200182805461081190612ff2565b801561085e5780601f106108335761010080835404028352916020019161085e565b820191906000526020600020905b81548152906001019060200180831161084157829003601f168201915b5050505050815260200160028201805461087790612ff2565b80601f01602080910402602001604051908101604052809291908181526020018280546108a390612ff2565b80156108f05780601f106108c5576101008083540402835291602001916108f0565b820191906000526020600020905b8154815290600101906020018083116108d357829003601f168201915b505050505081526020016003820160009054906101000a900473ffffffffffffffffffffffffffffffffffffffff1673ffffffffffffffffffffffffffffffffffffffff1673ffffffffffffffffffffffffffffffffffffffff1681526020016004820160009054906101000a900473ffffffffffffffffffffffffffffffffffffffff1673ffffffffffffffffffffffffffffffffffffffff1673ffffffffffffffffffffffffffffffffffffffff1681526020016005820160009054906101000a900473ffffffffffffffffffffffffffffffffffffffff1673ffffffffffffffffffffffffffffffffffffffff1673ffffffffffffffffffffffffffffffffffffffff1681526020016005820160149054906101000a900461ffff1661ffff1661ffff1681526020016006820154815250509050806080015173ffffffffffffffffffffffffffffffffffffffff166370a08231306040518263ffffffff1660e01b8152600401610a649190612f6c565b602060405180830381865afa158015610a81573d6000803e3d6000fd5b505050506040513d601f19601f82011682018060405250810190610aa59190613038565b91505090565b8060008111610aef576040517f08c379a0000000000000000000000000000000000000000000000000000000008152600401610ae6906130e8565b60405180910390fd5b6000600560029054906101000a900473ffffffffffffffffffffffffffffffffffffffff1690508073ffffffffffffffffffffffffffffffffffffffff1663095ea7b385856040518363ffffffff1660e01b8152600401610b51929190613108565b6020604051808303816000875af1158015610b70573d6000803e3d6000fd5b505050506040513d601f19601f82011682018060405250810190610b94919061315d565b5050505050565b80600073ffffffffffffffffffffffffffffffffffffffff16600760008361ffff1661ffff16815260200190815260200160002060050160009054906101000a900473ffffffffffffffffffffffffffffffffffffffff1673ffffffffffffffffffffffffffffffffffffffff1603610c49576040517f08c379a0000000000000000000000000000000000000000000000000000000008152600401610c40906131fc565b60405180910390fd5b8160001515600960008361ffff1661ffff16815260200190815260200160002060009054906101000a900460ff16151514610cb9576040517f08c379a0000000000000000000000000000000000000000000000000000000008152600401610cb090613268565b60405180910390fd5b6000600760008561ffff1661ffff16815260200190815260200160002060030160009054906101000a900473ffffffffffffffffffffffffffffffffffffffff1690508073ffffffffffffffffffffffffffffffffffffffff1663808615ac600760008761ffff1661ffff16815260200190815260200160002060030160009054906101000a900473ffffffffffffffffffffffffffffffffffffffff16600760008861ffff1661ffff16815260200190815260200160002060050160009054906101000a900473ffffffffffffffffffffffffffffffffffffffff166040518363ffffffff1660e01b8152600401610db3929190613288565b600060405180830381600087803b158015610dcd57600080fd5b505af1158015610de1573d6000803e3d6000fd5b505050506001600960008661ffff1661ffff16815260200190815260200160002060006101000a81548160ff02191690831515021790555050505050565b610e276123d9565b80600760008461ffff1661ffff16815260200190815260200160002060050160146101000a81548161ffff021916908361ffff1602179055507f7ba87dc2f0579f73c0c81556149b4a38ba7b7ad1c04893bd6b0adf5d90904e9b8282604051610e919291906132b1565b60405180910390a15050565b610ea56123d9565b80600760008461ffff1661ffff168152602001908152602001600020600601819055507fa9c1d2a748fa0c97d73a3bf7f73479b02c087bd2604261cb5301f4544f9338438282604051610ef99291906132da565b60405180910390a15050565b60015481565b600042603c600354610f1d9190613332565b600454610f2a9190613374565b11905090565b6000610f3a6123d9565b6040518061010001604052808861ffff1681526020018781526020018681526020018573ffffffffffffffffffffffffffffffffffffffff1681526020018473ffffffffffffffffffffffffffffffffffffffff1681526020018373ffffffffffffffffffffffffffffffffffffffff168152602001600061ffff1681526020016000815250600760008961ffff1661ffff16815260200190815260200160002060008201518160000160006101000a81548161ffff021916908361ffff1602179055506020820151816001019081611013919061354a565b506040820151816002019081611029919061354a565b5060608201518160030160006101000a81548173ffffffffffffffffffffffffffffffffffffffff021916908373ffffffffffffffffffffffffffffffffffffffff16021790555060808201518160040160006101000a81548173ffffffffffffffffffffffffffffffffffffffff021916908373ffffffffffffffffffffffffffffffffffffffff16021790555060a08201518160050160006101000a81548173ffffffffffffffffffffffffffffffffffffffff021916908373ffffffffffffffffffffffffffffffffffffffff16021790555060c08201518160050160146101000a81548161ffff021916908361ffff16021790555060e0820151816006015590505083600860008961ffff1661ffff16815260200190815260200160002060006101000a81548173ffffffffffffffffffffffffffffffffffffffff021916908373ffffffffffffffffffffffffffffffffffffffff1602179055507fed71e55bd13a81ef77c16d1341638615a55bbe7198dd92ac1ea4221ab71ad7d18686866040516111bc93929190613655565b60405180910390a1600860008861ffff1661ffff16815260200190815260200160002060009054906101000a900473ffffffffffffffffffffffffffffffffffffffff1690509695505050505050565b60006001547f000000000000000000000000000000000000000000000000000000000000000073ffffffffffffffffffffffffffffffffffffffff166370a08231306040518263ffffffff1660e01b815260040161126a9190612f6c565b602060405180830381865afa158015611287573d6000803e3d6000fd5b505050506040513d601f19601f820116820180604052508101906112ab9190613038565b836112b69190613332565b6112c091906136c9565b90506112cc3383612457565b7f000000000000000000000000000000000000000000000000000000000000000073ffffffffffffffffffffffffffffffffffffffff1663a9059cbb33836040518363ffffffff1660e01b8152600401611327929190613108565b6020604051808303816000875af1158015611346573d6000803e3d6000fd5b505050506040513d601f19601f8201168201806040525081019061136a919061315d565b505050565b60006113796123d9565b6000611383611cb9565b90506113908585856124ca565b801561139c5750600081115b156113b3576113a961189b565b6000915050611429565b6113be8585856124ca565b80156113ca5750600081145b15611427576113e26113dd868686611430565b612514565b60076000600560169054906101000a900461ffff1661ffff1661ffff16815260200190815260200160002060050160149054906101000a900461ffff16915050611429565b505b9392505050565b6114386126f4565b60008060005b8461ffff168161ffff1610156115a8578261ffff166007600089898561ffff1681811061146e5761146d6136fa565b5b9050602002016020810190611483919061282e565b61ffff1661ffff16815260200190815260200160002060050160149054906101000a900461ffff1661ffff1611801561150757506006546007600089898561ffff168181106114d5576114d46136fa565b5b90506020020160208101906114ea919061282e565b61ffff1661ffff1681526020019081526020016000206006015410155b15611595576007600088888461ffff16818110611527576115266136fa565b5b905060200201602081019061153c919061282e565b61ffff1661ffff16815260200190815260200160002060050160149054906101000a900461ffff16925086868261ffff1681811061157d5761157c6136fa565b5b9050602002016020810190611592919061282e565b91505b80806115a090613729565b91505061143e565b50600760008261ffff1661ffff168152602001908152602001600020604051806101000160405290816000820160009054906101000a900461ffff1661ffff1661ffff16815260200160018201805461160090612ff2565b80601f016020809104026020016040519081016040528092919081815260200182805461162c90612ff2565b80156116795780601f1061164e57610100808354040283529160200191611679565b820191906000526020600020905b81548152906001019060200180831161165c57829003601f168201915b5050505050815260200160028201805461169290612ff2565b80601f01602080910402602001604051908101604052809291908181526020018280546116be90612ff2565b801561170b5780601f106116e05761010080835404028352916020019161170b565b820191906000526020600020905b8154815290600101906020018083116116ee57829003601f168201915b505050505081526020016003820160009054906101000a900473ffffffffffffffffffffffffffffffffffffffff1673ffffffffffffffffffffffffffffffffffffffff1673ffffffffffffffffffffffffffffffffffffffff1681526020016004820160009054906101000a900473ffffffffffffffffffffffffffffffffffffffff1673ffffffffffffffffffffffffffffffffffffffff1673ffffffffffffffffffffffffffffffffffffffff1681526020016005820160009054906101000a900473ffffffffffffffffffffffffffffffffffffffff1673ffffffffffffffffffffffffffffffffffffffff1673ffffffffffffffffffffffffffffffffffffffff1681526020016005820160149054906101000a900461ffff1661ffff1661ffff168152602001600682015481525050925050509392505050565b6118536123d9565b8060038190555050565b6118656123d9565b8060068190555050565b60026020528060005260406000206000915090505481565b61188f6123d9565b61189960006125b5565b565b6118a36123d9565b600060076000600560169054906101000a900461ffff1661ffff1661ffff168152602001908152602001600020604051806101000160405290816000820160009054906101000a900461ffff1661ffff1661ffff16815260200160018201805461190c90612ff2565b80601f016020809104026020016040519081016040528092919081815260200182805461193890612ff2565b80156119855780601f1061195a57610100808354040283529160200191611985565b820191906000526020600020905b81548152906001019060200180831161196857829003601f168201915b5050505050815260200160028201805461199e90612ff2565b80601f01602080910402602001604051908101604052809291908181526020018280546119ca90612ff2565b8015611a175780601f106119ec57610100808354040283529160200191611a17565b820191906000526020600020905b8154815290600101906020018083116119fa57829003601f168201915b505050505081526020016003820160009054906101000a900473ffffffffffffffffffffffffffffffffffffffff1673ffffffffffffffffffffffffffffffffffffffff1673ffffffffffffffffffffffffffffffffffffffff1681526020016004820160009054906101000a900473ffffffffffffffffffffffffffffffffffffffff1673ffffffffffffffffffffffffffffffffffffffff1673ffffffffffffffffffffffffffffffffffffffff1681526020016005820160009054906101000a900473ffffffffffffffffffffffffffffffffffffffff1673ffffffffffffffffffffffffffffffffffffffff1673ffffffffffffffffffffffffffffffffffffffff1681526020016005820160149054906101000a900461ffff1661ffff1661ffff1681526020016006820154815250509050600060076000600560169054906101000a900461ffff1661ffff1661ffff16815260200190815260200160002060030160009054906101000a900473ffffffffffffffffffffffffffffffffffffffff1690506000826060015173ffffffffffffffffffffffffffffffffffffffff166370a08231306040518263ffffffff1660e01b8152600401611be09190612f6c565b602060405180830381865afa158015611bfd573d6000803e3d6000fd5b505050506040513d601f19601f82011682018060405250810190611c219190613038565b90508173ffffffffffffffffffffffffffffffffffffffff1663a7082de5846040015183306040518463ffffffff1660e01b8152600401611c6493929190613753565b600060405180830381600087803b158015611c7e57600080fd5b505af1158015611c92573d6000803e3d6000fd5b505050506000600560166101000a81548161ffff021916908361ffff160217905550505050565b6000600560029054906101000a900473ffffffffffffffffffffffffffffffffffffffff1673ffffffffffffffffffffffffffffffffffffffff166370a08231306040518263ffffffff1660e01b8152600401611d169190612f6c565b602060405180830381865afa158015611d33573d6000803e3d6000fd5b505050506040513d601f19601f82011682018060405250810190611d579190613038565b905090565b60008060009054906101000a900473ffffffffffffffffffffffffffffffffffffffff16905090565b60008060015403611d9857819050611e4d565b7f000000000000000000000000000000000000000000000000000000000000000073ffffffffffffffffffffffffffffffffffffffff166370a08231306040518263ffffffff1660e01b8152600401611df19190612f6c565b602060405180830381865afa158015611e0e573d6000803e3d6000fd5b505050506040513d601f19601f82011682018060405250810190611e329190613038565b60015483611e409190613332565b611e4a91906136c9565b90505b611e573382612679565b7f000000000000000000000000000000000000000000000000000000000000000073ffffffffffffffffffffffffffffffffffffffff166323b872dd3330856040518463ffffffff1660e01b8152600401611eb493929190613791565b6020604051808303816000875af1158015611ed3573d6000803e3d6000fd5b505050506040513d601f19601f82011682018060405250810190611ef7919061315d565b505050565b600060076000600560169054906101000a900461ffff1661ffff1661ffff16815260200190815260200160002060050160149054906101000a900461ffff16905090565b611f486123d9565b600760008261ffff1661ffff168152602001908152602001600020600080820160006101000a81549061ffff0219169055600182016000611f899190612783565b600282016000611f999190612783565b6003820160006101000a81549073ffffffffffffffffffffffffffffffffffffffff02191690556004820160006101000a81549073ffffffffffffffffffffffffffffffffffffffff02191690556005820160006101000a81549073ffffffffffffffffffffffffffffffffffffffff02191690556005820160146101000a81549061ffff021916905560068201600090555050600860008261ffff1661ffff16815260200190815260200160002060006101000a81549073ffffffffffffffffffffffffffffffffffffffff02191690557f1b2a4599ca8376db030733f91aee33d618c2c4bf06bdee6f9513c121ece0ff1e8160405161209a9190612f15565b60405180910390a150565b6120ad6123d9565b600073ffffffffffffffffffffffffffffffffffffffff168173ffffffffffffffffffffffffffffffffffffffff160361211c576040517f08c379a00000000000000000000000000000000000000000000000000000000081526004016121139061383a565b60405180910390fd5b612125816125b5565b50565b6000600260008373ffffffffffffffffffffffffffffffffffffffff1673ffffffffffffffffffffffffffffffffffffffff168152602001908152602001600020549050919050565b7f000000000000000000000000000000000000000000000000000000000000000081565b80600073ffffffffffffffffffffffffffffffffffffffff16600760008361ffff1661ffff16815260200190815260200160002060050160009054906101000a900473ffffffffffffffffffffffffffffffffffffffff1673ffffffffffffffffffffffffffffffffffffffff1603612243576040517f08c379a000000000000000000000000000000000000000000000000000000000815260040161223a906131fc565b60405180910390fd5b8160011515600960008361ffff1661ffff16815260200190815260200160002060009054906101000a900460ff161515146122b3576040517f08c379a00000000000000000000000000000000000000000000000000000000081526004016122aa906138a6565b60405180910390fd5b6000600760008561ffff1661ffff16815260200190815260200160002060030160009054906101000a900473ffffffffffffffffffffffffffffffffffffffff1690508073ffffffffffffffffffffffffffffffffffffffff1663f2888dbb600760008761ffff1661ffff16815260200190815260200160002060050160009054906101000a900473ffffffffffffffffffffffffffffffffffffffff166040518263ffffffff1660e01b815260040161236d9190612f6c565b600060405180830381600087803b15801561238757600080fd5b505af115801561239b573d6000803e3d6000fd5b505050506000600960008661ffff1661ffff16815260200190815260200160002060006101000a81548160ff02191690831515021790555050505050565b6123e16126ec565b73ffffffffffffffffffffffffffffffffffffffff166123ff611d5c565b73ffffffffffffffffffffffffffffffffffffffff1614612455576040517f08c379a000000000000000000000000000000000000000000000000000000000815260040161244c90613912565b60405180910390fd5b565b80600160008282546124699190613932565b9250508190555080600260008473ffffffffffffffffffffffffffffffffffffffff1673ffffffffffffffffffffffffffffffffffffffff16815260200190815260200160002060008282546124bf9190613932565b925050819055505050565b6000806124d8858585611430565b9050600560169054906101000a900461ffff1661ffff16816000015161ffff160361250757600091505061250d565b60019150505b9392505050565b6000816060015190508073ffffffffffffffffffffffffffffffffffffffff1663e502021f836040015147306040518463ffffffff1660e01b815260040161255e93929190613753565b600060405180830381600087803b15801561257857600080fd5b505af115801561258c573d6000803e3d6000fd5b505050508160000151600560166101000a81548161ffff021916908361ffff1602179055505050565b60008060009054906101000a900473ffffffffffffffffffffffffffffffffffffffff169050816000806101000a81548173ffffffffffffffffffffffffffffffffffffffff021916908373ffffffffffffffffffffffffffffffffffffffff1602179055508173ffffffffffffffffffffffffffffffffffffffff168173ffffffffffffffffffffffffffffffffffffffff167f8be0079c531659141344cd1fd0a4f28419497f9722a3daafe3b4186f6b6457e060405160405180910390a35050565b806001600082825461268b9190613374565b9250508190555080600260008473ffffffffffffffffffffffffffffffffffffffff1673ffffffffffffffffffffffffffffffffffffffff16815260200190815260200160002060008282546126e19190613374565b925050819055505050565b600033905090565b604051806101000160405280600061ffff1681526020016060815260200160608152602001600073ffffffffffffffffffffffffffffffffffffffff168152602001600073ffffffffffffffffffffffffffffffffffffffff168152602001600073ffffffffffffffffffffffffffffffffffffffff168152602001600061ffff168152602001600081525090565b50805461278f90612ff2565b6000825580601f106127a157506127c0565b601f0160209004906000526020600020908101906127bf91906127c3565b5b50565b5b808211156127dc5760008160009055506001016127c4565b5090565b6000604051905090565b600080fd5b600080fd5b600061ffff82169050919050565b61280b816127f4565b811461281657600080fd5b50565b60008135905061282881612802565b92915050565b600060208284031215612844576128436127ea565b5b600061285284828501612819565b91505092915050565b612864816127f4565b82525050565b600081519050919050565b600082825260208201905092915050565b60005b838110156128a4578082015181840152602081019050612889565b60008484015250505050565b6000601f19601f8301169050919050565b60006128cc8261286a565b6128d68185612875565b93506128e6818560208601612886565b6128ef816128b0565b840191505092915050565b600073ffffffffffffffffffffffffffffffffffffffff82169050919050565b6000612925826128fa565b9050919050565b6129358161291a565b82525050565b6000819050919050565b61294e8161293b565b82525050565b60006101008301600083015161296d600086018261285b565b506020830151848203602086015261298582826128c1565b9150506040830151848203604086015261299f82826128c1565b91505060608301516129b4606086018261292c565b5060808301516129c7608086018261292c565b5060a08301516129da60a086018261292c565b5060c08301516129ed60c086018261285b565b5060e0830151612a0060e0860182612945565b508091505092915050565b60006020820190508181036000830152612a258184612954565b905092915050565b612a368161293b565b82525050565b6000602082019050612a516000830184612a2d565b92915050565b612a608161291a565b8114612a6b57600080fd5b50565b600081359050612a7d81612a57565b92915050565b612a8c8161293b565b8114612a9757600080fd5b50565b600081359050612aa981612a83565b92915050565b60008060408385031215612ac657612ac56127ea565b5b6000612ad485828601612a6e565b9250506020612ae585828601612a9a565b9150509250929050565b60008060408385031215612b0657612b056127ea565b5b6000612b1485828601612819565b9250506020612b2585828601612819565b9150509250929050565b60008060408385031215612b4657612b456127ea565b5b6000612b5485828601612819565b9250506020612b6585828601612a9a565b9150509250929050565b60008115159050919050565b612b8481612b6f565b82525050565b6000602082019050612b9f6000830184612b7b565b92915050565b600080fd5b600080fd5b7f4e487b7100000000000000000000000000000000000000000000000000000000600052604160045260246000fd5b612be7826128b0565b810181811067ffffffffffffffff82111715612c0657612c05612baf565b5b80604052505050565b6000612c196127e0565b9050612c258282612bde565b919050565b600067ffffffffffffffff821115612c4557612c44612baf565b5b612c4e826128b0565b9050602081019050919050565b82818337600083830152505050565b6000612c7d612c7884612c2a565b612c0f565b905082815260208101848484011115612c9957612c98612baa565b5b612ca4848285612c5b565b509392505050565b600082601f830112612cc157612cc0612ba5565b5b8135612cd1848260208601612c6a565b91505092915050565b60008060008060008060c08789031215612cf757612cf66127ea565b5b6000612d0589828a01612819565b965050602087013567ffffffffffffffff811115612d2657612d256127ef565b5b612d3289828a01612cac565b955050604087013567ffffffffffffffff811115612d5357612d526127ef565b5b612d5f89828a01612cac565b9450506060612d7089828a01612a6e565b9350506080612d8189828a01612a6e565b92505060a0612d9289828a01612a6e565b9150509295509295509295565b6000819050919050565b6000612dc4612dbf612dba846128fa565b612d9f565b6128fa565b9050919050565b6000612dd682612da9565b9050919050565b6000612de882612dcb565b9050919050565b612df881612ddd565b82525050565b6000602082019050612e136000830184612def565b92915050565b600060208284031215612e2f57612e2e6127ea565b5b6000612e3d84828501612a9a565b91505092915050565b600080fd5b600080fd5b60008083601f840112612e6657612e65612ba5565b5b8235905067ffffffffffffffff811115612e8357612e82612e46565b5b602083019150836020820283011115612e9f57612e9e612e4b565b5b9250929050565b600080600060408486031215612ebf57612ebe6127ea565b5b600084013567ffffffffffffffff811115612edd57612edc6127ef565b5b612ee986828701612e50565b93509350506020612efc86828701612819565b9150509250925092565b612f0f816127f4565b82525050565b6000602082019050612f2a6000830184612f06565b92915050565b600060208284031215612f4657612f456127ea565b5b6000612f5484828501612a6e565b91505092915050565b612f668161291a565b82525050565b6000602082019050612f816000830184612f5d565b92915050565b6000612f9282612dcb565b9050919050565b612fa281612f87565b82525050565b6000602082019050612fbd6000830184612f99565b92915050565b7f4e487b7100000000000000000000000000000000000000000000000000000000600052602260045260246000fd5b6000600282049050600182168061300a57607f821691505b60208210810361301d5761301c612fc3565b5b50919050565b60008151905061303281612a83565b92915050565b60006020828403121561304e5761304d6127ea565b5b600061305c84828501613023565b91505092915050565b600082825260208201905092915050565b7f416d6f756e742073686f756c642062652067726561746572207468616e207a6560008201527f726f2e0000000000000000000000000000000000000000000000000000000000602082015250565b60006130d2602383613065565b91506130dd82613076565b604082019050919050565b60006020820190508181036000830152613101816130c5565b9050919050565b600060408201905061311d6000830185612f5d565b61312a6020830184612a2d565b9392505050565b61313a81612b6f565b811461314557600080fd5b50565b60008151905061315781613131565b92915050565b600060208284031215613173576131726127ea565b5b600061318184828501613148565b91505092915050565b7f43757272656e7420706f6f6c20646f6573206e6f7420737570706f727420737460008201527f616b696e67000000000000000000000000000000000000000000000000000000602082015250565b60006131e6602583613065565b91506131f18261318a565b604082019050919050565b60006020820190508181036000830152613215816131d9565b9050919050565b7f506f6f6c20746f6b656e7320617265207374616b656400000000000000000000600082015250565b6000613252601683613065565b915061325d8261321c565b602082019050919050565b6000602082019050818103600083015261328181613245565b9050919050565b600060408201905061329d6000830185612f5d565b6132aa6020830184612f5d565b9392505050565b60006040820190506132c66000830185612f06565b6132d36020830184612f06565b9392505050565b60006040820190506132ef6000830185612f06565b6132fc6020830184612a2d565b9392505050565b7f4e487b7100000000000000000000000000000000000000000000000000000000600052601160045260246000fd5b600061333d8261293b565b91506133488361293b565b92508282026133568161293b565b9150828204841483151761336d5761336c613303565b5b5092915050565b600061337f8261293b565b915061338a8361293b565b92508282019050808211156133a2576133a1613303565b5b92915050565b60008190508160005260206000209050919050565b60006020601f8301049050919050565b600082821b905092915050565b60006008830261340a7fffffffffffffffffffffffffffffffffffffffffffffffffffffffffffffffff826133cd565b61341486836133cd565b95508019841693508086168417925050509392505050565b600061344761344261343d8461293b565b612d9f565b61293b565b9050919050565b6000819050919050565b6134618361342c565b61347561346d8261344e565b8484546133da565b825550505050565b600090565b61348a61347d565b613495818484613458565b505050565b5b818110156134b9576134ae600082613482565b60018101905061349b565b5050565b601f8211156134fe576134cf816133a8565b6134d8846133bd565b810160208510156134e7578190505b6134fb6134f3856133bd565b83018261349a565b50505b505050565b600082821c905092915050565b600061352160001984600802613503565b1980831691505092915050565b600061353a8383613510565b9150826002028217905092915050565b6135538261286a565b67ffffffffffffffff81111561356c5761356b612baf565b5b6135768254612ff2565b6135818282856134bd565b600060209050601f8311600181146135b457600084156135a2578287015190505b6135ac858261352e565b865550613614565b601f1984166135c2866133a8565b60005b828110156135ea578489015182556001820191506020850194506020810190506135c5565b868310156136075784890151613603601f891682613510565b8355505b6001600288020188555050505b505050505050565b60006136278261286a565b6136318185613065565b9350613641818560208601612886565b61364a816128b0565b840191505092915050565b6000606082019050818103600083015261366f818661361c565b90508181036020830152613683818561361c565b90506136926040830184612f5d565b949350505050565b7f4e487b7100000000000000000000000000000000000000000000000000000000600052601260045260246000fd5b60006136d48261293b565b91506136df8361293b565b9250826136ef576136ee61369a565b5b828204905092915050565b7f4e487b7100000000000000000000000000000000000000000000000000000000600052603260045260246000fd5b6000613734826127f4565b915061ffff820361374857613747613303565b5b600182019050919050565b6000606082019050818103600083015261376d818661361c565b905061377c6020830185612a2d565b6137896040830184612f5d565b949350505050565b60006060820190506137a66000830186612f5d565b6137b36020830185612f5d565b6137c06040830184612a2d565b949350505050565b7f4f776e61626c653a206e6577206f776e657220697320746865207a65726f206160008201527f6464726573730000000000000000000000000000000000000000000000000000602082015250565b6000613824602683613065565b915061382f826137c8565b604082019050919050565b6000602082019050818103600083015261385381613817565b9050919050565b7f506f6f6c20746f6b656e7320617265206e6f74207374616b6564000000000000600082015250565b6000613890601a83613065565b915061389b8261385a565b602082019050919050565b600060208201905081810360008301526138bf81613883565b9050919050565b7f4f776e61626c653a2063616c6c6572206973206e6f7420746865206f776e6572600082015250565b60006138fc602083613065565b9150613907826138c6565b602082019050919050565b6000602082019050818103600083015261392b816138ef565b9050919050565b600061393d8261293b565b91506139488361293b565b92508282039050818111156139605761395f613303565b5b9291505056fea264697066735822122008b7ffd5f4a005da03847deca8cf2bdbe3bf0f808a9257a923ccf23d8fd84d4d64736f6c63430008110033",
  "immutableReferences": {
    "5": [
      {
        "length": 32,
        "start": 4627
      },
      {
        "length": 32,
        "start": 4814
      },
      {
        "length": 32,
        "start": 7578
      },
      {
        "length": 32,
        "start": 7769
      },
      {
        "length": 32,
        "start": 8563
      }
    ]
  },
  "source": "// SPDX-License-Identifier: MIT\npragma solidity >=0.4.22 <0.9.0;\n\nimport \"../../node_modules/@openzeppelin/contracts/access/Ownable.sol\";\nimport \"../../node_modules/@openzeppelin/contracts/token/ERC20/presets/ERC20PresetMinterPauser.sol\";\nimport \"../interfaces/IIntegration.sol\";\nimport \"../interfaces/IStakingIntegration.sol\";\nimport \"../libs/Cooldown.sol\";\nimport \"./OpenEndVault.sol\";\n\ncontract TopYieldSwap is Ownable, OpenEndVault, Cooldown {\n\n    uint16 private chainId;\n    address private tokenAddr;\n    uint16 private activePool;\n    uint256 private minTvl;\n\n    struct YieldPool {\n        uint16 id;              // unique pool id\n        string project;         // project name\n        string token;           // ERC20 name\n        address addr;           // router address\n        address poolAddr;       // pool address\n        address stakingAddr;    // staking address\n        uint16 currentYield;    // pool yield\n        uint256 tvl;            // tvl\n    }\n\n    event YieldPoolAdded(string _project, string _token, address _addr);\n    event YieldPoolRemoved(uint16 _id);\n\n    event YieldPoolYieldSet(uint16 _poolId, uint16 _newYield);\n    event YieldPoolTvlSet(uint16 _poolId, uint256 _tvl);\n\n    event EnterPool(uint16 _poolId, uint256 _amount, uint256 _balance);\n    event ExitPool(uint16 _poolId, uint256 _amount);\n\n    mapping (uint16 => YieldPool) private yieldPools;\n    mapping (uint16 => IIntegration) private integrations;\n    mapping (uint16 => bool) private tokensStaked;\n\n    constructor(uint16 _chainId, address _tokenAddr) OpenEndVault(_tokenAddr) {\n        chainId = _chainId;\n        tokenAddr = _tokenAddr;\n        activePool = 0x0;\n    }\n\n    /**\n     * @dev rebalance will exclusively: do nothing, exit current pool, or enter top pool\n     * should therefore be called again if exit current pool was the performed action.\n     */\n    function rebalance(uint16[] calldata _poolIds, uint16 _length) public onlyOwner returns(uint16 _yield) {\n        uint256 tokenBalance = getTokenBalance();\n        if (shouldSwap(_poolIds, _length) && tokenBalance > 0) {\n            exitCurrentPool();\n            return 0x0;\n        } else if (shouldSwap(_poolIds, _length) && tokenBalance == 0) {\n            enterPool(selectPool(_poolIds, _length));\n            return yieldPools[activePool].currentYield;\n        }\n    }\n\n    function getCurrentYield() public view returns (uint16 _apy) {\n        return yieldPools[activePool].currentYield;\n    }\n\n    function approve(address spender, uint256 _amount) public gtZero(_amount) {\n        IERC20 tokenContract = IERC20(tokenAddr);\n        tokenContract.approve(spender, _amount);\n    }\n\n    function getTokenBalance() public view returns (uint256 tokenBalance) {\n        return IERC20(tokenAddr).balanceOf(address(this));\n    }\n\n    function getDepositBalance() public view returns (uint256 depositBalance) {\n        YieldPool memory yieldPool = yieldPools[activePool];\n        return IERC20(yieldPool.poolAddr).balanceOf(address(this));\n    }\n\n    function enterPool(YieldPool memory _yieldPool) internal {\n        IIntegration integration = IIntegration(_yieldPool.addr);\n        integration.addLiquidity(_yieldPool.token, address(this).balance, address(this));\n        activePool = _yieldPool.id;\n    }\n\n    function exitCurrentPool() public onlyOwner {\n        YieldPool memory currentPool = yieldPools[activePool];\n        IIntegration integration = IIntegration(yieldPools[activePool].addr);\n        uint256 balance = IERC20(currentPool.addr).balanceOf(address(this));\n        integration.removeLiquidity(currentPool.token, balance, address(this));\n        activePool = 0x0;\n    }\n\n    function stakePool(uint16 _poolId) public isStakingPool(_poolId) unstaked(_poolId) {\n        IStakingIntegration integration = IStakingIntegration(yieldPools[_poolId].addr);\n        integration.stake(yieldPools[_poolId].addr, yieldPools[_poolId].stakingAddr);\n        tokensStaked[_poolId] = true;\n    }\n\n    function unstakePool(uint16 _poolId) public isStakingPool(_poolId) staked(_poolId) {\n        IStakingIntegration integration = IStakingIntegration(yieldPools[_poolId].addr);\n        integration.unstake(yieldPools[_poolId].stakingAddr);\n        tokensStaked[_poolId] = false;\n    }\n\n    function shouldSwap(uint16[] calldata _poolIds, uint16 _length) internal view returns(bool _bool) {\n        YieldPool memory topPool = selectPool(_poolIds, _length);\n        if (topPool.id == activePool) {\n            return false;\n        }\n        return true;\n    }\n\n    function selectPool(uint16[] calldata _poolIds, uint16 _length) public view returns (YieldPool memory yieldPool) {\n        uint16 _topYield = 0x0;\n        uint16 _poolId = 0;\n        for (uint16 i = 0; i < _length; i++) {\n            if (yieldPools[_poolIds[i]].currentYield > _topYield && yieldPools[_poolIds[i]].tvl >= minTvl) {\n                _topYield = yieldPools[_poolIds[i]].currentYield;\n                _poolId = _poolIds[i];\n            }\n        }\n        return yieldPools[_poolId];\n    }\n\n    function addYieldPool(\n        uint16 id,\n        string memory _project,\n        string memory _token,\n        address _addr,\n        address _tokenAddr,\n        address _stakingAddr\n    ) public onlyOwner returns(IIntegration integration) {\n        yieldPools[id] = YieldPool(id, _project, _token, _addr, _tokenAddr, _stakingAddr, 0x0, 0x0);\n        integrations[id] = IIntegration(_addr);\n        emit YieldPoolAdded(_project, _token, _addr);\n        return integrations[id];\n    }\n\n    function removeYieldPool(\n        uint16 _id\n    ) public onlyOwner {\n        delete yieldPools[_id];\n        delete integrations[_id];\n        emit YieldPoolRemoved(_id);\n    }\n\n    function setYieldPoolYield(uint16 _id, uint16 _yield) public onlyOwner {\n        yieldPools[_id].currentYield = _yield; \n        emit YieldPoolYieldSet(_id, _yield);\n    }\n\n    function setYieldPoolTvl(uint16 _id, uint256 _tvl) public onlyOwner {\n        yieldPools[_id].tvl = _tvl; \n        emit YieldPoolTvlSet(_id, _tvl);\n    }\n\n    function getYieldPool(uint16 _id) public view onlyOwner returns(YieldPool memory yieldPool) {\n        return yieldPools[_id];\n    }\n\n    function setMinTvl(uint256 _minTvl) external onlyOwner {\n        minTvl = _minTvl;\n    }\n\n    modifier isStakingPool(uint16 _poolId) {\n        require (yieldPools[_poolId].stakingAddr != address(0x0), \"Current pool does not support staking\");\n        _;\n    }\n\n    modifier staked(uint16 _poolId) {\n        require (tokensStaked[_poolId] == true, \"Pool tokens are not staked\");\n        _;\n    }\n\n    modifier unstaked(uint16 _poolId) {\n        require (tokensStaked[_poolId] == false, \"Pool tokens are staked\");\n        _;\n    }\n\n    modifier gtZero (uint256 _amount) {\n        require(_amount > 0, \"Amount should be greater than zero.\");\n        _;\n    }\n\n}\n",
  "sourcePath": "/Users/irasigman/code/agoras/bandit-protocol/contracts/instruments/TopYieldSwap.sol",
  "compiler": {
    "name": "solc",
    "version": "0.8.17+commit.8df45f5f.Emscripten.clang"
  },
  "schemaVersion": "3.4.10",
  "updatedAt": "2023-01-22T01:49:28.312Z",
  "networkType": "ethereum",
  "devdoc": {
    "kind": "dev",
    "methods": {
      "owner()": {
        "details": "Returns the address of the current owner."
      },
      "rebalance(uint16[],uint16)": {
        "details": "rebalance will exclusively: do nothing, exit current pool, or enter top pool should therefore be called again if exit current pool was the performed action."
      },
      "renounceOwnership()": {
        "details": "Leaves the contract without owner. It will not be possible to call `onlyOwner` functions anymore. Can only be called by the current owner. NOTE: Renouncing ownership will leave the contract without an owner, thereby removing any functionality that is only available to the owner."
      },
      "transferOwnership(address)": {
        "details": "Transfers ownership of the contract to a new account (`newOwner`). Can only be called by the current owner."
      }
    },
    "version": 1
  },
  "userdoc": {
    "kind": "user",
    "methods": {},
    "version": 1
  }
}