{
  "contractName": "TopYieldSwap",
  "abi": [
    {
      "inputs": [
        {
          "internalType": "uint16",
          "name": "_chainId",
          "type": "uint16"
        },
        {
          "internalType": "address",
          "name": "_tokenAddr",
          "type": "address"
        }
      ],
      "stateMutability": "nonpayable",
      "type": "constructor"
    },
    {
      "anonymous": false,
      "inputs": [
        {
          "indexed": false,
          "internalType": "uint16",
          "name": "_poolId",
          "type": "uint16"
        },
        {
          "indexed": false,
          "internalType": "uint256",
          "name": "_amount",
          "type": "uint256"
        },
        {
          "indexed": false,
          "internalType": "uint256",
          "name": "_balance",
          "type": "uint256"
        }
      ],
      "name": "EnterPool",
      "type": "event"
    },
    {
      "anonymous": false,
      "inputs": [
        {
          "indexed": false,
          "internalType": "uint16",
          "name": "_poolId",
          "type": "uint16"
        },
        {
          "indexed": false,
          "internalType": "uint256",
          "name": "_amount",
          "type": "uint256"
        }
      ],
      "name": "ExitPool",
      "type": "event"
    },
    {
      "anonymous": false,
      "inputs": [
        {
          "indexed": true,
          "internalType": "address",
          "name": "previousOwner",
          "type": "address"
        },
        {
          "indexed": true,
          "internalType": "address",
          "name": "newOwner",
          "type": "address"
        }
      ],
      "name": "OwnershipTransferred",
      "type": "event"
    },
    {
      "anonymous": false,
      "inputs": [
        {
          "indexed": false,
          "internalType": "string",
          "name": "_project",
          "type": "string"
        },
        {
          "indexed": false,
          "internalType": "string",
          "name": "_token",
          "type": "string"
        },
        {
          "indexed": false,
          "internalType": "address",
          "name": "_addr",
          "type": "address"
        }
      ],
      "name": "YieldPoolAdded",
      "type": "event"
    },
    {
      "anonymous": false,
      "inputs": [
        {
          "indexed": false,
          "internalType": "uint16",
          "name": "_id",
          "type": "uint16"
        }
      ],
      "name": "YieldPoolRemoved",
      "type": "event"
    },
    {
      "inputs": [],
      "name": "owner",
      "outputs": [
        {
          "internalType": "address",
          "name": "",
          "type": "address"
        }
      ],
      "stateMutability": "view",
      "type": "function"
    },
    {
      "inputs": [],
      "name": "renounceOwnership",
      "outputs": [],
      "stateMutability": "nonpayable",
      "type": "function"
    },
    {
      "inputs": [
        {
          "internalType": "address",
          "name": "newOwner",
          "type": "address"
        }
      ],
      "name": "transferOwnership",
      "outputs": [],
      "stateMutability": "nonpayable",
      "type": "function"
    },
    {
      "inputs": [
        {
          "internalType": "uint16[]",
          "name": "_poolIds",
          "type": "uint16[]"
        },
        {
          "internalType": "uint16",
          "name": "_length",
          "type": "uint16"
        }
      ],
      "name": "rebalance",
      "outputs": [
        {
          "internalType": "uint16",
          "name": "_yield",
          "type": "uint16"
        }
      ],
      "stateMutability": "nonpayable",
      "type": "function"
    },
    {
      "inputs": [],
      "name": "getCurrentYield",
      "outputs": [
        {
          "internalType": "uint16",
          "name": "_apy",
          "type": "uint16"
        }
      ],
      "stateMutability": "view",
      "type": "function"
    },
    {
      "inputs": [
        {
          "internalType": "address",
          "name": "spender",
          "type": "address"
        },
        {
          "internalType": "uint256",
          "name": "_amount",
          "type": "uint256"
        }
      ],
      "name": "approve",
      "outputs": [],
      "stateMutability": "nonpayable",
      "type": "function"
    },
    {
      "inputs": [
        {
          "internalType": "uint256",
          "name": "_amount",
          "type": "uint256"
        }
      ],
      "name": "deposit",
      "outputs": [],
      "stateMutability": "payable",
      "type": "function"
    },
    {
      "inputs": [
        {
          "internalType": "uint256",
          "name": "_amount",
          "type": "uint256"
        }
      ],
      "name": "withdrawal",
      "outputs": [],
      "stateMutability": "nonpayable",
      "type": "function"
    },
    {
      "inputs": [],
      "name": "getTokenBalance",
      "outputs": [
        {
          "internalType": "uint256",
          "name": "tokenBalance",
          "type": "uint256"
        }
      ],
      "stateMutability": "view",
      "type": "function"
    },
    {
      "inputs": [
        {
          "internalType": "uint16[]",
          "name": "_poolIds",
          "type": "uint16[]"
        },
        {
          "internalType": "uint16",
          "name": "_length",
          "type": "uint16"
        }
      ],
      "name": "selectPool",
      "outputs": [
        {
          "components": [
            {
              "internalType": "uint16",
              "name": "id",
              "type": "uint16"
            },
            {
              "internalType": "string",
              "name": "project",
              "type": "string"
            },
            {
              "internalType": "string",
              "name": "token",
              "type": "string"
            },
            {
              "internalType": "address",
              "name": "addr",
              "type": "address"
            },
            {
              "internalType": "uint16",
              "name": "currentYield",
              "type": "uint16"
            }
          ],
          "internalType": "struct TopYieldSwap.YieldPool",
          "name": "yieldPool",
          "type": "tuple"
        }
      ],
      "stateMutability": "view",
      "type": "function"
    },
    {
      "inputs": [
        {
          "internalType": "uint16",
          "name": "id",
          "type": "uint16"
        },
        {
          "internalType": "string",
          "name": "_project",
          "type": "string"
        },
        {
          "internalType": "string",
          "name": "_token",
          "type": "string"
        },
        {
          "internalType": "address",
          "name": "_addr",
          "type": "address"
        }
      ],
      "name": "addYieldPool",
      "outputs": [
        {
          "internalType": "contract IIntegration",
          "name": "integration",
          "type": "address"
        }
      ],
      "stateMutability": "nonpayable",
      "type": "function"
    },
    {
      "inputs": [
        {
          "internalType": "uint16",
          "name": "_id",
          "type": "uint16"
        }
      ],
      "name": "removeYieldPool",
      "outputs": [],
      "stateMutability": "nonpayable",
      "type": "function"
    },
    {
      "inputs": [
        {
          "internalType": "uint16",
          "name": "_id",
          "type": "uint16"
        },
        {
          "internalType": "uint16",
          "name": "_yield",
          "type": "uint16"
        }
      ],
      "name": "setYieldPoolYield",
      "outputs": [],
      "stateMutability": "nonpayable",
      "type": "function"
    },
    {
      "inputs": [
        {
          "internalType": "uint16",
          "name": "_id",
          "type": "uint16"
        }
      ],
      "name": "getYieldPool",
      "outputs": [
        {
          "components": [
            {
              "internalType": "uint16",
              "name": "id",
              "type": "uint16"
            },
            {
              "internalType": "string",
              "name": "project",
              "type": "string"
            },
            {
              "internalType": "string",
              "name": "token",
              "type": "string"
            },
            {
              "internalType": "address",
              "name": "addr",
              "type": "address"
            },
            {
              "internalType": "uint16",
              "name": "currentYield",
              "type": "uint16"
            }
          ],
          "internalType": "struct TopYieldSwap.YieldPool",
          "name": "yieldPool",
          "type": "tuple"
        }
      ],
      "stateMutability": "view",
      "type": "function"
    }
  ],
  "bytecode": "0x60806040523480156200001157600080fd5b506040516200275c3803806200275c833981810160405281019062000037919062000250565b620000576200004b620000db60201b60201c565b620000e360201b60201c565b81600060146101000a81548161ffff021916908361ffff16021790555080600160006101000a81548173ffffffffffffffffffffffffffffffffffffffff021916908373ffffffffffffffffffffffffffffffffffffffff1602179055506000600160146101000a81548161ffff021916908361ffff160217905550505062000297565b600033905090565b60008060009054906101000a900473ffffffffffffffffffffffffffffffffffffffff169050816000806101000a81548173ffffffffffffffffffffffffffffffffffffffff021916908373ffffffffffffffffffffffffffffffffffffffff1602179055508173ffffffffffffffffffffffffffffffffffffffff168173ffffffffffffffffffffffffffffffffffffffff167f8be0079c531659141344cd1fd0a4f28419497f9722a3daafe3b4186f6b6457e060405160405180910390a35050565b600080fd5b600061ffff82169050919050565b620001c581620001ac565b8114620001d157600080fd5b50565b600081519050620001e581620001ba565b92915050565b600073ffffffffffffffffffffffffffffffffffffffff82169050919050565b60006200021882620001eb565b9050919050565b6200022a816200020b565b81146200023657600080fd5b50565b6000815190506200024a816200021f565b92915050565b600080604083850312156200026a5762000269620001a7565b5b60006200027a85828601620001d4565b92505060206200028d8582860162000239565b9150509250929050565b6124b580620002a76000396000f3fe6080604052600436106100dd5760003560e01c8063835fc6ca1161007f578063b91503a611610059578063b91503a61461029d578063e430e53a146102c8578063f2fde38b146102f1578063fcb8c9a61461031a576100dd565b8063835fc6ca1461022d5780638da5cb5b14610256578063b6b55f2514610281576100dd565b80633acc5696116100bb5780633acc5696146101715780634a2bcb40146101ae578063715018a6146101eb57806382b2e25714610202576100dd565b80630370bd62146100e2578063095ea7b31461011f5780630cd1eaf314610148575b600080fd5b3480156100ee57600080fd5b506101096004803603810190610104919061174b565b610357565b60405161011691906118d5565b60405180910390f35b34801561012b57600080fd5b5061014660048036038101906101419190611959565b61054e565b005b34801561015457600080fd5b5061016f600480360381019061016a9190611999565b61063e565b005b34801561017d57600080fd5b5061019860048036038101906101939190611a3e565b610683565b6040516101a59190611aad565b60405180910390f35b3480156101ba57600080fd5b506101d560048036038101906101d09190611a3e565b610744565b6040516101e291906118d5565b60405180910390f35b3480156101f757600080fd5b50610200610a25565b005b34801561020e57600080fd5b50610217610a39565b6040516102249190611ad7565b60405180910390f35b34801561023957600080fd5b50610254600480360381019061024f9190611af2565b610adc565b005b34801561026257600080fd5b5061026b610bcd565b6040516102789190611b2e565b60405180910390f35b61029b60048036038101906102969190611af2565b610bf6565b005b3480156102a957600080fd5b506102b2610ce7565b6040516102bf9190611aad565b60405180910390f35b3480156102d457600080fd5b506102ef60048036038101906102ea919061174b565b610d2b565b005b3480156102fd57600080fd5b5061031860048036038101906103139190611b49565b610e3a565b005b34801561032657600080fd5b50610341600480360381019061033c9190611ca6565b610ebd565b60405161034e9190611da4565b60405180910390f35b61035f611653565b6103676110bf565b600260008361ffff1661ffff1681526020019081526020016000206040518060a00160405290816000820160009054906101000a900461ffff1661ffff1661ffff1681526020016001820180546103bd90611dee565b80601f01602080910402602001604051908101604052809291908181526020018280546103e990611dee565b80156104365780601f1061040b57610100808354040283529160200191610436565b820191906000526020600020905b81548152906001019060200180831161041957829003601f168201915b5050505050815260200160028201805461044f90611dee565b80601f016020809104026020016040519081016040528092919081815260200182805461047b90611dee565b80156104c85780601f1061049d576101008083540402835291602001916104c8565b820191906000526020600020905b8154815290600101906020018083116104ab57829003601f168201915b505050505081526020016003820160009054906101000a900473ffffffffffffffffffffffffffffffffffffffff1673ffffffffffffffffffffffffffffffffffffffff1673ffffffffffffffffffffffffffffffffffffffff1681526020016003820160149054906101000a900461ffff1661ffff1661ffff16815250509050919050565b8060008111610592576040517f08c379a000000000000000000000000000000000000000000000000000000000815260040161058990611ea2565b60405180910390fd5b6000600160009054906101000a900473ffffffffffffffffffffffffffffffffffffffff1690508073ffffffffffffffffffffffffffffffffffffffff1663095ea7b385856040518363ffffffff1660e01b81526004016105f4929190611ec2565b6020604051808303816000875af1158015610613573d6000803e3d6000fd5b505050506040513d601f19601f820116820180604052508101906106379190611f23565b5050505050565b6106466110bf565b80600260008461ffff1661ffff16815260200190815260200160002060030160146101000a81548161ffff021916908361ffff1602179055505050565b600061068d6110bf565b6000610697610a39565b90506106a485858561113d565b80156106b05750600081115b156106c7576106bd611187565b600091505061073d565b6106d285858561113d565b80156106de5750600081145b1561073b576106f66106f1868686610744565b6114e6565b60026000600160149054906101000a900461ffff1661ffff1661ffff16815260200190815260200160002060030160149054906101000a900461ffff1691505061073d565b505b9392505050565b61074c611653565b60008060005b8461ffff168161ffff161015610839578261ffff166002600089898561ffff1681811061078257610781611f50565b5b9050602002016020810190610797919061174b565b61ffff1661ffff16815260200190815260200160002060030160149054906101000a900461ffff1661ffff1610610826576002600088888461ffff168181106107e3576107e2611f50565b5b90506020020160208101906107f8919061174b565b61ffff1661ffff16815260200190815260200160002060030160149054906101000a900461ffff1692508091505b808061083190611fae565b915050610752565b50600260008261ffff1661ffff1681526020019081526020016000206040518060a00160405290816000820160009054906101000a900461ffff1661ffff1661ffff16815260200160018201805461089090611dee565b80601f01602080910402602001604051908101604052809291908181526020018280546108bc90611dee565b80156109095780601f106108de57610100808354040283529160200191610909565b820191906000526020600020905b8154815290600101906020018083116108ec57829003601f168201915b5050505050815260200160028201805461092290611dee565b80601f016020809104026020016040519081016040528092919081815260200182805461094e90611dee565b801561099b5780601f106109705761010080835404028352916020019161099b565b820191906000526020600020905b81548152906001019060200180831161097e57829003601f168201915b505050505081526020016003820160009054906101000a900473ffffffffffffffffffffffffffffffffffffffff1673ffffffffffffffffffffffffffffffffffffffff1673ffffffffffffffffffffffffffffffffffffffff1681526020016003820160149054906101000a900461ffff1661ffff1661ffff1681525050925050509392505050565b610a2d6110bf565b610a376000611587565b565b6000600160009054906101000a900473ffffffffffffffffffffffffffffffffffffffff1673ffffffffffffffffffffffffffffffffffffffff166370a08231306040518263ffffffff1660e01b8152600401610a969190611b2e565b602060405180830381865afa158015610ab3573d6000803e3d6000fd5b505050506040513d601f19601f82011682018060405250810190610ad79190611fed565b905090565b8060008111610b20576040517f08c379a0000000000000000000000000000000000000000000000000000000008152600401610b1790611ea2565b60405180910390fd5b6000600160009054906101000a900473ffffffffffffffffffffffffffffffffffffffff1690508073ffffffffffffffffffffffffffffffffffffffff166323b872dd3033866040518463ffffffff1660e01b8152600401610b849392919061201a565b6020604051808303816000875af1158015610ba3573d6000803e3d6000fd5b505050506040513d601f19601f82011682018060405250810190610bc79190611f23565b50505050565b60008060009054906101000a900473ffffffffffffffffffffffffffffffffffffffff16905090565b8060008111610c3a576040517f08c379a0000000000000000000000000000000000000000000000000000000008152600401610c3190611ea2565b60405180910390fd5b6000600160009054906101000a900473ffffffffffffffffffffffffffffffffffffffff1690508073ffffffffffffffffffffffffffffffffffffffff166323b872dd3330866040518463ffffffff1660e01b8152600401610c9e9392919061201a565b6020604051808303816000875af1158015610cbd573d6000803e3d6000fd5b505050506040513d601f19601f82011682018060405250810190610ce19190611f23565b50505050565b600060026000600160149054906101000a900461ffff1661ffff1661ffff16815260200190815260200160002060030160149054906101000a900461ffff16905090565b610d336110bf565b600260008261ffff1661ffff168152602001908152602001600020600080820160006101000a81549061ffff0219169055600182016000610d7491906116a0565b600282016000610d8491906116a0565b6003820160006101000a81549073ffffffffffffffffffffffffffffffffffffffff02191690556003820160146101000a81549061ffff02191690555050600360008261ffff1661ffff16815260200190815260200160002060006101000a81549073ffffffffffffffffffffffffffffffffffffffff02191690557f1b2a4599ca8376db030733f91aee33d618c2c4bf06bdee6f9513c121ece0ff1e81604051610e2f9190611aad565b60405180910390a150565b610e426110bf565b600073ffffffffffffffffffffffffffffffffffffffff168173ffffffffffffffffffffffffffffffffffffffff1603610eb1576040517f08c379a0000000000000000000000000000000000000000000000000000000008152600401610ea8906120c3565b60405180910390fd5b610eba81611587565b50565b6000610ec76110bf565b6040518060a001604052808661ffff1681526020018581526020018481526020018373ffffffffffffffffffffffffffffffffffffffff168152602001600061ffff16815250600260008761ffff1661ffff16815260200190815260200160002060008201518160000160006101000a81548161ffff021916908361ffff1602179055506020820151816001019081610f609190612285565b506040820151816002019081610f769190612285565b5060608201518160030160006101000a81548173ffffffffffffffffffffffffffffffffffffffff021916908373ffffffffffffffffffffffffffffffffffffffff16021790555060808201518160030160146101000a81548161ffff021916908361ffff16021790555090505081600360008761ffff1661ffff16815260200190815260200160002060006101000a81548173ffffffffffffffffffffffffffffffffffffffff021916908373ffffffffffffffffffffffffffffffffffffffff1602179055507fed71e55bd13a81ef77c16d1341638615a55bbe7198dd92ac1ea4221ab71ad7d184848460405161107193929190612390565b60405180910390a1600360008661ffff1661ffff16815260200190815260200160002060009054906101000a900473ffffffffffffffffffffffffffffffffffffffff169050949350505050565b6110c761164b565b73ffffffffffffffffffffffffffffffffffffffff166110e5610bcd565b73ffffffffffffffffffffffffffffffffffffffff161461113b576040517f08c379a000000000000000000000000000000000000000000000000000000000815260040161113290612421565b60405180910390fd5b565b60008061114b858585610744565b9050600160149054906101000a900461ffff1661ffff16816000015161ffff160361117a576000915050611180565b60019150505b9392505050565b600060026000600160149054906101000a900461ffff1661ffff1661ffff1681526020019081526020016000206040518060a00160405290816000820160009054906101000a900461ffff1661ffff1661ffff1681526020016001820180546111ef90611dee565b80601f016020809104026020016040519081016040528092919081815260200182805461121b90611dee565b80156112685780601f1061123d57610100808354040283529160200191611268565b820191906000526020600020905b81548152906001019060200180831161124b57829003601f168201915b5050505050815260200160028201805461128190611dee565b80601f01602080910402602001604051908101604052809291908181526020018280546112ad90611dee565b80156112fa5780601f106112cf576101008083540402835291602001916112fa565b820191906000526020600020905b8154815290600101906020018083116112dd57829003601f168201915b505050505081526020016003820160009054906101000a900473ffffffffffffffffffffffffffffffffffffffff1673ffffffffffffffffffffffffffffffffffffffff1673ffffffffffffffffffffffffffffffffffffffff1681526020016003820160149054906101000a900461ffff1661ffff1661ffff16815250509050600060026000600160149054906101000a900461ffff1661ffff1661ffff16815260200190815260200160002060030160009054906101000a900473ffffffffffffffffffffffffffffffffffffffff1690506000826060015173ffffffffffffffffffffffffffffffffffffffff166370a08231306040518263ffffffff1660e01b815260040161140d9190611b2e565b602060405180830381865afa15801561142a573d6000803e3d6000fd5b505050506040513d601f19601f8201168201806040525081019061144e9190611fed565b90508173ffffffffffffffffffffffffffffffffffffffff1663a7082de5846040015183306040518463ffffffff1660e01b815260040161149193929190612441565b600060405180830381600087803b1580156114ab57600080fd5b505af11580156114bf573d6000803e3d6000fd5b505050506000600160146101000a81548161ffff021916908361ffff160217905550505050565b6000816060015190508073ffffffffffffffffffffffffffffffffffffffff1663e502021f836040015147306040518463ffffffff1660e01b815260040161153093929190612441565b600060405180830381600087803b15801561154a57600080fd5b505af115801561155e573d6000803e3d6000fd5b505050508160000151600160146101000a81548161ffff021916908361ffff1602179055505050565b60008060009054906101000a900473ffffffffffffffffffffffffffffffffffffffff169050816000806101000a81548173ffffffffffffffffffffffffffffffffffffffff021916908373ffffffffffffffffffffffffffffffffffffffff1602179055508173ffffffffffffffffffffffffffffffffffffffff168173ffffffffffffffffffffffffffffffffffffffff167f8be0079c531659141344cd1fd0a4f28419497f9722a3daafe3b4186f6b6457e060405160405180910390a35050565b600033905090565b6040518060a00160405280600061ffff1681526020016060815260200160608152602001600073ffffffffffffffffffffffffffffffffffffffff168152602001600061ffff1681525090565b5080546116ac90611dee565b6000825580601f106116be57506116dd565b601f0160209004906000526020600020908101906116dc91906116e0565b5b50565b5b808211156116f95760008160009055506001016116e1565b5090565b6000604051905090565b600080fd5b600080fd5b600061ffff82169050919050565b61172881611711565b811461173357600080fd5b50565b6000813590506117458161171f565b92915050565b60006020828403121561176157611760611707565b5b600061176f84828501611736565b91505092915050565b61178181611711565b82525050565b600081519050919050565b600082825260208201905092915050565b60005b838110156117c15780820151818401526020810190506117a6565b60008484015250505050565b6000601f19601f8301169050919050565b60006117e982611787565b6117f38185611792565b93506118038185602086016117a3565b61180c816117cd565b840191505092915050565b600073ffffffffffffffffffffffffffffffffffffffff82169050919050565b600061184282611817565b9050919050565b61185281611837565b82525050565b600060a0830160008301516118706000860182611778565b506020830151848203602086015261188882826117de565b915050604083015184820360408601526118a282826117de565b91505060608301516118b76060860182611849565b5060808301516118ca6080860182611778565b508091505092915050565b600060208201905081810360008301526118ef8184611858565b905092915050565b61190081611837565b811461190b57600080fd5b50565b60008135905061191d816118f7565b92915050565b6000819050919050565b61193681611923565b811461194157600080fd5b50565b6000813590506119538161192d565b92915050565b600080604083850312156119705761196f611707565b5b600061197e8582860161190e565b925050602061198f85828601611944565b9150509250929050565b600080604083850312156119b0576119af611707565b5b60006119be85828601611736565b92505060206119cf85828601611736565b9150509250929050565b600080fd5b600080fd5b600080fd5b60008083601f8401126119fe576119fd6119d9565b5b8235905067ffffffffffffffff811115611a1b57611a1a6119de565b5b602083019150836020820283011115611a3757611a366119e3565b5b9250929050565b600080600060408486031215611a5757611a56611707565b5b600084013567ffffffffffffffff811115611a7557611a7461170c565b5b611a81868287016119e8565b93509350506020611a9486828701611736565b9150509250925092565b611aa781611711565b82525050565b6000602082019050611ac26000830184611a9e565b92915050565b611ad181611923565b82525050565b6000602082019050611aec6000830184611ac8565b92915050565b600060208284031215611b0857611b07611707565b5b6000611b1684828501611944565b91505092915050565b611b2881611837565b82525050565b6000602082019050611b436000830184611b1f565b92915050565b600060208284031215611b5f57611b5e611707565b5b6000611b6d8482850161190e565b91505092915050565b600080fd5b7f4e487b7100000000000000000000000000000000000000000000000000000000600052604160045260246000fd5b611bb3826117cd565b810181811067ffffffffffffffff82111715611bd257611bd1611b7b565b5b80604052505050565b6000611be56116fd565b9050611bf18282611baa565b919050565b600067ffffffffffffffff821115611c1157611c10611b7b565b5b611c1a826117cd565b9050602081019050919050565b82818337600083830152505050565b6000611c49611c4484611bf6565b611bdb565b905082815260208101848484011115611c6557611c64611b76565b5b611c70848285611c27565b509392505050565b600082601f830112611c8d57611c8c6119d9565b5b8135611c9d848260208601611c36565b91505092915050565b60008060008060808587031215611cc057611cbf611707565b5b6000611cce87828801611736565b945050602085013567ffffffffffffffff811115611cef57611cee61170c565b5b611cfb87828801611c78565b935050604085013567ffffffffffffffff811115611d1c57611d1b61170c565b5b611d2887828801611c78565b9250506060611d398782880161190e565b91505092959194509250565b6000819050919050565b6000611d6a611d65611d6084611817565b611d45565b611817565b9050919050565b6000611d7c82611d4f565b9050919050565b6000611d8e82611d71565b9050919050565b611d9e81611d83565b82525050565b6000602082019050611db96000830184611d95565b92915050565b7f4e487b7100000000000000000000000000000000000000000000000000000000600052602260045260246000fd5b60006002820490506001821680611e0657607f821691505b602082108103611e1957611e18611dbf565b5b50919050565b600082825260208201905092915050565b7f416d6f756e742073686f756c642062652067726561746572207468616e207a6560008201527f726f2e0000000000000000000000000000000000000000000000000000000000602082015250565b6000611e8c602383611e1f565b9150611e9782611e30565b604082019050919050565b60006020820190508181036000830152611ebb81611e7f565b9050919050565b6000604082019050611ed76000830185611b1f565b611ee46020830184611ac8565b9392505050565b60008115159050919050565b611f0081611eeb565b8114611f0b57600080fd5b50565b600081519050611f1d81611ef7565b92915050565b600060208284031215611f3957611f38611707565b5b6000611f4784828501611f0e565b91505092915050565b7f4e487b7100000000000000000000000000000000000000000000000000000000600052603260045260246000fd5b7f4e487b7100000000000000000000000000000000000000000000000000000000600052601160045260246000fd5b6000611fb982611711565b915061ffff8203611fcd57611fcc611f7f565b5b600182019050919050565b600081519050611fe78161192d565b92915050565b60006020828403121561200357612002611707565b5b600061201184828501611fd8565b91505092915050565b600060608201905061202f6000830186611b1f565b61203c6020830185611b1f565b6120496040830184611ac8565b949350505050565b7f4f776e61626c653a206e6577206f776e657220697320746865207a65726f206160008201527f6464726573730000000000000000000000000000000000000000000000000000602082015250565b60006120ad602683611e1f565b91506120b882612051565b604082019050919050565b600060208201905081810360008301526120dc816120a0565b9050919050565b60008190508160005260206000209050919050565b60006020601f8301049050919050565b600082821b905092915050565b6000600883026121457fffffffffffffffffffffffffffffffffffffffffffffffffffffffffffffffff82612108565b61214f8683612108565b95508019841693508086168417925050509392505050565b600061218261217d61217884611923565b611d45565b611923565b9050919050565b6000819050919050565b61219c83612167565b6121b06121a882612189565b848454612115565b825550505050565b600090565b6121c56121b8565b6121d0818484612193565b505050565b5b818110156121f4576121e96000826121bd565b6001810190506121d6565b5050565b601f8211156122395761220a816120e3565b612213846120f8565b81016020851015612222578190505b61223661222e856120f8565b8301826121d5565b50505b505050565b600082821c905092915050565b600061225c6000198460080261223e565b1980831691505092915050565b6000612275838361224b565b9150826002028217905092915050565b61228e82611787565b67ffffffffffffffff8111156122a7576122a6611b7b565b5b6122b18254611dee565b6122bc8282856121f8565b600060209050601f8311600181146122ef57600084156122dd578287015190505b6122e78582612269565b86555061234f565b601f1984166122fd866120e3565b60005b8281101561232557848901518255600182019150602085019450602081019050612300565b86831015612342578489015161233e601f89168261224b565b8355505b6001600288020188555050505b505050505050565b600061236282611787565b61236c8185611e1f565b935061237c8185602086016117a3565b612385816117cd565b840191505092915050565b600060608201905081810360008301526123aa8186612357565b905081810360208301526123be8185612357565b90506123cd6040830184611b1f565b949350505050565b7f4f776e61626c653a2063616c6c6572206973206e6f7420746865206f776e6572600082015250565b600061240b602083611e1f565b9150612416826123d5565b602082019050919050565b6000602082019050818103600083015261243a816123fe565b9050919050565b6000606082019050818103600083015261245b8186612357565b905061246a6020830185611ac8565b6124776040830184611b1f565b94935050505056fea26469706673582212202ba0afd180bc33e3749f53e7059288945e022e242a09345ff95cde0ef0745b3d64736f6c63430008110033",
  "immutableReferences": {},
  "source": "// SPDX-License-Identifier: MIT\npragma solidity >=0.4.22 <0.9.0;\n\nimport \"../../node_modules/@openzeppelin/contracts/access/Ownable.sol\";\nimport \"../../node_modules/@openzeppelin/contracts/token/ERC20/presets/ERC20PresetMinterPauser.sol\";\nimport \"../interfaces/IIntegration.sol\";\n\ncontract TopYieldSwap is Ownable {\n\n    uint16 private chainId;\n    address private tokenAddr;\n    uint16 private activePool;\n\n    struct YieldPool {\n        uint16 id;              // unique pool id\n        string project;         // project name\n        string token;           // ERC20 name\n        address addr;           // pool address\n        uint16 currentYield;    // pool yield\n    }\n\n    event YieldPoolAdded(string _project, string _token, address _addr);\n    event YieldPoolRemoved(uint16 _id);\n\n    event EnterPool(uint16 _poolId, uint256 _amount, uint256 _balance);\n    event ExitPool(uint16 _poolId, uint256 _amount);\n\n    mapping (uint16 => YieldPool) private yieldPools;\n    mapping (uint16 => IIntegration) private integrations;\n\n    constructor(uint16 _chainId, address _tokenAddr) {\n        chainId = _chainId;\n        tokenAddr = _tokenAddr;\n        activePool = 0x0;\n    }\n\n    /**\n     * @dev rebalance will exclusively: do nothing, exit current pool, or enter top pool\n     * should therefore be called again if exit current pool was the performed action.\n     */\n    function rebalance(uint16[] calldata _poolIds, uint16 _length) public onlyOwner returns(uint16 _yield) {\n        uint256 tokenBalance = getTokenBalance();\n        if (shouldSwap(_poolIds, _length) && tokenBalance > 0) {\n            exitCurrentPool();\n            return 0x0;\n        } else if (shouldSwap(_poolIds, _length) && tokenBalance == 0) {\n            enterPool(selectPool(_poolIds, _length));\n            return yieldPools[activePool].currentYield;\n        }\n    }\n\n    function getCurrentYield() public view returns (uint16 _apy) {\n        return yieldPools[activePool].currentYield;\n    }\n\n    function approve(address spender, uint256 _amount) public gtZero(_amount) {\n        IERC20 tokenContract = IERC20(tokenAddr);\n        tokenContract.approve(spender, _amount);\n    }\n\n    function deposit(uint256 _amount) payable public gtZero(_amount) {\n        IERC20 tokenContract = IERC20(tokenAddr);\n        tokenContract.transferFrom(msg.sender, address(this), _amount);\n    }\n\n    function withdrawal(uint256 _amount) public gtZero(_amount) {\n        IERC20 tokenContract = IERC20(tokenAddr);\n        tokenContract.transferFrom(address(this), msg.sender, _amount);\n    }\n\n    function getTokenBalance() public view returns (uint256 tokenBalance) {\n        return IERC20(tokenAddr).balanceOf(address(this));\n    }\n\n    function enterPool(YieldPool memory _yieldPool) internal {\n        IIntegration integration = IIntegration(_yieldPool.addr);\n        integration.addLiquidity(_yieldPool.token, address(this).balance, address(this));\n        activePool = _yieldPool.id;\n    }\n\n    function exitCurrentPool() internal {\n        YieldPool memory currentPool = yieldPools[activePool];\n        IIntegration integration = IIntegration(yieldPools[activePool].addr);\n        uint256 balance = IERC20(currentPool.addr).balanceOf(address(this));\n        integration.removeLiquidity(currentPool.token, balance, address(this));\n        activePool = 0x0;\n    }\n\n    function shouldSwap(uint16[] calldata _poolIds, uint16 _length) internal view returns(bool _bool) {\n        YieldPool memory topPool = selectPool(_poolIds, _length);\n        if (topPool.id == activePool) {\n            return false;\n        }\n        return true;\n    }\n\n    function selectPool(uint16[] calldata _poolIds, uint16 _length) public view returns (YieldPool memory yieldPool) {\n        uint16 _topYield = 0x0;\n        uint16 _poolId = 0;\n        for (uint16 i = 0; i < _length; i++) {\n            if (yieldPools[_poolIds[i]].currentYield >= _topYield) {\n                _topYield = yieldPools[_poolIds[i]].currentYield;\n                _poolId = i;\n            }\n        }\n        return yieldPools[_poolId];\n    }\n\n    function addYieldPool(\n        uint16 id,\n        string memory _project,\n        string memory _token,\n        address _addr\n    ) public onlyOwner returns(IIntegration integration) {\n        yieldPools[id] = YieldPool(id, _project, _token, _addr, 0x0);\n        integrations[id] = IIntegration(_addr);\n        emit YieldPoolAdded(_project, _token, _addr);\n        return integrations[id];\n    }\n\n    function removeYieldPool(\n        uint16 _id\n    ) public onlyOwner {\n        delete yieldPools[_id];\n        delete integrations[_id];\n        emit YieldPoolRemoved(_id);\n    }\n\n    function setYieldPoolYield(uint16 _id, uint16 _yield) public onlyOwner {\n        yieldPools[_id].currentYield = _yield; \n    }\n\n    function getYieldPool(uint16 _id) public view onlyOwner returns(YieldPool memory yieldPool) {\n        return yieldPools[_id];\n    }\n\n    modifier gtZero (uint256 _amount) {\n        require(_amount > 0, \"Amount should be greater than zero.\");\n        _;\n    }\n\n}\n",
  "sourcePath": "/Users/irasigman/code/agoras/bandit-protocol/contracts/instruments/TopYieldSwap.sol",
  "compiler": {
    "name": "solc",
    "version": "0.8.17+commit.8df45f5f.Emscripten.clang"
  },
  "schemaVersion": "3.4.10",
  "updatedAt": "2023-01-06T22:10:03.253Z",
  "devdoc": {
    "kind": "dev",
    "methods": {
      "owner()": {
        "details": "Returns the address of the current owner."
      },
      "rebalance(uint16[],uint16)": {
        "details": "rebalance will exclusively: do nothing, exit current pool, or enter top pool should therefore be called again if exit current pool was the performed action."
      },
      "renounceOwnership()": {
        "details": "Leaves the contract without owner. It will not be possible to call `onlyOwner` functions anymore. Can only be called by the current owner. NOTE: Renouncing ownership will leave the contract without an owner, thereby removing any functionality that is only available to the owner."
      },
      "transferOwnership(address)": {
        "details": "Transfers ownership of the contract to a new account (`newOwner`). Can only be called by the current owner."
      }
    },
    "version": 1
  },
  "userdoc": {
    "kind": "user",
    "methods": {},
    "version": 1
  }
}