{
  "contractName": "TopYieldSwap",
  "abi": [
    {
      "inputs": [
        {
          "internalType": "uint16",
          "name": "_chainId",
          "type": "uint16"
        },
        {
          "internalType": "address",
          "name": "_tokenAddr",
          "type": "address"
        }
      ],
      "stateMutability": "nonpayable",
      "type": "constructor"
    },
    {
      "anonymous": false,
      "inputs": [
        {
          "indexed": false,
          "internalType": "uint16",
          "name": "_poolId",
          "type": "uint16"
        },
        {
          "indexed": false,
          "internalType": "uint256",
          "name": "_amount",
          "type": "uint256"
        },
        {
          "indexed": false,
          "internalType": "uint256",
          "name": "_balance",
          "type": "uint256"
        }
      ],
      "name": "EnterPool",
      "type": "event"
    },
    {
      "anonymous": false,
      "inputs": [
        {
          "indexed": false,
          "internalType": "uint16",
          "name": "_poolId",
          "type": "uint16"
        },
        {
          "indexed": false,
          "internalType": "uint256",
          "name": "_amount",
          "type": "uint256"
        }
      ],
      "name": "ExitPool",
      "type": "event"
    },
    {
      "anonymous": false,
      "inputs": [
        {
          "indexed": true,
          "internalType": "address",
          "name": "previousOwner",
          "type": "address"
        },
        {
          "indexed": true,
          "internalType": "address",
          "name": "newOwner",
          "type": "address"
        }
      ],
      "name": "OwnershipTransferred",
      "type": "event"
    },
    {
      "anonymous": false,
      "inputs": [
        {
          "indexed": false,
          "internalType": "string",
          "name": "_project",
          "type": "string"
        },
        {
          "indexed": false,
          "internalType": "string",
          "name": "_token",
          "type": "string"
        },
        {
          "indexed": false,
          "internalType": "address",
          "name": "_addr",
          "type": "address"
        }
      ],
      "name": "YieldPoolAdded",
      "type": "event"
    },
    {
      "anonymous": false,
      "inputs": [
        {
          "indexed": false,
          "internalType": "uint16",
          "name": "_id",
          "type": "uint16"
        }
      ],
      "name": "YieldPoolRemoved",
      "type": "event"
    },
    {
      "inputs": [],
      "name": "owner",
      "outputs": [
        {
          "internalType": "address",
          "name": "",
          "type": "address"
        }
      ],
      "stateMutability": "view",
      "type": "function",
      "constant": true
    },
    {
      "inputs": [],
      "name": "renounceOwnership",
      "outputs": [],
      "stateMutability": "nonpayable",
      "type": "function"
    },
    {
      "inputs": [
        {
          "internalType": "address",
          "name": "newOwner",
          "type": "address"
        }
      ],
      "name": "transferOwnership",
      "outputs": [],
      "stateMutability": "nonpayable",
      "type": "function"
    },
    {
      "inputs": [
        {
          "internalType": "uint16[]",
          "name": "_poolIds",
          "type": "uint16[]"
        },
        {
          "internalType": "uint16",
          "name": "_length",
          "type": "uint16"
        }
      ],
      "name": "rebalance",
      "outputs": [
        {
          "internalType": "uint16",
          "name": "_yield",
          "type": "uint16"
        }
      ],
      "stateMutability": "nonpayable",
      "type": "function"
    },
    {
      "inputs": [
        {
          "internalType": "address",
          "name": "spender",
          "type": "address"
        },
        {
          "internalType": "uint256",
          "name": "_amount",
          "type": "uint256"
        }
      ],
      "name": "approve",
      "outputs": [],
      "stateMutability": "nonpayable",
      "type": "function"
    },
    {
      "inputs": [
        {
          "internalType": "uint256",
          "name": "_amount",
          "type": "uint256"
        }
      ],
      "name": "deposit",
      "outputs": [],
      "stateMutability": "payable",
      "type": "function",
      "payable": true
    },
    {
      "inputs": [
        {
          "internalType": "uint256",
          "name": "_amount",
          "type": "uint256"
        }
      ],
      "name": "withdrawl",
      "outputs": [],
      "stateMutability": "nonpayable",
      "type": "function"
    },
    {
      "inputs": [],
      "name": "getTokenBalance",
      "outputs": [
        {
          "internalType": "uint256",
          "name": "tokenBalance",
          "type": "uint256"
        }
      ],
      "stateMutability": "view",
      "type": "function",
      "constant": true
    },
    {
      "inputs": [
        {
          "internalType": "uint16",
          "name": "id",
          "type": "uint16"
        },
        {
          "internalType": "string",
          "name": "_project",
          "type": "string"
        },
        {
          "internalType": "string",
          "name": "_token",
          "type": "string"
        },
        {
          "internalType": "address",
          "name": "_addr",
          "type": "address"
        }
      ],
      "name": "addYieldPool",
      "outputs": [
        {
          "internalType": "contract IIntegration",
          "name": "integration",
          "type": "address"
        }
      ],
      "stateMutability": "nonpayable",
      "type": "function"
    },
    {
      "inputs": [
        {
          "internalType": "uint16",
          "name": "_id",
          "type": "uint16"
        }
      ],
      "name": "removeYieldPool",
      "outputs": [],
      "stateMutability": "nonpayable",
      "type": "function"
    }
  ],
  "bytecode": "0x60806040523480156200001157600080fd5b506040516200230738038062002307833981810160405281019062000037919062000250565b620000576200004b620000db60201b60201c565b620000e360201b60201c565b81600060146101000a81548161ffff021916908361ffff16021790555080600160006101000a81548173ffffffffffffffffffffffffffffffffffffffff021916908373ffffffffffffffffffffffffffffffffffffffff1602179055506000600160146101000a81548161ffff021916908361ffff160217905550505062000297565b600033905090565b60008060009054906101000a900473ffffffffffffffffffffffffffffffffffffffff169050816000806101000a81548173ffffffffffffffffffffffffffffffffffffffff021916908373ffffffffffffffffffffffffffffffffffffffff1602179055508173ffffffffffffffffffffffffffffffffffffffff168173ffffffffffffffffffffffffffffffffffffffff167f8be0079c531659141344cd1fd0a4f28419497f9722a3daafe3b4186f6b6457e060405160405180910390a35050565b600080fd5b600061ffff82169050919050565b620001c581620001ac565b8114620001d157600080fd5b50565b600081519050620001e581620001ba565b92915050565b600073ffffffffffffffffffffffffffffffffffffffff82169050919050565b60006200021882620001eb565b9050919050565b6200022a816200020b565b81146200023657600080fd5b50565b6000815190506200024a816200021f565b92915050565b600080604083850312156200026a5762000269620001a7565b5b60006200027a85828601620001d4565b92505060206200028d8582860162000239565b9150509250929050565b61206080620002a76000396000f3fe6080604052600436106100915760003560e01c8063b6b55f2511610059578063b6b55f2514610169578063e430e53a14610185578063e4480dd8146101ae578063f2fde38b146101d7578063fcb8c9a61461020057610091565b8063095ea7b3146100965780633acc5696146100bf578063715018a6146100fc57806382b2e257146101135780638da5cb5b1461013e575b600080fd5b3480156100a257600080fd5b506100bd60048036038101906100b89190611497565b61023d565b005b3480156100cb57600080fd5b506100e660048036038101906100e19190611576565b610359565b6040516100f391906115e5565b60405180910390f35b34801561010857600080fd5b5061011161041a565b005b34801561011f57600080fd5b5061012861042e565b604051610135919061160f565b60405180910390f35b34801561014a57600080fd5b506101536104d1565b6040516101609190611639565b60405180910390f35b610183600480360381019061017e9190611654565b6104fa565b005b34801561019157600080fd5b506101ac60048036038101906101a79190611681565b610617565b005b3480156101ba57600080fd5b506101d560048036038101906101d09190611654565b610726565b005b3480156101e357600080fd5b506101fe60048036038101906101f991906116ae565b61084b565b005b34801561020c57600080fd5b506102276004803603810190610222919061181c565b6108ce565b604051610234919061191a565b60405180910390f35b8060008111610281576040517f08c379a0000000000000000000000000000000000000000000000000000000008152600401610278906119b8565b60405180910390fd5b600060026000600160149054906101000a900461ffff1661ffff1661ffff16815260200190815260200160002060030160009054906101000a900473ffffffffffffffffffffffffffffffffffffffff1690508073ffffffffffffffffffffffffffffffffffffffff1663095ea7b385856040518363ffffffff1660e01b815260040161030f9291906119d8565b6020604051808303816000875af115801561032e573d6000803e3d6000fd5b505050506040513d601f19601f820116820180604052508101906103529190611a39565b5050505050565b6000610363610ad0565b600061036d61042e565b905061037a858585610b4e565b80156103865750600081115b1561039d57610393610b98565b6000915050610413565b6103a8858585610b4e565b80156103b45750600081145b15610411576103cc6103c7868686610ef7565b6111d8565b60026000600160149054906101000a900461ffff1661ffff1661ffff16815260200190815260200160002060030160149054906101000a900461ffff16915050610413565b505b9392505050565b610422610ad0565b61042c6000611279565b565b6000600160009054906101000a900473ffffffffffffffffffffffffffffffffffffffff1673ffffffffffffffffffffffffffffffffffffffff166370a08231306040518263ffffffff1660e01b815260040161048b9190611639565b602060405180830381865afa1580156104a8573d6000803e3d6000fd5b505050506040513d601f19601f820116820180604052508101906104cc9190611a7b565b905090565b60008060009054906101000a900473ffffffffffffffffffffffffffffffffffffffff16905090565b806000811161053e576040517f08c379a0000000000000000000000000000000000000000000000000000000008152600401610535906119b8565b60405180910390fd5b600060026000600160149054906101000a900461ffff1661ffff1661ffff16815260200190815260200160002060030160009054906101000a900473ffffffffffffffffffffffffffffffffffffffff1690508073ffffffffffffffffffffffffffffffffffffffff166323b872dd3330866040518463ffffffff1660e01b81526004016105ce93929190611aa8565b6020604051808303816000875af11580156105ed573d6000803e3d6000fd5b505050506040513d601f19601f820116820180604052508101906106119190611a39565b50505050565b61061f610ad0565b600260008261ffff1661ffff168152602001908152602001600020600080820160006101000a81549061ffff02191690556001820160006106609190611345565b6002820160006106709190611345565b6003820160006101000a81549073ffffffffffffffffffffffffffffffffffffffff02191690556003820160146101000a81549061ffff02191690555050600360008261ffff1661ffff16815260200190815260200160002060006101000a81549073ffffffffffffffffffffffffffffffffffffffff02191690557f1b2a4599ca8376db030733f91aee33d618c2c4bf06bdee6f9513c121ece0ff1e8160405161071b91906115e5565b60405180910390a150565b61072e610ad0565b8060008111610772576040517f08c379a0000000000000000000000000000000000000000000000000000000008152600401610769906119b8565b60405180910390fd5b600060026000600160149054906101000a900461ffff1661ffff1661ffff16815260200190815260200160002060030160009054906101000a900473ffffffffffffffffffffffffffffffffffffffff1690508073ffffffffffffffffffffffffffffffffffffffff166323b872dd3033866040518463ffffffff1660e01b815260040161080293929190611aa8565b6020604051808303816000875af1158015610821573d6000803e3d6000fd5b505050506040513d601f19601f820116820180604052508101906108459190611a39565b50505050565b610853610ad0565b600073ffffffffffffffffffffffffffffffffffffffff168173ffffffffffffffffffffffffffffffffffffffff16036108c2576040517f08c379a00000000000000000000000000000000000000000000000000000000081526004016108b990611b51565b60405180910390fd5b6108cb81611279565b50565b60006108d8610ad0565b6040518060a001604052808661ffff1681526020018581526020018481526020018373ffffffffffffffffffffffffffffffffffffffff168152602001600061ffff16815250600260008761ffff1661ffff16815260200190815260200160002060008201518160000160006101000a81548161ffff021916908361ffff16021790555060208201518160010190816109719190611d7e565b5060408201518160020190816109879190611d7e565b5060608201518160030160006101000a81548173ffffffffffffffffffffffffffffffffffffffff021916908373ffffffffffffffffffffffffffffffffffffffff16021790555060808201518160030160146101000a81548161ffff021916908361ffff16021790555090505081600360008761ffff1661ffff16815260200190815260200160002060006101000a81548173ffffffffffffffffffffffffffffffffffffffff021916908373ffffffffffffffffffffffffffffffffffffffff1602179055507fed71e55bd13a81ef77c16d1341638615a55bbe7198dd92ac1ea4221ab71ad7d1848484604051610a8293929190611eb3565b60405180910390a1600360008661ffff1661ffff16815260200190815260200160002060009054906101000a900473ffffffffffffffffffffffffffffffffffffffff169050949350505050565b610ad861133d565b73ffffffffffffffffffffffffffffffffffffffff16610af66104d1565b73ffffffffffffffffffffffffffffffffffffffff1614610b4c576040517f08c379a0000000000000000000000000000000000000000000000000000000008152600401610b4390611f44565b60405180910390fd5b565b600080610b5c858585610ef7565b9050600160149054906101000a900461ffff1661ffff16816000015161ffff1603610b8b576000915050610b91565b60019150505b9392505050565b600060026000600160149054906101000a900461ffff1661ffff1661ffff1681526020019081526020016000206040518060a00160405290816000820160009054906101000a900461ffff1661ffff1661ffff168152602001600182018054610c0090611bab565b80601f0160208091040260200160405190810160405280929190818152602001828054610c2c90611bab565b8015610c795780601f10610c4e57610100808354040283529160200191610c79565b820191906000526020600020905b815481529060010190602001808311610c5c57829003601f168201915b50505050508152602001600282018054610c9290611bab565b80601f0160208091040260200160405190810160405280929190818152602001828054610cbe90611bab565b8015610d0b5780601f10610ce057610100808354040283529160200191610d0b565b820191906000526020600020905b815481529060010190602001808311610cee57829003601f168201915b505050505081526020016003820160009054906101000a900473ffffffffffffffffffffffffffffffffffffffff1673ffffffffffffffffffffffffffffffffffffffff1673ffffffffffffffffffffffffffffffffffffffff1681526020016003820160149054906101000a900461ffff1661ffff1661ffff16815250509050600060026000600160149054906101000a900461ffff1661ffff1661ffff16815260200190815260200160002060030160009054906101000a900473ffffffffffffffffffffffffffffffffffffffff1690506000826060015173ffffffffffffffffffffffffffffffffffffffff166370a08231306040518263ffffffff1660e01b8152600401610e1e9190611639565b602060405180830381865afa158015610e3b573d6000803e3d6000fd5b505050506040513d601f19601f82011682018060405250810190610e5f9190611a7b565b90508173ffffffffffffffffffffffffffffffffffffffff1663a7082de5846040015183306040518463ffffffff1660e01b8152600401610ea293929190611f64565b600060405180830381600087803b158015610ebc57600080fd5b505af1158015610ed0573d6000803e3d6000fd5b505050506000600160146101000a81548161ffff021916908361ffff160217905550505050565b610eff611385565b60008060005b8461ffff168161ffff161015610fec578261ffff166002600089898561ffff16818110610f3557610f34611fa2565b5b9050602002016020810190610f4a9190611681565b61ffff1661ffff16815260200190815260200160002060030160149054906101000a900461ffff1661ffff1610610fd9576002600088888461ffff16818110610f9657610f95611fa2565b5b9050602002016020810190610fab9190611681565b61ffff1661ffff16815260200190815260200160002060030160149054906101000a900461ffff1692508091505b8080610fe490612000565b915050610f05565b50600260008261ffff1661ffff1681526020019081526020016000206040518060a00160405290816000820160009054906101000a900461ffff1661ffff1661ffff16815260200160018201805461104390611bab565b80601f016020809104026020016040519081016040528092919081815260200182805461106f90611bab565b80156110bc5780601f10611091576101008083540402835291602001916110bc565b820191906000526020600020905b81548152906001019060200180831161109f57829003601f168201915b505050505081526020016002820180546110d590611bab565b80601f016020809104026020016040519081016040528092919081815260200182805461110190611bab565b801561114e5780601f106111235761010080835404028352916020019161114e565b820191906000526020600020905b81548152906001019060200180831161113157829003601f168201915b505050505081526020016003820160009054906101000a900473ffffffffffffffffffffffffffffffffffffffff1673ffffffffffffffffffffffffffffffffffffffff1673ffffffffffffffffffffffffffffffffffffffff1681526020016003820160149054906101000a900461ffff1661ffff1661ffff1681525050925050509392505050565b6000816060015190508073ffffffffffffffffffffffffffffffffffffffff1663e502021f836040015147306040518463ffffffff1660e01b815260040161122293929190611f64565b600060405180830381600087803b15801561123c57600080fd5b505af1158015611250573d6000803e3d6000fd5b505050508160000151600160146101000a81548161ffff021916908361ffff1602179055505050565b60008060009054906101000a900473ffffffffffffffffffffffffffffffffffffffff169050816000806101000a81548173ffffffffffffffffffffffffffffffffffffffff021916908373ffffffffffffffffffffffffffffffffffffffff1602179055508173ffffffffffffffffffffffffffffffffffffffff168173ffffffffffffffffffffffffffffffffffffffff167f8be0079c531659141344cd1fd0a4f28419497f9722a3daafe3b4186f6b6457e060405160405180910390a35050565b600033905090565b50805461135190611bab565b6000825580601f106113635750611382565b601f01602090049060005260206000209081019061138191906113d2565b5b50565b6040518060a00160405280600061ffff1681526020016060815260200160608152602001600073ffffffffffffffffffffffffffffffffffffffff168152602001600061ffff1681525090565b5b808211156113eb5760008160009055506001016113d3565b5090565b6000604051905090565b600080fd5b600080fd5b600073ffffffffffffffffffffffffffffffffffffffff82169050919050565b600061142e82611403565b9050919050565b61143e81611423565b811461144957600080fd5b50565b60008135905061145b81611435565b92915050565b6000819050919050565b61147481611461565b811461147f57600080fd5b50565b6000813590506114918161146b565b92915050565b600080604083850312156114ae576114ad6113f9565b5b60006114bc8582860161144c565b92505060206114cd85828601611482565b9150509250929050565b600080fd5b600080fd5b600080fd5b60008083601f8401126114fc576114fb6114d7565b5b8235905067ffffffffffffffff811115611519576115186114dc565b5b602083019150836020820283011115611535576115346114e1565b5b9250929050565b600061ffff82169050919050565b6115538161153c565b811461155e57600080fd5b50565b6000813590506115708161154a565b92915050565b60008060006040848603121561158f5761158e6113f9565b5b600084013567ffffffffffffffff8111156115ad576115ac6113fe565b5b6115b9868287016114e6565b935093505060206115cc86828701611561565b9150509250925092565b6115df8161153c565b82525050565b60006020820190506115fa60008301846115d6565b92915050565b61160981611461565b82525050565b60006020820190506116246000830184611600565b92915050565b61163381611423565b82525050565b600060208201905061164e600083018461162a565b92915050565b60006020828403121561166a576116696113f9565b5b600061167884828501611482565b91505092915050565b600060208284031215611697576116966113f9565b5b60006116a584828501611561565b91505092915050565b6000602082840312156116c4576116c36113f9565b5b60006116d28482850161144c565b91505092915050565b600080fd5b6000601f19601f8301169050919050565b7f4e487b7100000000000000000000000000000000000000000000000000000000600052604160045260246000fd5b611729826116e0565b810181811067ffffffffffffffff82111715611748576117476116f1565b5b80604052505050565b600061175b6113ef565b90506117678282611720565b919050565b600067ffffffffffffffff821115611787576117866116f1565b5b611790826116e0565b9050602081019050919050565b82818337600083830152505050565b60006117bf6117ba8461176c565b611751565b9050828152602081018484840111156117db576117da6116db565b5b6117e684828561179d565b509392505050565b600082601f830112611803576118026114d7565b5b81356118138482602086016117ac565b91505092915050565b60008060008060808587031215611836576118356113f9565b5b600061184487828801611561565b945050602085013567ffffffffffffffff811115611865576118646113fe565b5b611871878288016117ee565b935050604085013567ffffffffffffffff811115611892576118916113fe565b5b61189e878288016117ee565b92505060606118af8782880161144c565b91505092959194509250565b6000819050919050565b60006118e06118db6118d684611403565b6118bb565b611403565b9050919050565b60006118f2826118c5565b9050919050565b6000611904826118e7565b9050919050565b611914816118f9565b82525050565b600060208201905061192f600083018461190b565b92915050565b600082825260208201905092915050565b7f416d6f756e742073686f756c642062652067726561746572207468616e207a6560008201527f726f2e0000000000000000000000000000000000000000000000000000000000602082015250565b60006119a2602383611935565b91506119ad82611946565b604082019050919050565b600060208201905081810360008301526119d181611995565b9050919050565b60006040820190506119ed600083018561162a565b6119fa6020830184611600565b9392505050565b60008115159050919050565b611a1681611a01565b8114611a2157600080fd5b50565b600081519050611a3381611a0d565b92915050565b600060208284031215611a4f57611a4e6113f9565b5b6000611a5d84828501611a24565b91505092915050565b600081519050611a758161146b565b92915050565b600060208284031215611a9157611a906113f9565b5b6000611a9f84828501611a66565b91505092915050565b6000606082019050611abd600083018661162a565b611aca602083018561162a565b611ad76040830184611600565b949350505050565b7f4f776e61626c653a206e6577206f776e657220697320746865207a65726f206160008201527f6464726573730000000000000000000000000000000000000000000000000000602082015250565b6000611b3b602683611935565b9150611b4682611adf565b604082019050919050565b60006020820190508181036000830152611b6a81611b2e565b9050919050565b600081519050919050565b7f4e487b7100000000000000000000000000000000000000000000000000000000600052602260045260246000fd5b60006002820490506001821680611bc357607f821691505b602082108103611bd657611bd5611b7c565b5b50919050565b60008190508160005260206000209050919050565b60006020601f8301049050919050565b600082821b905092915050565b600060088302611c3e7fffffffffffffffffffffffffffffffffffffffffffffffffffffffffffffffff82611c01565b611c488683611c01565b95508019841693508086168417925050509392505050565b6000611c7b611c76611c7184611461565b6118bb565b611461565b9050919050565b6000819050919050565b611c9583611c60565b611ca9611ca182611c82565b848454611c0e565b825550505050565b600090565b611cbe611cb1565b611cc9818484611c8c565b505050565b5b81811015611ced57611ce2600082611cb6565b600181019050611ccf565b5050565b601f821115611d3257611d0381611bdc565b611d0c84611bf1565b81016020851015611d1b578190505b611d2f611d2785611bf1565b830182611cce565b50505b505050565b600082821c905092915050565b6000611d5560001984600802611d37565b1980831691505092915050565b6000611d6e8383611d44565b9150826002028217905092915050565b611d8782611b71565b67ffffffffffffffff811115611da057611d9f6116f1565b5b611daa8254611bab565b611db5828285611cf1565b600060209050601f831160018114611de85760008415611dd6578287015190505b611de08582611d62565b865550611e48565b601f198416611df686611bdc565b60005b82811015611e1e57848901518255600182019150602085019450602081019050611df9565b86831015611e3b5784890151611e37601f891682611d44565b8355505b6001600288020188555050505b505050505050565b60005b83811015611e6e578082015181840152602081019050611e53565b60008484015250505050565b6000611e8582611b71565b611e8f8185611935565b9350611e9f818560208601611e50565b611ea8816116e0565b840191505092915050565b60006060820190508181036000830152611ecd8186611e7a565b90508181036020830152611ee18185611e7a565b9050611ef0604083018461162a565b949350505050565b7f4f776e61626c653a2063616c6c6572206973206e6f7420746865206f776e6572600082015250565b6000611f2e602083611935565b9150611f3982611ef8565b602082019050919050565b60006020820190508181036000830152611f5d81611f21565b9050919050565b60006060820190508181036000830152611f7e8186611e7a565b9050611f8d6020830185611600565b611f9a604083018461162a565b949350505050565b7f4e487b7100000000000000000000000000000000000000000000000000000000600052603260045260246000fd5b7f4e487b7100000000000000000000000000000000000000000000000000000000600052601160045260246000fd5b600061200b8261153c565b915061ffff820361201f5761201e611fd1565b5b60018201905091905056fea264697066735822122082d627f980c94df1c9bff855ebe68d06e106500824498daded03d6737378f78c64736f6c63430008110033",
  "immutableReferences": {},
  "source": "// SPDX-License-Identifier: MIT\npragma solidity >=0.4.22 <0.9.0;\n\nimport \"../../node_modules/@openzeppelin/contracts/access/Ownable.sol\";\nimport \"../interfaces/IIntegration.sol\";\n\ncontract TopYieldSwap is Ownable {\n\n    uint16 private chainId;\n    address private tokenAddr;\n    uint16 private activePool;\n\n    struct YieldPool {\n        uint16 id;\n        string project;\n        string token;\n        address addr;\n        uint16 currentYield;\n    }\n\n    event YieldPoolAdded(string _project, string _token, address _addr);\n    event YieldPoolRemoved(uint16 _id);\n\n    event EnterPool(uint16 _poolId, uint256 _amount, uint256 _balance);\n    event ExitPool(uint16 _poolId, uint256 _amount);\n\n    mapping (uint16 => YieldPool) private yieldPools;\n    mapping (uint16 => IIntegration) private integrations;\n\n    constructor(uint16 _chainId, address _tokenAddr) {\n        chainId = _chainId;\n        tokenAddr = _tokenAddr;\n        activePool = 0x0;\n    }\n\n    /**\n     * @dev rebalance will exclusively: do nothing, exit current pool, or enter top pool \n     */\n    function rebalance(uint16[] calldata _poolIds, uint16 _length) public onlyOwner returns(uint16 _yield) {\n        uint256 tokenBalance = getTokenBalance();\n        if (shouldSwap(_poolIds, _length) && tokenBalance > 0) {\n            exitCurrentPool();\n            return 0x0;\n        } else if (shouldSwap(_poolIds, _length) && tokenBalance == 0) {\n            enterPool(selectPool(_poolIds, _length));\n            return yieldPools[activePool].currentYield;\n        }\n    }\n\n    function approve(address spender, uint256 _amount) public gtZero(_amount) {\n        IERC20 tokenContract = IERC20(yieldPools[activePool].addr);\n        tokenContract.approve(spender, _amount);\n    }\n\n    function deposit(uint256 _amount) payable public gtZero(_amount) {\n        IERC20 tokenContract = IERC20(yieldPools[activePool].addr);\n        tokenContract.transferFrom(msg.sender, address(this), _amount);\n    }\n\n    function withdrawl(uint256 _amount) public onlyOwner gtZero(_amount) {\n        IERC20 tokenContract = IERC20(yieldPools[activePool].addr);\n        tokenContract.transferFrom(address(this), msg.sender, _amount);\n    }\n\n    function getTokenBalance() public view returns (uint256 tokenBalance) {\n        return IERC20(tokenAddr).balanceOf(address(this));\n    }\n\n    function enterPool(YieldPool memory _yieldPool) internal {\n        IIntegration integration = IIntegration(_yieldPool.addr);\n        integration.addLiquidity(_yieldPool.token, address(this).balance, address(this));\n        activePool = _yieldPool.id;\n    }\n\n    function exitCurrentPool() internal {\n        YieldPool memory currentPool = yieldPools[activePool];\n        IIntegration integration = IIntegration(yieldPools[activePool].addr);\n        uint256 balance = IERC20(currentPool.addr).balanceOf(address(this));\n        integration.removeLiquidity(currentPool.token, balance, address(this));\n        activePool = 0x0;\n    }\n\n    function shouldSwap(uint16[] calldata _poolIds, uint16 _length) internal view returns(bool _bool) {\n        YieldPool memory topPool = selectPool(_poolIds, _length);\n        if (topPool.id == activePool) {\n            return false;\n        }\n        return true;\n    }\n\n    function selectPool(uint16[] calldata _poolIds, uint16 _length) internal view returns (YieldPool memory yieldPool) {\n        uint16 _topYield = 0x0;\n        uint16 _poolId = 0;\n        for (uint16 i = 0; i < _length; i++) {\n            if (yieldPools[_poolIds[i]].currentYield >= _topYield) {\n                _topYield = yieldPools[_poolIds[i]].currentYield;\n                _poolId = i;\n            }\n        }\n        return yieldPools[_poolId];\n    }\n\n    function addYieldPool(\n        uint16 id,\n        string memory _project,\n        string memory _token,\n        address _addr\n    ) public onlyOwner returns(IIntegration integration) {\n        yieldPools[id] = YieldPool(id, _project, _token, _addr, 0x0);\n        integrations[id] = IIntegration(_addr);\n        emit YieldPoolAdded(_project, _token, _addr);\n        return integrations[id];\n    }\n\n    function removeYieldPool(\n        uint16 _id\n    ) public onlyOwner {\n        delete yieldPools[_id];\n        delete integrations[_id];\n        emit YieldPoolRemoved(_id);\n    }\n\n    modifier gtZero (uint256 _amount) {\n        require(_amount > 0, \"Amount should be greater than zero.\");\n        _;\n    }\n\n}\n",
  "sourcePath": "/Users/irasigman/code/agoras/bandit-protocol/contracts/instruments/TopYieldSwap.sol",
  "compiler": {
    "name": "solc",
    "version": "0.8.17+commit.8df45f5f.Emscripten.clang"
  },
  "schemaVersion": "3.4.11",
  "updatedAt": "2022-12-09T04:49:46.772Z",
  "networkType": "ethereum",
  "devdoc": {
    "kind": "dev",
    "methods": {
      "owner()": {
        "details": "Returns the address of the current owner."
      },
      "rebalance(uint16[],uint16)": {
        "details": "rebalance will exclusively: do nothing, exit current pool, or enter top pool "
      },
      "renounceOwnership()": {
        "details": "Leaves the contract without owner. It will not be possible to call `onlyOwner` functions anymore. Can only be called by the current owner. NOTE: Renouncing ownership will leave the contract without an owner, thereby removing any functionality that is only available to the owner."
      },
      "transferOwnership(address)": {
        "details": "Transfers ownership of the contract to a new account (`newOwner`). Can only be called by the current owner."
      }
    },
    "version": 1
  },
  "userdoc": {
    "kind": "user",
    "methods": {},
    "version": 1
  }
}